:020000040800F2
:10000000B1AA010000000000000000000000000094
:10001000000000000000000000000000C8270008E9
:1000200000000000000000000000000000000000D0
:1000300000000000000000000000000000000000C0
:1000400000000000000000000000000000000000B0
:1000500000000000000000000000000000000000A0
:100060000000000000000000000000000000000090
:100070000000000000000000000000000000000080
:100080000000000000000000000000000000000070
:100090000000000000000000000000000000000060
:1000A0000000000000000000000000000000000050
:1000B0000000000000000000000000000000000040
:1000C0000000000000000000000000000000000030
:1000D0000000000000000000000000000000000020
:1000E0001C280008000000000000000000000000C4
:1000F0000000000000000000000000000000000000
:1001000000000000000000000000000000000000EF
:10011000000000007228000800000000000000003D
:1001200000000000000000000000000000000000CF
:1001300000000000000000000000000000000000BF
:1001400000000000000000000000000000000000AF
:100150000000000000000000000000007370043088
:10016000170500001305C5FF8545F605637BB5003F
:1001700089816378B500170500001305C5002E9529
:1001800002859302002073A0027D970200009382F3
:1001900062E773907230974200009382E26A739034
:1001A000C27E73E0C07E974200009382A26173908A
:1001B0005230970100189381E16C178100181301E8
:1001C00061E4178500001305A516970500189385AF
:1001D00065E3170600181306E6EB63FAC5008322F1
:1001E000050023A0550011059105E3EAC5FE17059A
:1001F0000018130525EA971500189385A5C56377A0
:10020000B500232005001105E36DB5FE73F0023241
:10021000176500001305057097600000E780606AAD
:1002200097600000E780807297200000E780C0FCA4
:100230000145814597100000E78080F017630000BA
:100240006700E36901A073E00232828073F002323A
:0402500082800000A8
:100280000000000000000000010203040607080946
:100290000A50726F6772616D2068617320657869BA
:1002A000746564207769746820636F64653A000040
:1002B000307800006E6D690A000000007472617091
:1002C0000A0000000000D743000000380000A040F2
:1002D000000000000000594068226C787AA5D83FE1
:1002E000000000000000000000000000000000000E
:1002F0000000000808080808080800001818000096
:1003000000486C2412000000000000000000000003
:100310000000002424247F1212127F121212000007
:100320000000081C2A2A0A0C1828282A2A1C080857
:1003300000000022251515152A5854545422000097
:100340000000000C1212120A76252911916E00008D
:10035000000606040300000000000000000000008A
:10036000004020101008080808080810102040005D
:1003700000020408081010101010100808040200F1
:100380000000000008086B1C1C6B0808000000003F
:1003900000000000080808087F080808080000009E
:1003A000000000000000000000000000060604033A
:1003B0000000000000000000FE000000000000003F
:1003C0000000000000000000000000000606000021
:1003D00000008040402020101008080404020200A1
:1003E00000000018244242424242424224180000C7
:1003F000000000080E08080808080808083E000069
:100400000000003C4242422020100804427E0000CE
:100410000000003C4242201820404042221C0000C4
:10042000000000203028242422227E202078000092
:100430000000007E0202021A26404042221C0000F8
:10044000000000382402021A26424242241800000A
:100450000000007E2222101008080808080800008A
:100460000000003C4242422418244242423C000028
:10047000000000182442424264584040241C0000FE
:10048000000000000000181800000000181800000C
:100490000000000000000008000000000008080440
:1004A0000000004020100804020408102040000052
:1004B0000000000000007F0000007F00000000003E
:1004C0000000000204081020402010080402000070
:1004D0000000003C42424640201010001818000066
:1004E0000000001C225A555555552D42221C000073
:1004F0000000000808181414243C224242E70000BF
:100500000000001F2222221E22424242221F00001F
:100510000000007C4242010101010142221C000056
:100520000000001F2242424242424242221F00007B
:100530000000003F4212121E12120242423F00000F
:100540000000003F4212121E1212020202070000B7
:100550000000003C2222010101712122221C000026
:10056000000000E7424242427E42424242E700002F
:100570000000003E0808080808080808083E0000B7
:100580000000007C10101010101010101010110F2F
:100590000000007722120A0E0A12122222770000AF
:1005A000000000070202020202020202427F000073
:1005B00000000077363636362A2A2A2A2A6B0000AF
:1005C000000000E346464A4A525252626247000027
:1005D0000000001C2241414141414141221C0000D8
:1005E0000000003F424242423E0202020207000077
:1005F0000000001C2241414141414D53321C60002A
:100600000000003F4242423E1212222242C7000036
:100610000000007C4242020418204042423E00009A
:100620000000007F4908080808080808081C0000A6
:10063000000000E74242424242424242423C000045
:10064000000000E742422224241414180808000085
:100650000000006B494949495555362222220000C5
:10066000000000E7422424181818242442E7000060
:10067000000000772222141408080808081C000053
:100680000000007E2120101008040442423F0000B8
:10069000007808080808080808080808080878000A
:1006A0000000020204040808081010202020404026
:1006B000001E1010101010101010101010101E003E
:1006C00000384400000000000000000000000000AE
:1006D000000000000000000000000000000000FF1B
:1006E00000060800000000000000000000000000FC
:1006F000000000000000003C4278444242FC000040
:10070000000000030202021A26424242261A00009A
:1007100000000000000000384402020244380000DB
:1007200000000060404040784442424264D80000EB
:10073000000000000000003C427E0202423C00003B
:10074000000000F08808087E08080808083E00003D
:10075000000000000000007C22221C023C42423CBF
:10076000000000030202023A4642424242E7000011
:100770000000000C0C00000E08080808083E0000ED
:100780000000003030000038202020202020221ED1
:100790000000000302020272120A16122277000001
:1007A0000000000E0808080808080808083E0000B5
:1007B000000000000000007F9292929292B7000029
:1007C000000000000000003B4642424242E70000B9
:1007D000000000000000003C42424242423C000057
:1007E000000000000000001B26424242221E0207B9
:1007F000000000000000007844424242447840E09B
:1008000000000000000000774C040404041F0000F6
:10081000000000000000007C42023C40423E00001C
:10082000000000000008083E080808080830000022
:1008300000000000000000634242424262DC00000F
:1008400000000000000000E7422424140808000013
:1008500000000000000000EB49495555222200002D
:10086000000000000000007624181818246E000014
:1008700000000000000000E74224241418080807C4
:10088000000000000000007E22100808447E0000E6
:1008900000C0202020202010202020202020C00068
:1008A0001010101010101010101010101010101048
:1008B00000060808080808100808080808080600C4
:1008C000AAAA5555AAAA5555AAAA5555AAAA555530
:1008D000000000040A0E0A0A609060409060000068
:1008E000000000000040AF400100000004000000D4
:1008F000070000000E0000000200000005000000DC
:1009000008000000000000000300000006000000D6
:10091000090000000F0000000A0000000B000000AA
:100920000C0000000D000000475245454E2046498E
:100930004E4745525300000053797374656D206F24
:100940006E6C696E65000000477265656E206669B1
:100950006E6765727320776F726B696E6700000057
:100960004233000874330008EA3300086234000898
:10097000403600084E370008B2340008B234000890
:10098000E6340008343500089C350008BA35000804
:10099000D63500080C3600086A37000846390008CA
:1009A0008E380008A8380008BC3800088A380008CB
:1009B0008A380008D0380008E4380008F838000801
:1009C0000C390008263900082639000826390008A5
:1009D000203900084639000890380008AA38000875
:1009E000BE3800082639000826390008D238000829
:1009F000E6380008FA3800080E39000826390008E1
:100A0000263900082639000826390008477265652E
:100A10006E2066696E6765727300000073656520FD
:100A200064617461000000007265676973746572C7
:100A3000206120706C616E74000000007265736547
:100A4000740000006261636B00000000706C616EF6
:100A50007420000053656520736E61702073686FA9
:100A6000740000007669657720686973746F727925
:100A70000000000043686F6F7365206465666175F0
:100A80006C740000437573746F6D207365747469C2
:100A90006E677300546F6D61746F000063756375EA
:100AA0006D62657200000000507572706C652068A0
:100AB000617A6500437563756D62657200000000C0
:100AC00044525547532041524520424144000000C2
:100AD0006D6D6B6161616179790000006E656564BF
:100AE00020746F2062652061626C6520746F2072D3
:100AF00065616420696E2064617461004D6F697383
:100B0000747572653A20000073756E3A200000001B
:100B100054656D703A200000736F6D6520646174D8
:100B200061200000526573657420616C6C000000E8
:100B30007265736574206120706C616E74000000D2
:100B4000257300004F4B0000424548C3965645525E
:100B500020534B5547474100424548C3965645529E
:100B6000204C4A5553000000250000002225732226
:100B70003A0000005B0000002C0000007B226E6148
:100B80006D65223A222573222C2273746174757369
:100B9000223A222573222C2263757272656E745379
:100BA000756E223A25642C2263757272656E744DDF
:100BB0006F697374223A25642C2263757272656EB4
:100BC0007454656D70223A25642C22696465616CE9
:100BD0004D6F697374223A25642C22696465616CD7
:100BE00053756E223A25642C22696465616C5465E4
:100BF0006D70223A25642C226D696E4D6F69737495
:100C0000223A25642C226D696E53756E223A256452
:100C10002C226D696E54656D70223A25642C226D0C
:100C200061784D6F697374223A25642C226D617866
:100C300053756E223A25642C226D617854656D706F
:100C4000223A25647D0000005D0A0000696E207272
:100C500065636569766520636F6D6D616E647300B1
:100C600072656E646572416C6C506C616E74730079
:100C7000676574416C6C506C616E747300000000A9
:100C800064617461207472616E736D6974746564FB
:100C90000000000022636D64223A220022636D642A
:100CA000223A222531345B5E225D22007374617228
:100CB0007450756D7000000050554D5020535441D4
:100CC000525445442100000073746172744C616D8C
:100CD000700000004C414D5020544F47474C454454
:100CE00000000000616464506C616E7400000000DC
:100CF000226E616D65223A2200000000226E616D55
:100D000065223A22255B5E225D22000069646561EE
:100D10006C4D6F6973740000696465616C53756E26
:100D200000000000696465616C54656D700000002E
:100D30006D696E4D6F697374000000006D696E53CC
:100D4000756E00006D696E54656D70006D61784D53
:100D50006F697374000000006D617853756E000058
:100D60006D617854656D70004E455720504C414E72
:100D700054204144444544210000000042414420A5
:100D8000434F4D4D414E443A0000000036430000B1
:100D9000864200008C42000086420000284300008A
:100DA000864200008C4200003643000036430000BB
:100DB000284300008C4200006C4200006C4200009E
:100DC0006C420000904200003C4700003C4700009D
:100DD000544700003647000036470000E247000055
:100DE0005447000036470000E24700003647000045
:100DF00054470000344700003447000034470000E7
:100E0000E2470000425400006C540000945400007B
:100E10006C540000E05400006C5400009454000036
:100E20004254000042540000E0540000945400007A
:100E300054540000545400005454000098540000CE
:100E40004C5600004C560000645600004856000006
:100E500048560000AA56000064560000485600009C
:100E6000AA5600004856000064560000465600008E
:100E70004656000046560000AA5600000001020235
:100E80000303030304040404040404040505050522
:100E900005050505050505050505050506060606FE
:100EA00006060606060606060606060606060606E2
:100EB00006060606060606060606060607070707CE
:100EC00007070707070707070707070707070707B2
:100ED00007070707070707070707070707070707A2
:100EE0000707070707070707070707070707070792
:100EF000070707070707070707070707080808087E
:100F00000808080808080808080808080808080861
:100F10000808080808080808080808080808080851
:100F20000808080808080808080808080808080841
:100F30000808080808080808080808080808080831
:100F40000808080808080808080808080808080821
:100F50000808080808080808080808080808080811
:100F60000808080808080808080808080808080801
:100F700008080808080808080808080800202020B1
:100F80002020202020202828282828202020202039
:100F90002020202020202020202020202088101009
:100FA0001010101010101010101010101004040465
:100FB0000404040404040410101010101010414123
:100FC0004141414101010101010101010101010111
:100FD0000101010101010101101010101010424225
:100FE00042424242020202020202020202020202E1
:100FF0000202020202020202101010102000000081
:1010000000000000000000000000000000000000E0
:1010100000000000000000000000000000000000D0
:1010200000000000000000000000000000000000C0
:1010300000000000000000000000000000000000B0
:1010400000000000000000000000000000000000A0
:101050000000000000000000000000000000000090
:101060000000000000000000000000000000000080
:101070000000000000000000000000000000000070
:10108000232D302B20000000686C4C0065666745FE
:101090004647000030313233343536373839414233
:1010A0004344454600000000303132333435363792
:1010B000383961626364656600000000412D466155
:1010C0002D66383930313233343536375D00000023
:1010D0002B2D000030300000785800000000000088
:1010E0000000000000000000000000000000000000
:1010F00000000000000000000000000000000000F0
:1011000000000000000000000000000000000000DF
:1011100000000000000000000000000000000000CF
:1011200000000000000000000000000000000000BF
:101130000000000000000000000000001301018119
:101140002326117E2324817E2322917E2320217F4A
:10115000232E317D0569232C417D232A517D1301E6
:10116000018F1408130709ED3697FD77BA97B71565
:101170000008130600049385858E138507153EC667
:1011800097600000E7806084B24732477D7423AEE9
:10119000071223A00714B5472322F71423240714AA
:1011A0002326071497300000E7804078973000002E
:1011B000E780E07B97400000E780E08297400000F6
:1011C000E780208A97300000E780A007014597104C
:1011D0000000E780C093054597200000E780A0A1AC
:1011E00097200000E78080A3014597200000E7805A
:1011F00020E93716000805479306007E13068692FD
:10120000A945294597200000E780000197100000BC
:10121000E780801C014597100000E780C00005456D
:1012200097300000E78020F097000000E780204919
:10123000371500081305859397300000E78080EC90
:10124000CA87130709ED1408938707ED130AC4141E
:10125000369713090419B69781448149B70A0020CB
:101260003A9A3E9997100000E780207383A74A0AB4
:1012700085046358F000D2854A8597300000E780E6
:10128000401E97300000E780806D69DD97300000D8
:10129000E780E07197300000E780007885099307C8
:1012A000803E639EF9048567938707ED1808130550
:1012B0008414BA973E9597300000E78060020DC114
:1012C000B25599CD4A8597300000E780C0AB09C977
:1012D000371500081305859497300000E78080E2F9
:1012E00093D58440014597300000E7804076A6857D
:1012F000054597300000E78080758144814997302B
:101300000000E78020796340050405680A0593071B
:1013100001EEAA971008930608EDB29683A507156B
:101320003256930708ED13080101130744141305FF
:10133000C413C29736973E95CA8602D09720000004
:10134000E780E06005B705671408930707EDB697D7
:1013500093050414BE95930707ED1305C413B697C0
:101360003E9597200000E7800065EDBD4111B7274D
:10137000014006C693870740630BF500B73701406D
:10138000938707806303F502B24041018280130511
:10139000903097000000E780C04313059030B240C2
:1013A000410117030000670043441305A030970074
:1013B0000000E78000421305A030D5B7B7270140F1
:1013C00003A74740B706F1FFFD16758F23A2E7403C
:1013D00003A74740598D23A2A740828093F70510A9
:1013E00013F7054089890DC289C75C4193E707104F
:1013F0005CC109C75C4193E707405CC189C51C45D6
:1014000093E727001CC5828089C75C4193F7F7EFFB
:101410005CC109C75C4193F7F7BF5CC1EDD51C45C2
:10142000F59BCDB71C4599C5056713070780D98F74
:101430001CC582807D771307F77FF98FD5BF1C45C8
:10144000858B89E71C4593E717001CC582801C45E6
:101450001307850093E787001CC51C43A18BF5FF8C
:101460001C4593E747001CC51C43918BF5FF828008
:101470003727014083278740B7068000D58F232474
:10148000F740828085476386F50089476382F502CD
:1014900082805C55370710FF7D17F98F5CD55C554E
:1014A0007D1652063707F000798E5D8E50D582800A
:1014B0001C5D3707D0FF7D17F98F1CDD1C5D7D1685
:1014C000520637073000798E5D8E10DD8280154719
:1014D0006363B704B385E50203284503FD47B3976B
:1014E000B70093C7F7FFB3F70701B315B600DD8D5B
:1014F0004CD9A54763E9C7068D473306F6020C4968
:101500001D473317C7001347F7FF6D8F3396C6008B
:10151000598E10C98280AD4763E3B702E915B385E0
:10152000E50203280503FD47B397B70093C7F7FF0C
:10153000B3F70701B315B600DD8D0CD95DBFBD470C
:10154000E3E9B7FAD115B385E5020328C502FD47E3
:10155000B397B70093C7F7FFB3F70701B315B6000A
:10156000DD8D4CD579B7C54763E1C7028D47591664
:101570003306F60258459D47B397C70093C7F7FF58
:10158000F98F3396C600D18F5CC582801C5D7D4784
:1015900003288503D1838D8BB385B740ED57B38581
:1015A000F502A547BD053317B7001347F7FF33779B
:1015B0000701B315B600D98D0CDD63E1C7020D47F5
:1015C0003306E6021C491D473317C7001347F7FFD0
:1015D0007D8F3396C600598E10C98280C54763E15E
:1015E000C7028D4759163306F60258459D47B397F3
:1015F000C70093C7F7FFF98F3396C600D18F5CC53C
:10160000828085476386F5008947638DF500828077
:101610001445B705F2FFFD15ED8E14C51845518F21
:1016200018C582801845E576FD16758F18C51C45CE
:10163000D18F1CC5828093F71500898909CE91C787
:101640001C4537071000D98F1CC589C51C4521676B
:10165000D98F1CC5828099C71C453707F0FF7D17BD
:10166000F98F1CC5E5D91C4561777D17F98FD5B772
:1016700093F7150091C71C4537074000D98F1CC54B
:10168000898991C51C4537072000D98F1CC58280E8
:10169000684542054181828008416D8D3335A00047
:1016A0008280411106C697000000E780C015B24055
:1016B0004101170300006700E315F36704308280DF
:1016C000171300006700039E011106CE22CC32C41E
:1016D0002A842EC697100000E780809AB2452285A2
:1016E00097100000E780609E224622856244F24007
:1016F000B2850561171300006700A3A293F70501E7
:1017000093F8F50099C3B3E8C8008147054EBD4E74
:10171000130F8002930F800421433316FE00758E51
:101720001DC213972700832205003398EE0013484B
:10173000F8FF337858003397E8003367070163995F
:10174000E50550C918C18507E39967FC054EBD4EF4
:10175000130F8002930F800441433316FE00758EF1
:1017600005C6139727000117832245003398EE0022
:101770001348F8FF337858003397E80033670701C0
:10178000639CE50150C958C18507E39867FC8280D6
:10179000E39AF5FB10C97DB7E397F5FF10C9E5B7EC
:1017A0000CC982804CC98280377700401C4393E784
:1017B00007101CC38280B7170240135765003E977D
:1017C00014438547B397A700D58F1CC38280B717F2
:1017D0000240135765003E9714438547B397A7000F
:1017E000D58F1CC38280B7170240135765003E9700
:1017F00014438547B397A70093C7F7FFF58F1CC322
:101800008280371702401C53C166D58F1CD382805B
:10181000B71602409C5241777D17F98F9CD2828087
:10182000B7170240DC433747FFEF7D17F98F1547A5
:10183000630EE5006369A7000D476370A7023717C1
:1018400002405CC382801D47E31BE5FE3A05317709
:10185000798D5D8DB707001011A03A05C98FC5B706
:10186000371702401C5393F7F7CF5D8D08D3828062
:1018700013576500B71702403E971C4333D5A700A6
:1018800005898280411106C622C426C2E947630742
:10189000F50E63EFA700C1476304F504E147630257
:1018A000F50C59C10145B240224492444101828065
:1018B00093070580A1CB8567138707906302E5082E
:1018C000F147E311F5FE370410007D1475459700CC
:1018D0000000E78020FA19E17D146DF8754521A814
:1018E00041647D14454597000000E780A0F819E1A8
:1018F0007D146DF8454597000000E780A0F733356B
:10190000A00055B73704000485647D1493841480C7
:10191000268597000000E780E0F519E17D146DF859
:10192000056513051580C1BF1304005005459700D8
:101930000000E78020F419E17D146DF8054565BFCE
:10194000370410007D1493841790268597000000BB
:10195000E78040F219E17D146DF8056513051590D7
:1019600059BF370410007D14654597000000E780DB
:1019700060F019E17D146DF86545B5BF37041000BE
:101980007D146D4597000000E780C0EE19E17D14DD
:101990006DF86D458DB7B7170240135765003E9738
:1019A00014438547B397A700D58F1CC382807971F4
:1019B000B705000822D441462A84938505280808E3
:1019C00006D697500000E7804000B70703049387CE
:1019D000172002C03EC202C43EC6371702405C4315
:1019E000894689838D8B6397D70E5C439396F70066
:1019F00063D606065C579396F70063DC06045C57D3
:101A0000585791832183BD8B3D8B9386170009071F
:101A1000C5476313F7005147B7177A00938707202C
:101A2000B3D7D702B387E7023717024058573D8B29
:101A3000050733D7E702B7160240DC42D442C98318
:101A400013962600BD8B6350060293E707018507B6
:101A50000DA0B7177A0093870720F9B7B7173D0095
:101A600013870790C9BFBD46E383D7FE8907638DFF
:101A7000D704B387E702B7160240D842101011838B
:101A80003D8B3297034507FFD84233D5A70021830A
:101A90001D8B3297034607FED84214102D831D8BF1
:101AA00036978546034787FE630CD40005CC8947EB
:101AB0006307F4028D473355E5006303F4000145E5
:101AC000B2502254456182809947B307F7020583DB
:101AD000BA9755B7B7177A009387072069BF335570
:101AE000C500F9BF3E85E9BF3737004083274780EF
:101AF00093E707012322F78082803737004083274E
:101B00004780BD9B2322F7808280011106CE2AC622
:101B100097000000E78080FD3245B7370040F24073
:101B200013570501420523ACE780418123AEA7800E
:101B3000056117030000670083FC011106CE2AC669
:101B400097000000E78080FA324537370040F240C6
:101B500093570501BD8B42052324F780418123263D
:101B6000A780056117030000670063F9373700405D
:101B70008327478093F70702E5DF828037370040ED
:101B800083274780DD9B2322F78083274780A18B13
:101B9000EDDF8280B737004083A78781B7360040EA
:101BA00003A5C68103A786816395E700C2075D8D03
:101BB0008280BA87F5B7B737004003A7478013453F
:101BC000F5FF798D23A2A7808280232005002322A0
:101BD00005002324050023260500232A0500232CC5
:101BE000050082801C410D6713070704D4417D8FD7
:101BF0009C41D58F9445D58FD445D58F9449D58FA9
:101C0000D449D58F944DD58FD98F1CC15C4D7D772C
:101C10001307F77FF98F5CCD82801C4193E707049F
:101C20001CC182804CC5828048454205418182802A
:101C300008456D8D3335A00082804111B7570040B3
:101C400006C6138707C06309E506636FA700374719
:101C5000004013070740630FE50293870780630482
:101C6000F504B240410182806301F506B7470140A7
:101C700093870780E317F5FE1305E0309700000017
:101C8000E78020B51305E030B240410117030000A2
:101C90006700A3B51305104197000000E78060B30B
:101CA00013051041D5B71305204197000000E780C8
:101CB00040B213052041C9BF130530419700000011
:101CC000E78020B113053041C1B7130540419700AB
:101CD0000000E78000B0130540417DB74111B757C0
:101CE000004022C426C206C6138707C02A84AE84D9
:101CF000630FE500636FA7003747004013070740F5
:101D00006307E5009387078001456312F4020945E4
:101D100019A8E30EF5FEB7470140938707800145F8
:101D20006317F4000D4597000000E78080C893D743
:101D30001400AA97B3D79702B2409244C207C18356
:101D40001CC42244410182805C4593F7F79F5CC527
:101D50005C45DD8D4CC582805C457D777D17F98FB4
:101D60005CC55C45DD8D4CC582801C4975777D174F
:101D7000F98F1CC91C49DD8D0CC982805C4509673F
:101D8000D98F5CC582805C45DD9BDD8D4CC5828032
:101D90005C45ED9BDD8D4CC5828093F5F51F4CC1F4
:101DA000828048411375F51F82805C4993F7F7EFF5
:101DB000DD8D4CC982805C4993F7F7DFDD8D4CC91E
:101DC000828093D7650093F7F73F3E9508413355DE
:101DD000B5000589828093D7650093F7F73F3E955C
:101DE00018418547B397B700D98F1CC1828013D79C
:101DF00065001377F73F3A9518418547B397B700C9
:101E000093C7F7FFF98F1CC1828013D76500137742
:101E1000F73F2A97144313D765012A97184313D520
:101E2000050185473395A700798D11C53395B70016
:101E3000758D3335A0008280B71702409843B706EE
:101E4000FFE0B1061367170098C3D843758FD8C356
:101E50009843B706F7FEFD16758F98C39843B706EB
:101E6000FCFFFD16758F98C3D843B70601DFFD163A
:101E7000758FD8C323A607029843B706F7EAFD1665
:101E8000758F98C33707FF0098C794434167D98E71
:101E900094C39307F7FF3717024014431396E600E5
:101EA00063440600FD17F5FBB717024098439316ED
:101EB000E70063C3060001A0D843B706C4DFFD16E0
:101EC000D8C3D843D8C3D84313670740D8C3D8432F
:101ED000758FD8C3D843B7062920558FD8C3D85794
:101EE000BD76758FD8D7D857C166938616F1558FB2
:101EF000D8D79843B7060004558F98C3B717024048
:101F0000984393164700E3DD06FE9843B70600109A
:101F1000558F98C3B7170240984393162700E3DD07
:101F200006FE9843B7060001558F98C3B7170240C5
:101F3000984393166700E3DD06FED843719BD8C330
:101F4000D84313672700D8C3371702405C43A18BDF
:101F5000F5DF82807971B705000822D47D462A8496
:101F6000938505290A8506D697500000E780E0A5ED
:101F700079468A85094597500000E78000F4A285DC
:101F8000094597000000E780C004B7050008054632
:101F90009385052C094597500000E78000F201A0C9
:101FA00037070020130747081C43B7160020938605
:101FB00006E53E95636BD500B77600209386060054
:101FC00063E5A60008C33E858280FD57EDBF7971A9
:101FD0004ECEAE89B705000809469385052B22D45D
:101FE00026D24AD052CC56CA06D62A897144975076
:101FF0000000E78080EC3D4AA54AF154B3178A00FF
:10200000B3F73701B3D7870093F7F70F63ECFA0202
:102010009387070393F7F70F05469305F1004A8569
:102020007114A307F10097500000E78000E9E3175F
:1020300094FCB250225492540259F249624AD24A54
:102040004561828093877703F1B7B70700D1D84302
:102050008843CC43E39DE5FE8280B70700D223800E
:102060000700A38507001205B71700D23E9563E36A
:10207000A700828023A00700C107D5BFB71700D2F1
:1020800085070A053E9585472300F5008280B7073E
:102090008034938707403E950A052300050082801F
:1020A000370700D2834707000605798993F7170E93
:1020B0005D8D2300A7008280B70700D203C507000B
:1020C00005813D898280411122C426C206C62A8428
:1020D000AE8497000000E78060FE9147114763E3FC
:1020E000A7002A87371500D20A040D0522958347D9
:1020F00005009376F70FA145B397E70093F7F70F25
:10210000958DB394B400B3D7E740C58F93F7F70F1D
:102110002300F500B2402244924441018280011123
:1021200022CC2EC606CE2A8497000000E78000F954
:102130008D47814563E9A702371700D20A040D07CE
:10214000229783470700B245A1463385A6409205F2
:10215000B3D7A74093F5F50FB397A700CD8F93F7AB
:10216000F70F2300F700F24062442E85056182805C
:10217000F327503093F707FC93E7370073905730FD
:102180008280B71700D289070A053E95834705006C
:1021900093E717002300F5008280B705000841117E
:1021A00015469385452B054506C697500000E780E8
:1021B000C0D0054597000000E78000DA4111934741
:1021C000F5FF22C406C6139747012A8409E7970042
:1021D0000000E780C0FCB705000815469385C52BB5
:1021E000054597500000E78040CD2285970000000C
:1021F000E78080D6411106C697000000E78000C442
:102200001305700597000000E78060E59700000067
:10221000E78040F6B240410117E3FFFF6700E302A9
:102220008280411126C2AA841305206006C622C4FA
:1022300097F0FFFFE78060581305906097F0FFFF6D
:10224000E780A0570D4597F0FFFFE780A05D3715A9
:102250000140A946014681451305058097F0FFFF1F
:10226000E780004A372401401305044097F0FFFF40
:10227000E7800010014597F0FFFFE78060140146FA
:1022800089451305044097F0FFFFE780601501467C
:10229000930500101305044097F0FFFFE7804014FA
:1022A00081451305044097F0FFFFE780E0170546DE
:1022B00085451305044097F0FFFFE780E01C894641
:1022C0000D4681451305044097F0FFFFE78060202D
:1022D00037060E0085451305044097F0FFFFE780A1
:1022E0008032054685451305044097F0FFFFE780DF
:1022F000C0349DCC0546930500401305044097F07B
:10230000FFFFE780E00D054689451305044097F07F
:10231000FFFFE780601797F0FFFFE780A0159D465D
:10232000414681451305044097F0FFFFE7804026B2
:10233000372401401305044097F0FFFFE780601049
:102340001305044097F0FFFFE780A0101305044039
:102350002244B24092448545410117F3FFFF6700D4
:102360006331411126C2AA843745004022C41305B7
:102370000580374400404AC006C613090480970010
:102380000000E780A08A89454A8597000000E78021
:10239000608A75D9A68513050480374400409700EC
:1023A0000000E780608893040480854526859700B7
:1023B0000000E780208875D913050480970000008D
:1023C000E780C086B2402244924402491375F50F5B
:1023D0004101828079711305206006D622D426D26D
:1023E00097F0FFFFE780603D1305E07097F0FFFF77
:1023F000E780A03C1305306097F0FFFFE780E03BEB
:10240000B714014013850480C1460D46C14597F0BD
:10241000FFFFE780E02E138504C0A9660D46E14565
:1024200097F0FFFFE780C02D91660D46138504C02D
:10243000914597F0FFFFE780A02CC14513850480EC
:1024400097F0FFFFE7800036480097F0FFFFE78036
:102450000078930740103EC28D47374400403ECC81
:10246000930700204C003EC8130504809307000228
:102470003ECE02C402C602CA97F0FFFFE780C076D4
:102480001305048097F0FFFFE780607983270480BD
:10249000C1451385048093F777FC93E70702232057
:1024A000F48097F0FFFFE7802030130500089700C5
:1024B0000000E78040EB1305100D97000000E78057
:1024C00080EA13850480C14597F0FFFFE780802DE7
:1024D00083270480B250925493F777FC93E78700E8
:1024E0002320F480225445618280011126CAB7441A
:1024F000004083A7048006CE22CC93F777FC4AC81D
:102500004EC693E707023719014023A0F480C14566
:102510001305098097F0FFFFE78000290545970024
:102520000000E78040E41305F00F97000000E7800B
:1025300080E32A841305F00F97000000E780A0E2F3
:10254000AA89054597000000E780403813050980F7
:10255000C14597F0FFFFE780E02483A704801315AF
:10256000840033653501F240624493F777FC93E7CA
:102570008700420523A0F4804181D2444249B249F8
:102580000581056182807971B70700084ECE83A965
:10259000472CB707000862C403AC872CB7070008B4
:1025A00052CC56CA03AA072D83AA472DB7070008A5
:1025B0005AC85EC603AB872D83ABC72D22D426D263
:1025C00006D64AD095441304000097000000E78027
:1025D00000F297400000E780A0FFCE859740000002
:1025E000E78040D1E28597400000E780A0D0974087
:1025F0000000E78000085286D68697300000E7800A
:1026000000FD5A86DE8697200000E780E05897405C
:102610000000E780E00FAA85228597300000E78060
:10262000E0762A84654905457D1997000000E7801A
:10263000E02997000000E7804036E31609FEFD140C
:10264000C9F4B707000883A5C72C2285974000006E
:10265000E780E0A4B250225492540259F249624AEF
:10266000D24A424BB24B224C45618280411122C476
:1026700006C626C24AC085472A84631CF5068946D9
:1026800005463725014081451305054097F0FFFFBA
:10269000E78020E437250140854513050540B72430
:1026A000014097F0FFFFE780E0FC13890440894573
:1026B0004A8597F0FFFFE78060FE75D913850440D7
:1026C00097F0FFFFE78000FD8D47631AF4028567EE
:1026D000938787ED3385A740635305000145930732
:1026E00060023345F502B24022449244024941015E
:1026F00082808D47E310F5FA89460D4659B7854724
:10270000E313F4FE85679387479C3385A7406353A3
:1027100005000145A547F1B7011126CAB7040020FD
:10272000938444099C4022CC4AC84EC652C456C227
:102730003709002006CE2A842E8AB28AB689130968
:10274000090985EFB70700D2C8434E054D8188C0FF
:1027500097000000E780A09097000000E78080A12C
:1027600088400A0597400000E780E0242320A90064
:102770000D4597F0FFFFE780E0F422859700000009
:10278000E780209113F6FA0F9375FA0F228597F0E0
:10279000FFFFE780A0F3228597000000E780A09E5E
:1027A000228597000000E780A08D832709000A0496
:1027B000F2403E94232034016244D2444249B2495B
:1027C000224A924A0561828039713ECCB7070020C7
:1027D00083A7070906DE16DCDC4F1ADA1ED82AD6D4
:1027E0002ED432D236D03ACE42CA46C872C676C449
:1027F0007AC27EC08297F250E2525253C25332558F
:10280000A255125682567247E2475248C248324E8B
:10281000A24E124F824F21617300203039713ECC9D
:10282000B707002083A7070906DE16DC83A7070E7B
:102830001ADA1ED82AD62ED432D236D03ACE42CA8E
:1028400046C872C676C47AC27EC08297F250E252FF
:102850005253C2533255A255125682567247E2471E
:102860005248C248324EA24E124F824F216173002D
:10287000203039713ECCB707002083A7070906DE58
:1028800016DC83A747111ADA1ED82AD62ED432D2E4
:1028900036D03ACE42CA46C872C676C47AC27EC024
:1028A0008297F250E2525253C2533255A2551256F9
:1028B00082567247E2475248C248324EA24E124FE9
:1028C000824F21617300203079714AD04ECE5AC8B0
:1028D00006D622D426D252CC56CA5EC662C466C27E
:1028E0002A8B97F0FFFFE7808076AA892E8997F0E0
:1028F000FFFFE780C075AA842E846394A900E308D3
:10290000B9FEB717000803A9078E83A9478EB70B36
:10291000002097F0FFFFE7808073AA87058DB3B78B
:10292000A700818D9D8D97300000E780C02F2A8AF7
:1029300003A50B08AE8A97300000E78060294A861D
:10294000CE8697200000E78020252A8C5A85AE8C01
:1029500097300000E780C0272A86AE866285E6852C
:1029600097300000E780E0812A86AE865285D685C2
:1029700097200000E780A076E34D05F8B25022547E
:1029800092540259F249624AD24A424BB24B224C0B
:10299000924C45618280411122C4B7070020370460
:1029A00000200327C40983A7070A06C626C2630AB4
:1029B000F7083745004089451305058097F0FFFF6C
:1029C000E78040272DC589653715014097F0FFFF47
:1029D000E78080DD1304C4091440B7070020138783
:1029E000C70B8A06369714431307F00F9384C70B5F
:1029F000A165371501406351D70497F0FFFFE780C9
:102A000060DA1C4037450040130505801387170026
:102A10008A07A69783C5070018C097F0FFFFE780D5
:102A2000A0201C4013070010B3E7E7021CC0B2400F
:102A3000224492444101828097F0FFFFE780C0D694
:102A4000C9B72244B240924489653715014041011B
:102A500017F3FFFF670003D5411122C426C206C643
:102A6000B70400203704002003A7C4098327040A01
:102A70006317F700B24022449244410182809700DC
:102A80000000E78080F1CDB7011122CC26CA4AC8E8
:102A900006CE3709002093040010370400201306E7
:102AA000090A1C428326C40913871700336797025B
:102AB0006301D70293962700B7070020F2406244D3
:102AC0009387C70BB69788C318C2D24442490561A1
:102AD00082802AC697000000E78020EC3245C1B70B
:102AE000411122C42A8421851305051006C69700CA
:102AF0000000E780A0F91375F40F2244B2401305DB
:102B00000510410117030000670043F8011122CCB2
:102B10003704002026CAD95713048409AA84130550
:102B2000A00206CE36C2A301F4002EC632C497001E
:102B30000000E780A0F503452400269597000000DB
:102B4000E78040FA224603452400329597000000B2
:102B5000E78040F91305B00297000000E78000F31A
:102B6000B245034534002E9597000000E78080F7BA
:102B7000034534009246369597000000E78080F6C2
:102B80006244F240D2441305C002056117030000FD
:102B90006700C3EF797189653715014006D622D4E5
:102BA00097F0FFFFE78000C0480097F0FFFFE78045
:102BB0000002930740103EC28D473ECC3744004090
:102BC000930700203EC84C00A147130504803ECE69
:102BD00002C402C602CA97F0FFFFE780E0001305B7
:102BE000048097F0FFFFE7808003B25022544561D4
:102BF000828009E9B707011A370700208507232CCF
:102C0000F70882808547E31EF5FEB70700183707EF
:102C1000002093871710E5B7B707002003C787097F
:102C2000411122C406C61384870911E701459700A4
:102C30000000E78040FC1305306097F0FFFFE7805D
:102C4000C0B71305406097F0FFFFE78000B713059A
:102C5000006097F0FFFFE78040B61305E07097F043
:102C6000FFFFE78080B537150140B9660D46E145A5
:102C7000130505C097F0FFFFE78080A8A9660D4601
:102C8000C1453715014097F0FFFFE78060A7970027
:102C90000000E78060F0A9653715014097F0FFFF5D
:102CA000E78080B097000000E78040DB1305400616
:102CB00097000000E78080C1054597000000E7808D
:102CC000E0DC97000000E78060D9130580079700DB
:102CD0000000E780A0BF454597000000E78000DBCB
:102CE00097000000E78080D713054006970000009A
:102CF000E780C0BD834714001305200299E3130544
:102D0000100297000000E78060D81305100B9700B1
:102D10000000E780A0D71305501097000000E7805F
:102D2000E0D61305A01397000000E78020D6130516
:102D3000A01397000000E78060D51305200B9700D3
:102D40000000E780A0D41305501097000000E78032
:102D5000E0D31305A01397000000E78020D31305EC
:102D6000A01397000000E78060D21305300B970096
:102D70000000E780A0D11305501097000000E78005
:102D8000E0D01305A01397000000E78020D01305C2
:102D9000A01397000000E78060CF13055010970044
:102DA0000000E780A0CE1305A01397000000E78085
:102DB000E0CD1305A01397000000E78020CD130598
:102DC000400B97000000E78060CC1305301097009F
:102DD0000000E780A0CB1305000C97000000E780FF
:102DE000E0CA1305201697000000E78020CA1305EB
:102DF000201097000000E78060C91305401097007D
:102E00000000E780A0C81305100C97000000E780C1
:102E1000E0C71305001C97000000E78020C71305DA
:102E2000200C97000000E78060C61305D0109700C3
:102E30000000E780A0C51305001097000000E780A0
:102E4000E0C41305300C97000000E78020C4130590
:102E5000D01897000000E78060C31305A016970004
:102E60000000E780A0C21305400C97000000E78037
:102E7000E0C11305D01897000000E78020C11305BA
:102E8000E01E97000000E78060C01305500C97001B
:102E90000000E780A0BF1305E01097000000E78066
:102EA000E0BE1305000E97000000E78020BE13056A
:102EB000001197000000E78060BD1305E010970047
:102EC0000000E780A0BC1305201097000000E780F9
:102ED000E0BB1305301097000000E78020BB13050E
:102EE000E01097000000E78060BA130570109700AB
:102EF0000000E780A0B91305201097000000E780CC
:102F0000E0B81305701097000000E78020B81305A3
:102F1000A01097000000E78060B71305201197000C
:102F20000000E780A0B61305701297000000E7804C
:102F3000E0B51305701397000000E78020B5130576
:102F4000001097000000E78060B41305D0109700D0
:102F50000000E780A0B31305E01097000000E780B1
:102F6000E0B21305001197000000E78020B21305BE
:102F7000100E97000000E78060B113050011970064
:102F80000000E780A0B01305E01097000000E78084
:102F9000E0AF1305301097000000E78020AF130565
:102FA000301097000000E78060AE1305F010970026
:102FB0000000E780A0AD1305601097000000E780D7
:102FC000E0AC1305201097000000E78020AC13054B
:102FD000801097000000E78060AB1305A0109700F9
:102FE0000000E780A0AA1305301197000000E780D9
:102FF000E0A91305601297000000E78020A91305DF
:10300000601397000000E78060A813050010970088
:103010000000E780A0A71305D01097000000E7800C
:10302000E0A61305E01097000000E78020A6130536
:10303000001197000000E78060A51305A00397002A
:103040000000E780A0A41305501097000000E7805F
:10305000E0A31305600397000000E78020A3130599
:10306000801797000000E78060A22244B240130559
:103070009002410117030000670043A141114AC0BB
:103080009306F0092A891306F0098145014526C2F5
:1030900006C622C49304000A97000000E78040A7F8
:1030A0001304000A4A857D1497000000E78080A37E
:1030B00075F8FD14F5F4B2402244924402494101EE
:1030C0008280411122C4AE8632842A8606C69700C9
:1030D0000000E780E0A322852244B24041011703AB
:1030E0000000670023A0011122CC4AC84EC652C47A
:1030F00056C206CE26CAAA892E84328A3689BA8A50
:1031000097000000E780C0A063758902F240624426
:10311000D2444249B249224A924A05618280568588
:1031200097000000E780009C8504E37A9AFE05047E
:10313000E1BFCE84DDBF9307800963ECA70C7971F2
:1031400022D406D626D24AD04ECE52CC56CA5AC81F
:103150005EC6930700092E8463E6B706B284811425
:1031600093F4F40FB68A130675009386F50013994D
:103170004400B7040008AA893A8A9384042E970071
:103180000000E780E098639A0A048149B71B002099
:10319000414BB3073901A69783CA0700214493F72F
:1031A0001A00528599E303A58BD47D141374F40F90
:1031B00097000000E780009393DA1A006DF085090C
:1031C000E39969FDB250225492540259F249624A7D
:1031D000D24A424BB24B45618280CA94130B040120
:1031E000A14B83CA0400014993F71A0089CB528688
:1031F000A2853385290197000000E780C0EC05090E
:1032000093DA1A00E31279FF05048504E31B64FDD9
:1032100055BF8280011122CC26CA4AC84EC652C46C
:1032200056C25AC006CE2A84AE843289B6893A8AFA
:10323000930A8009130B00090346090019EAF240BA
:103240006244D2444249B249224A924A024B056141
:10325000828063F48A00C1040144E3629BFE2285FC
:103260004E87D286A68597000000E78000ED2104F6
:103270000509D9B7797156CA938AF6FF22D426D2A6
:103280004AD04ECE52CC5AC85EC662C466C206D67A
:10329000AA8BAE89328C3A8A13F4FA0F814C014919
:1032A0009304F00F294B63129406B25022549254A7
:1032B0000259F249624AD24A424BB24B224C924CDA
:1032C00045618280B38767037D171377F70FE31B90
:1032D00097FE13953C005E95B357FC02B3F7670366
:1032E00013F6F70F6317090263D55C0395E3528762
:1032F000814613060002CE857D1497000000E7800A
:10330000C0E3850C1374F40F79BF228785476DBF26
:1033100005495287814613060603F1BFB94763ED9D
:10332000A748B7170008938707960A053E951C41E2
:1033300079714ECE06D622D426D24AD052CCB2894A
:103340008287014597000000E78080D3C166371669
:1033500000080547FD161306C6A0A94529452254B5
:10336000B25092540259F249624A45611703000073
:10337000670083EA01452EC697000000E78040D031
:10338000B24541641307F4FF85461306E003054583
:1033900097000000E78060DA3716000805479306BB
:1033A000F4FF1306C6A1A945314597000000E78048
:1033B000A0E63716000805479306F4FF130686A219
:1033C000E945314597000000E78000E53716000821
:1033D00005479306F4FF1306C6A39305A0023145E3
:1033E00097000000E78040E3B9AE01452EC6970084
:1033F0000000E780E0C8B245C1641387F4FF85464A
:103400001306E003054597000000E78000D3014460
:10341000FD14371A0008634D3401C1660547FD16D7
:1034200037160008130646A49305C007314505BFAB
:10343000131944002909A6861306CAA4CA8505479C
:10344000314597000000E78020DD0504268785468A
:103450002286CA851305C00397000000E780C0E1FB
:103460005DBF01452EC697000000E78060C1B245F0
:1034700041641307F4FF85461306E00305459700F2
:103480000000E78080CB3716000805479306F4FF5D
:10349000130646A5A945314597000000E780C0D72F
:1034A0003716000805479306F4FF130646A6E945BC
:1034B0003DB701452EC697000000E78060BCB245CD
:1034C00041641307F4FF85461306E00305459700A2
:1034D0000000E78080C63716000805479306F4FF12
:1034E000130686A545BF01452EC697000000E7805C
:1034F00020B9B24541641307F4FF85461306E00383
:10350000054597000000E78040C3371600080547CF
:103510009306F4FF130646A7A9453145970000001E
:10352000E78080CF3716000805479306F4FF13069F
:1035300046A8B5BF01452EC697000000E78040B4FD
:10354000B24541641307F4FF85461306E0030545C1
:1035500097000000E78060BE371600080547930615
:10356000F4FF130646A9A945314597000000E780FE
:10357000A0CA3716000805479306F4FF1306C6A92C
:10358000E945314597000000E78000C9371600087B
:1035900005479306F4FF130686AA81B501459700F7
:1035A0000000E780E0AD4164371600080547930648
:1035B000F4FF130646A9A9451DB501459700000073
:1035C000E78000AC41643716000805479306F4FF16
:1035D000130646ABCDB7014597000000E78040AA2F
:1035E00041643716000805479306F4FF130606AC3E
:1035F000A945314597000000E78000C23716000852
:1036000005479306F4FF130606AD55B501452EC6D2
:1036100097000000E780C0A6B24541641307F4FF9D
:1036200085461306E003054597000000E780E0B0FB
:103630003716000805479306F4FF1306C6ADA5BF6D
:103640002EC697F0FFFFE780604197F0FFFFE7800D
:10365000C0F3AA84014597000000E78060A20545F9
:1036600097F0FFFFE780C000B24541642A89130745
:10367000F4FF85461306E003054597000000E78048
:10368000C0AB3716000805479306F4FF1306C6AF14
:10369000A945314597000000E78000B84A86130726
:1036A000F4FF9146A9451305400597000000E78007
:1036B000A0BC0D4597F0FFFFE78080FB37160008A0
:1036C0002A8905479306F4FF130686B0E94531457C
:1036D00097000000E78040B41307F4FF91464A8644
:1036E000E9451305400597000000E780E0B837166C
:1036F000000805479306F4FF130606B19305A002E0
:10370000314597000000E78020B126859730000002
:10371000E780C0E62A861307F4FF89469305A002D6
:103720001305400597000000E78000B51307F4FF7C
:103730008546130630049305A00213058006970002
:103740000000E780809F05479306F4FFD1B901454B
:1037500097000000E780C0924164371600080547D3
:103760009306F4FF130686B1B9B501452EC697003E
:103770000000E780E090B24541641307F4FF8546FE
:103780001306E003054597000000E780009B37160D
:10379000000805479306F4FF130646B2A9453145D4
:1037A00097000000E78040A73716000805479306FA
:1037B000F4FF130606B3E5B9828035C6411122C471
:1037C00006C689472A846389F500A1476380F5040A
:1037D000B2402244410182800C4101472946938630
:1037E0000501094597000000E78020900C40C115B5
:1037F0000CC02244B24041677D1785461306E003A2
:103800000945410117030000670023930C4101475C
:10381000294693860501094597000000E780E08C62
:103820000C40C105F1B78280B547638EF50475473A
:1038300085476382E5021307D00289476381E50269
:103840001307D0038D476380E5021307D004914727
:10385000638EE50CFD571307D0056388E50C13074D
:10386000D0066380E50E1307D0076391E50CB547DA
:1038700063EAA70A37170008931725001307C799AB
:10388000BA979C4382878147F9B7094582809D4753
:103890001D477D55636AF70A37870008130707300D
:1038A000BA970385070082809D471D477D55636D4C
:1038B000F7083787000813078730DDB79D471D4796
:1038C0007D556363F7083787000813070731C9BFC1
:1038D0009D471D477D556369F70637870008130725
:1038E00007317DBFAA871D477D55636FF704378772
:1038F0000008130707316DB79D471D477D55636568
:10390000F704378700081307873159BF9D471D47C4
:103910007D55636BF702378700081307073249B7F5
:103920002145828082807D55828095473547E36BB3
:10393000A7FE371700081307479D0A053A95184157
:1039400002879947E5B7054582801548638E0501D2
:10395000A1466385D5008946639CD50410413A850C
:10396000170300006700A3E5011126CA0C43AA84CF
:10397000084122CC06CE3A8436C632C497000000F5
:10398000E780C0EA7D576300E502354718C088C06C
:103990000C406244B2462246F240D244056117030D
:1039A00000006700E397F2406244D24405618280E0
:1039B00082809C41379704001307F73D85079CC11F
:1039C0006353F704411126C2AA84014506C622C4E6
:1039D0002E8497F0FFFFE780A06AC16637160008C3
:1039E0000547FD161306C6A0A94529459700000006
:1039F000E780808223A0040023200400B2402244F8
:103A0000924441018280828003AE050009436342F3
:103A1000C313130101B12322914EB284371600085B
:103A20002324814E2328614D2E84368B130606B441
:103A3000AA86BD450A852326114E2320214F232E19
:103A4000314D232C414D232A514D4689C2893E8A4E
:103A5000BA8A97300000E780A017B7150008938551
:103A600045B41305F10097300000E780A02A9307C2
:103A700080702320F14A2324F14A8327014F084014
:103A800085452324F14C8327414F2320B132232243
:103A9000B132232AF14A8327814F2324B132232ACA
:103AA000B1482320F14C8327C14F232CB148232E4A
:103AB000B1482326F14C9307004D3305F502130757
:103AC000C0038A851306004D2326614B232C514BDE
:103AD0002322414D2328314B232E214B02D0269502
:103AE00002D282D182D3232001262322012623263B
:103AF00001322322013A232E01402322E14A97304A
:103B00000000E78080EC1C408320C14E8324414E9E
:103B100085071CC00324814E0329014E8329C14D12
:103B2000032A814D832A414D032B014D1301014F7F
:103B300082808280832745320327854CED078E07DC
:103B4000AA97DC436350F702B7160008371600083F
:103B5000938686B4130606B4BD453D0517330000B1
:103B6000670003070327C54B63DBE700B7150008B1
:103B7000938585B53D05173300006700A319828042
:103B8000411122C406C626C285472A84639DF50CCE
:103B90000D4597F0FFFFE780A0AD83274432130760
:103BA00000036344F7048E07A297635305000145A1
:103BB00079473345E50203A7C70D3A9523AEA70C15
:103BC00097E0FFFFE78040FD832744328546139747
:103BD00037002297232CA70C6392D70293077070AB
:103BE00063D5A70089472322F43222852244B240BC
:103BF0009244410117030000670003F40327070DF7
:103C0000198D130770706375A70085072322F4329E
:103C10000327443293070003E319F7FC1307440E0C
:103C200093064426814710432107B297E39DE6FEA1
:103C300005472322E43213070003B3C7E7029306C4
:103C4000043A130744411043711710C7E39DE6FE81
:103C50002322F43A832784497547E348F7F8850718
:103C6000232CF44859B7C1E5054597F0FFFFE780DD
:103C700020A0832704326147E349F7F68D078E07BA
:103C8000A297635305000145C8C397E0FFFFE78093
:103C9000A0F003270432930737008E07A29788C34A
:103CA000E147E314F7F4130744029306440E8147F7
:103CB00010432107B297E39DE6FE05472320E43237
:103CC0006147B3C7E702930684321307C439104330
:103CD000711710C7E31DD7FE2326F432832744490A
:103CE0007547E344F7F08507232AF448FDBD89476B
:103CF000E39DF5EE97F0FFFFE7802089832484326F
:103D0000E147E3C497EE9384B4048E049730000037
:103D1000E780C080A294635305000145C8C097E0C6
:103D2000FFFFE78060E7032784329307B7048E071D
:103D3000A29788C3E147E31AF7EA130744269306DC
:103D40004432814710432107B297E31DD7FE054750
:103D50002324E4326147B3C7E70293068441130783
:103D6000C4481043711710C7E39DE6FE232EF440AC
:103D70008327C4497547E34AF7E68507232EF448AD
:103D8000ADB5011122CC26CA4AC84EC606CE2A8439
:103D90002E8997E0FFFFE78020E0AA848149014552
:103DA00063C92901F2406244D2444249B2490561E3
:103DB0008280832744320327444AED078E07A29767
:103DC0009C43B386F44063F3E60089EB22854E867C
:103DD000854597000000E780E0DA05458327043237
:103DE0000327044A8D078E07A2979C43B386F440AD
:103DF00063F3E60089EB22854E868145970000003B
:103E0000E78040D80545832784320327844A938777
:103E1000B7048E07A2979C43B386F44063F3E60091
:103E200089EB22854E86894597000000E78080D582
:103E3000054585091304044DA5B7797126D2C164DF
:103E400022D44ECE52CC5AC85EC606D64AD056CAE6
:103E50002E8B2A84014A930B7003FD14B7190008B6
:103E6000634D6A01B250225492540259F249624A97
:103E7000D24A424BB24B4561828033097A03228693
:103E80000547A6868145050A4A8597F0FFFFE7802A
:103E9000A0388327043226878D468D078E07A29788
:103EA000D043D1454A8597F0FFFFE780E03C930A75
:103EB000E9010547A686138689B6D145568597F050
:103EC000FFFFE78060358327443226878D46ED0764
:103ED0008E07A297D043930580024A8597F0FFFF93
:103EE000E78080390547A686138689B69305800248
:103EF000568597F0FFFFE78020321306F400054750
:103F00009306F07F9305C0034A8597F0FFFFE78093
:103F1000A0301304044DA9B7011126CAB705070044
:103F2000B7440140938575301385048006CE22CCBA
:103F30004AC84EC697E0FFFFE78060ED29C9370405
:103F400000201304840AB7070020184083A7C70A7B
:103F50006304F7088545114597100000E78020AFFE
:103F6000184013850480930717001CC0B707002072
:103F70000A079387C74BBA978C4397E0FFFFE78008
:103F800000E21C4013070020B3E7E7021CC0B7059E
:103F9000050037440140938555301305048097E0B0
:103FA000FFFFE780C0E615C1B714002013040480AA
:103FB000370900209309F00F9384C4D495452285D6
:103FC00097E0FFFFE78020E00DE1F2406244D24439
:103FD0004249B2490561828093057030138504809F
:103FE00097E0FFFFE780E0E05DB7228597E0FFFF05
:103FF000E78060DB1307490A1C43E3C1F9FC1C435B
:104000001375F50F9386170014C3A6972380A70096
:1040100075B7411122C4370400201304840AB7077E
:104020000020184083A7C70A06C626C26308F70403
:10403000B74401409D451385048097E0FFFFE7806A
:1040400080D805C9184013850480930717001CC049
:10405000B70700200A079387C74BBA978C4397E0AE
:10406000FFFFE780C0D31C4013070010B3E7E7024F
:104070001CC0B24022449244410182802244B2409A
:104080009244374501409305703013050580410186
:1040900017E3FFFF6700E3D5011122CC26CA4AC807
:1040A00006CE3709002093040020370400201306B1
:1040B000C90A14428327840A1387160033679702BC
:1040C0006309F702B707002062448A069387C74B4B
:1040D000F240D2444249B69788C318C237450140DE
:1040E0009305703013050580056117E3FFFF670036
:1040F000C3CE2AC697000000E780E0F1324545BFF5
:10410000411122C406C62A840345040009E5B240D1
:10411000224441018280050497000000E78000F8F6
:10412000E5B7411126C2AA841305206006C622C441
:1041300097D0FFFFE78060683714014013050480C3
:10414000930600200D46E14597D0FFFFE780405BD6
:10415000930600400D46930580041305048097D014
:10416000FFFFE780E0591305E0603744014097D036
:10417000FFFFE78080641305048097E0FFFFE7807E
:1041800000ACF165938505201305048097E0FFFFDF
:10419000E78000B581451305048097E0FFFFE780C5
:1041A000E0BA81451305048097E0FFFFE78000BB7C
:1041B00081451305048097E0FFFFE78040BB814500
:1041C0001305048097E0FFFFE78060BE814513057B
:1041D000048097E0FFFFE78040BE1305048097E06E
:1041E000FFFFE780E0B9A1451305048097E0FFFFDA
:1041F000E780A0B991451305048097E0FFFFE780B1
:1042000060B98DC8130504809305503097E0FFFF17
:10421000E780A0BC2244B2409244B746000893868F
:1042200086F105468D4513058003410117E3FFFF25
:104230006700C34EB2402244924441018280411142
:104240001305C07106C697D0FFFFE780005797D0CF
:10425000FFFFE780A0551305B07197D0FFFFE780FF
:10426000C05597D0FFFFE7800044414597D0FFFF3E
:10427000E780A072414597D0FFFFE780E06021CD45
:104280001305003097D0FFFFE780C05D056513057B
:10429000F58097D0FFFFE780405297E0FFFFE7806F
:1042A000208E97E0FFFFE780A08C3D651305354227
:1042B00097E0FFFFE780A08897E0FFFFE780408B53
:1042C000054597E0FFFFE780408FB240410117E3CB
:1042D000FFFF6700E389B24041018280411122C49F
:1042E00006C62A8497E0FFFFE780008B85679387E7
:1042F00007E13375F5029307C0033355F5021C40FF
:1043000063D8A70008C00545B2402244410182801D
:104310000145DDBF1D71A2CC32843716000813069B
:1043200046B7A6CACAC8CEC6D2C4D6C2DAC05EDEF6
:1043300086CEAA892E89368A814B97300000E78085
:1043400020898544B71A0008371B00083385990077
:10435000B305994063C44B036644F640D6444649CE
:10436000B649264A964A064BF25B371600081306F2
:1043700086C4256117330000670083856359700187
:1043800013868AB797300000E780808485048327EE
:1043900084320327C44CA2869387B7048E07A29762
:1043A00083A8470083270432B305994033859900D9
:1043B0008D078E07A29703A8470083274432130670
:1043C000CBB7850BED078E07A297DC433AD00327C6
:1043D000844C3ACE0327444C3ACC0327044C3ACAC7
:1043E0000327C44B3AC80327844B3AC60327444BE0
:1043F0003AC40327044B3AC20327C44A3AC01307FE
:10440000F40097200000E780A07CAA941304044DD8
:1044100035BF79712E86B715000822D49385C5B6AD
:104420002A840A8506D697300000E78000828A85B4
:10443000228597300000E780209005C12A840A85F4
:1044400097300000E780208E229597200000E780BB
:104450004048B2502254456182800145DDBF1301BE
:1044600001DA232A9124AA840145232E1124232C26
:10447000812423282125232631252E892324412503
:10448000232251252320612597F0FFFFE78040BFBD
:10449000C1663716000805471306C6C4A945FD16B0
:1044A000294597F0FFFFE78020D737070020371412
:1044B00000208147BA891306C4D4A9458326470A38
:1044C00063D2D704B306F60003C50600639EA52A8F
:1044D000B7150008938505C61305C4D423800600CC
:1044E00097300000E780808129E197F0FFFFE780A7
:1044F00020B983250900268597000000E7802094D5
:1045000023A2090A8320C125032481258324412570
:10451000032901258329C124032A8124832A4124D4
:10452000032B0124130101268280B715000893850F
:1045300005C71305C4D497200000E780207C31E133
:1045400097F0FFFFE780C0B3C16637160008054744
:10455000FD16130606C8A945294597F0FFFFE78019
:10456000A0CB8326090088002686930500209700AB
:104570000000E78060DA880097000000E78080B8DC
:1045800041B7B7150008938545C91305C4D49720D2
:104590000000E780607A11C9B715000810189385EC
:1045A000C5C997200000E780206FB71500089385E4
:1045B000C5CA081897200000E780407415E197F0FD
:1045C000FFFFE780E0AB371600080547FD461306FE
:1045D00086CBA945294597F0FFFFE780E0C30DB7DB
:1045E000B7150008938585CC081897200000E78050
:1045F000E07009ED97F0FFFFE78080A8C1663716ED
:10460000000805478116130646CDE1B7B715000827
:10461000938545CE081897200000E780206E63142C
:104620000512B7150008938505CF1305C4D497204C
:104630000000E780607011C9B715000890009385ED
:10464000C5CF97200000E7802065B7150008938547
:10465000C5D01305C4D497000000E780C0DBB715B0
:1046600000082AD6938585D11305C4D4970000008D
:10467000E78060DAB71500082AD4938545D2130580
:10468000C4D497000000E78000D9B7150008AA8AB3
:10469000938505D31305C4D497000000E780A0D705
:1046A000B71500082AD29385C5D31305C4D4970043
:1046B0000000E78040D6B71500082AD0938545D47E
:1046C0001305C4D497000000E780E0D4B7150008B4
:1046D0002A8B9385C5D41305C4D497000000E780C6
:1046E00080D3B71500082ACE938585D51305C4D489
:1046F00097000000E78020D2B71500082A8A93852A
:1047000005D61305C4D497000000E780C0D0125727
:10471000B25682582258F24726862AC6CA85880091
:104720005AC456C252C097F0FFFFE780202E0145C1
:1047300097F0FFFFE780C094371600080547FD4655
:10474000130686D679B5014597F0FFFFE7804093C1
:10475000C1643716000805479386F4FF1306C6D7D1
:10476000A945294597F0FFFFE78000AB294505479C
:104770009386F4FF1306C4D4DD4597F0FFFFE7806E
:10478000A0A91305C4D4CDBB85070DBB0000000054
:104790000000000000000000000000000000000019
:1047A0000000000000000000000000000000000009
:1047B00000000000000000000000000000000000F9
:1047C0005D7106C012C216C41AC61EC82ACA2ECCF3
:1047D00032CE36D03AD23ED442D646D872DA76DCE1
:1047E0007ADEFEC0F322103496C0F322003096C267
:1047F000F322407C96C4732520348A8597E0FFFF1E
:10480000E780009C86427390123496427390023087
:10481000A6427390427C82401242A2423243C2437B
:104820005245E245724682561257A2573258C25834
:10483000525EE25E725F864F61617300203000005D
:10484000000000005D7106C012C216C41AC61EC860
:104850002ACA2ECC32CE36D03AD23ED442D646D810
:1048600072DA76DC7ADEFEC073D0E87E7350F97EB1
:1048700073D0B97EF390D07E73700430B6427390DB
:10488000427CA64273901234964273902234824046
:104890001242A2423243C2435245E2457246825618
:1048A0001257A2573258C258525EE25E725F864F6C
:1048B000616173002030AA82B68E214363C46E000A
:1048C0009102E11E8A0E3D433313D3011343F3FFDC
:1048D000AE83B3E3C300B393D30103AE0200337ED0
:1048E0006E00336E7E0023A0C2018280F18D2D8E7A
:1048F0004206D18D0CC982804CC982804CC5828011
:104900000C458280B712024003A3C2013363A300A7
:1049100023AE62008280B712024003A38201336398
:10492000A30023AC62008280711106C0414597004C
:104930000000E78060FDB71200401303B00623A417
:1049400062021303703E23A6620223A802000543FD
:1049500023A06200824011018280B712004003A5AB
:10496000020119C123A802008280711106C02145ED
:1049700097000000E78060FA37150140130505C075
:1049800081450D4681460D4797000000E780E0F223
:104990008506E39BE6FE82401101828097B2FF17F5
:1049A00093824266038502008280711106C037152A
:1049B0000140130505C097B2FF179382A264838557
:1049C0000200FD1563D305009D452380B2001D46FE
:1049D00097000000E780C0F10385020082401101CA
:1049E0008280711106C0214597000000E780E0F247
:1049F00037150140130505C081450D46A1464147C5
:104A000097000000E78060EB8506E39BE6FE8240AE
:104A100011018280711106C097B2FF179382C25EA6
:104A200083A20200AA9237150140130505C083C571
:104A30000200A20537060100130606F097000000E9
:104A4000E78000EB82401101828097B2FF179382CA
:104A5000A25B83A20200AA922380B200828071111D
:104A600006C0114597000000E78020EB3715014094
:104A7000130505808145114695462547970000009E
:104A8000E780A0E38506E39BE6FE82401101828079
:104A9000711106C07D5E97BEFF17938EBE5703A3AC
:104AA0000E009303F3FF23A07E006394030423A06E
:104AB0006E00371501401305058097000000E78060
:104AC00060E49581BD8995C585813335B000330398
:104AD000A00085813335B0002A9385813335B0003D
:104AE0002A9305450A05336EA3001303002023A073
:104AF0006E00728582401101828097B2FF17938207
:104B0000B25123900200828097B2FF179382D25055
:104B100003D30200A5430503137EF30063D8C30348
:104B20001903135E4300137EFE0063D1C303130316
:104B30000306135E8300137EFE0063D9C3011303D3
:104B40000360135EC30063D3C3010143239062007B
:104B5000828097B2FF179382324C03D50200828085
:104B600097B2FF179382724B03A302007D1323A019
:104B70006200635003021303F00823A0620097B29F
:104B8000FF179382624803A302001343130023A07C
:104B900062008280797113D8450126D24ECE52CC64
:104BA0005AC85EC69394C50006D622D44AD056CAC7
:104BB0001378F87F2A8BB28B368AB18093D9F501AE
:104BC000630408089307F07F630EF80C935AD5012D
:104BD0008E04B3E49A00B70A8000B3EA54011314B8
:104BE0003500130918C0014B13554A019314CA002C
:104BF0001378F57FB180135AFA016308080C930704
:104C0000F07F6301F8121395340093D7DB015D8DBB
:104C1000B7048000C98C139F3B00130518C081475F
:104C200013172B005D8F7D17B94633C64901330832
:104C3000A94063EBE61097C6FFFF938666150A0747
:104C40003697184336970287B3EAA40063860A06AC
:104C50008DCC268597200000E780E0C2930755FFA2
:104C60007147634BF702F54A130485FFB38AFA4094
:104C7000B3948400B35A5B01B3EA9A0033148B00F7
:104C80001308D0C03309A840B9BF97200000E780BF
:104C900080BF13050502D9B7930485FDB31A9B00A5
:104CA0000144F9BFB3EAA400638C0A002A84A68AEF
:104CB0001309F07F0D4B0DBF01440149054B2DB782
:104CC00001441309F07F094B05B733EF7401630406
:104CD0000F069DC8268597200000E780C0BA93077D
:104CE00055FF7147634AF7027547130F85FF1D8F04
:104CF000B394E40133D7EB00D98C339FEB01130657
:104D0000D0C03305A64021BF5E8597200000E78014
:104D100080B713050502E1B7930485FDB3949B00AA
:104D2000014FF1BF33EF7401630B0F005E8F13056A
:104D3000F07F8D47F5B5814401458547D5B5814460
:104D40001305F07F8947E9BD63E6540163939A2A0E
:104D50006361E42B9396FA01135714009317F4013F
:104D600093DA1A0033E4E6001395840093548F011C
:104D7000458D135E0501B3D8CA0313130501135300
:104D800003011357040193158F00B3F4CA03C68FB0
:104D9000B3061303939A040133675701637CD7006A
:104DA0002A97938FF8FF6367A7006375D700938FE7
:104DB000E8FF2A97158FB35EC7034204418033771B
:104DC000C703F686B308D3034207418F637C1701FC
:104DD0002A979386FEFF6367A70063751701938682
:104DE000EEFF2A97C20FB3EFDF00C166330417410D
:104DF0009388F6FF13DF0F0133F71F0193DE0501E0
:104E0000B3F81501B3031703B3041F033387EE028E
:104E1000B302DF03330F970013D703017A9763734D
:104E20009700B692135F0701169FC162FD12B37619
:104E30005700C206B3F353009E966367E401FE84F5
:104E4000631EE40363FCD702AE9733B7B7002A971B
:104E50003A949384FFFF636685006311850263EFD4
:104E6000B7006366E401631B8F0063F9D700AE9758
:104E700033B7B7002A979384EFFF3A94B386D740AD
:104E80003304E441B3B7D7001D8C7D5F6305850E05
:104E9000335FC40313D706013374C403B307E303BA
:104EA0004204598C7A87637CF4002A941307FFFF2D
:104EB0006367A4006375F4001307EFFF2A941D8C49
:104EC000335FC403C206C1823374C403FA87330359
:104ED000E3034204558C637C64002A949307FFFF2C
:104EE0006367A400637564009307EFFF2A94420789
:104EF0005D8F93170701C183330464401353070187
:104F0000338E1703B308130333836E02B38EFE028E
:104F100093570E01C69EF69763F41701C166369348
:104F200093D807019A9841637D13B3F66700C206D0
:104F3000337E6E00F29663661401631E14193A8F75
:104F40009DCA2A94130FF7FF6361A40263661401DC
:104F50006312141963FDD50093971500B3B5B7001C
:104F60002E95130FE7FF2A94BE8563141401638402
:104F7000B600136F1F001307F83F6357E00A9377DB
:104F80007F0081CF9377FF0091466388D700930617
:104F90004F0033BFE601FA94368F9397740063D8BD
:104FA0000700B70700FFFD17FD8C130708409307A4
:104FB000E07F63C8E710135F3F009397D401B3E726
:104FC000E70113D5340032051377F77F5207B2504B
:104FD00022543181598D7E063367C500925402599F
:104FE000F249624AD24A424BB24B3E85BA8545618C
:104FF00082807D1881478DBB4E86D684228FDA87CA
:1050000009476380E70C0D476386E70A0547E39489
:10501000E7F60145814785A85286DDB7B704080049
:10502000014F01468D47E9BF0545198D9307800360
:10503000E3C1A7FEFD4763CAA7041308E841B3977D
:1050400004013357AF0033180F01D98F33380001F3
:10505000B3E7070133D5A40013F7770001CF13F7A7
:10506000F70091466308D70013874700B337F7006E
:105070003E95BA8713178500634A07041317D501B5
:105080008D83D98F0D8101473DBF8557998F930639
:105090000002B3D7F40001476306D5001308E843C4
:1050A00033970401336FE701333FE001B3E7E701D2
:1050B00001455DB73705080081471307F07F0146BA
:1050C00019B7014581471307F07FF5BD01458147B9
:1050D0000547D5BD7A873A8F69BD13D84501B70713
:1050E0001000FD1713D746011378F87F930EF07F59
:1050F000B3F8B7002A83F58FFD81328E1377F77FDF
:10510000FD826318D801B3EEA80063850E068945B9
:105110000DA86316D701B3EEC700E39A0EFE631D18
:10512000080433E5A8001335150019E35D8E15CE8C
:1051300011E5638AD50085C9FD5521A0FD5591C2B1
:10514000B6852E858280E34807FF6354E800F5F9B1
:10515000E5B7E3E217FF639CF800E36E6EFCE368DB
:10516000C3FF8145F9BF8545E9BF65FDE9B7E3E0C8
:10517000F8FEC5BFE30107FB4DFF014545BF79714F
:105180004ECE93D9450122D426D252CC56CA5AC803
:105190009394C50006D64AD05EC693F9F97F2A8457
:1051A000328BB68AB18013DAF5016381090893075F
:1051B000F07F6389F90C9357D5018E04DD8CB70716
:1051C0008000DD8C13193500938919C0814B13D5EC
:1051D0004A011394CA001375F57F318093DAFA01FE
:1051E00061C59307F07F630DF5109357DB010E0443
:1051F0005D8CB70780005D8C130515C093173B00CD
:10520000014793962B00D98E4E95FD16B94533462E
:105210005A011308150063E6D51097C5FFFF938563
:10522000E5BA8A06AE969442AE96828633E9A40029
:10523000630309069DC8268597100000E780A064D7
:10524000130755FFF14763C9E702F547130985FFC7
:10525000998FB3942401B357F400DD8C33192401E2
:105260009309D0C0B389A94095B797100000E78093
:10527000806113050502E9B7930485FDB31494001A
:105280000149F9BF33E9A400630B09002A89930996
:10529000F07F8D4B2DBF81448149854B0DBF8144EB
:1052A0009309F07F894B25B7B3676401B5C31DC867
:1052B000228597100000E780005D930655FFF147B7
:1052C00063CAD7027547930785FF158F3314F4001F
:1052D0003357EB00598CB317FB001307D0C03305CD
:1052E000A74039BF5A8597100000E780C0591305C1
:1052F0000502E1B7130485FD33148B008147F1BF2C
:10530000B367640191CBDA871305F07F0D47D5BDF4
:10531000014401450547F5B501441305F07F0947F0
:10532000CDB5416F930EFFFF1357090193D80701C5
:105330003379D901B3F7D701B3852803B38627039F
:10534000B30FF7023383F50193D506019A95330E17
:10535000170363F3F5017A9E93D30501B3F5D501E5
:10536000B3F6D601135F0401B372D401C205B6953A
:10537000B30E5702B386220333092F033303D90137
:1053800013D906011A993307E7036374D9014163FE
:105390001A97935E0901C169BA9E1387F9FF3379A1
:1053A000E900F98E13D404014209F98C3699338748
:1053B0009702CA933303F402B3869802B387880234
:1053C000B388660093560701C69663F36600CE97CE
:1053D00093D80601C169B38FF8009387F9FFFD8E5A
:1053E0007D8FB3889202C206BA96B3075402B30403
:1053F0009F0233038F02BE9413D40801A29463F377
:10540000F4004E93C167FD1733F7F400B3F8F800CA
:1054100042071E9E469733392E01769733042701A3
:10542000369EB336DE00B308F401338FD80033372D
:10543000D70133342401598CC180B3B8F801B33695
:10544000DF002694B3E6D80036941A9493577F0170
:1054500026045D8C93179E00CD8FB337F000135E4A
:105460007E0113179F00B3E7C701D98F131774008C
:105470006358070A13D71700858BD98F1317F401C8
:10548000D98F05809306F83F635ED00813F7770045
:1054900001CF13F7F70091456308B7001387470062
:1054A000B337F7003E94BA871317740063580700A8
:1054B000370700FF7D17798C930608401307E07FBC
:1054C000634CD70E13D737009317D401D98F0D80B3
:1054D000320413F7F67F52073180598C7E0633670A
:1054E000C400B250225492540259F249624AD24A3C
:1054F000424BB24B3E85BA854561828052862684F6
:10550000CA875E8789466309D70A8D46630FD70825
:105510008546E319D7F6014481479DA05686DDB73D
:105520002A888DB78545958D13078003E345B7FE1F
:105530007D476349B7041308E84133170401B3D624
:10554000B700B3970701558FB337F000D98F3354A5
:10555000B40013F7770001CF13F7F7009146630803
:10556000D70013874700B337F7003E94BA87131765
:105570008400634807041317D4018D83D98F0D80ED
:105580008146B9B70557158F130500023357E4005C
:1055900081466386A5001308E843B3160401D58F3E
:1055A000B337F000D98F01446DB737040800814745
:1055B0009306F07F014629BF014481479306F07F9F
:1055C00001BF01448147854621B7370810007D1887
:1055D000B378B8008E089357D501011113D7450150
:1055E0003378D800B3E7170193D8460126CA4AC8D2
:1055F0009374F77F13D9F5011357D6010E0806CE21
:1056000022CC4EC693F8F87F9305F07F0E05FD82FD
:10561000336707010E066395B800B365C70099E1CB
:1056200093C616003388144163932623635C000FEE
:1056300063950804B366C7008DC21388F4FF631A2C
:1056400008002A963335A600BA97AA973285854472
:1056500095A89306F07F6399D402137775006306CB
:10566000074E1377F50091466301D74E9306450028
:1056700033B5A600AA973685C9A99306F07FE38EB5
:10568000D4FCB7068000558F9306800363C80609D3
:10569000FD4663C0060793050002B3850541B316B6
:1056A000B700B35806013316B600B3E61601333619
:1056B000C000558E335707012A963E97B337A60090
:1056C000BA97328513978700E35907F885041307C3
:1056D000F07F638AE446B70680FFFD16FD8E935582
:1056E000150005899397F6014D8D5D8D93D71600B2
:1056F000ADB7930608FE93080002B356D700814564
:10570000630818019305000433880541B3150701A8
:105710004D8E3336C000558E014779BF598E3336D2
:10572000C000DDBF630B080AB38598408DE4B3E683
:10573000A700638106409386F5FF99E63295BA97F4
:105740003336C500B29721B71308F07F639D05017A
:10575000BA873285E5AC9306F07FE38BD8FEB706B7
:105760008000D58FAE869305800363C4D506FD45C2
:1057700063CBD502130800023308D8403353D50059
:10578000B395070133150501B3E565003335A00076
:105790004D8DB3D6D7003295B387E6003336C500BA
:1057A000B297C68405B7938506FE13030002B3D5EE
:1057B000B70001486388660013080004B306D840A8
:1057C0003398D7003365A8003335A0004D8D81464E
:1057D000D9B75D8D3335A000DDBF9386140093F5F6
:1057E000E67FA9E5B3E6A7009DE463890634B366C6
:1057F000C700E38406E62A96BA973335A600AA972F
:10580000139787003285E35A07E4370780FF7D1737
:10581000F98F854499B58DDE598E630906220149B9
:10582000B707400001459304F07F05A69305F07F7C
:105830006389B6302A963E97B337A6003E97131574
:10584000F7010582518D93571700B68439B563551A
:10585000000D63920808B366C700E38006E0138872
:10586000F4FF631B08003306C5403335C500998F2C
:10587000898F32858544B1A09306F07FE38FD4DC15
:105880009306800363C60609FD4663CE06059305AD
:105890000002B3850541B316B700B35806013316AD
:1058A000B600B3E616013336C000558E33570701F4
:1058B0003306C5403387E740B337C500B307F74029
:1058C000328513978700E35A07D8370480007D1488
:1058D0007D8CAA896DA29306F07FE380D4D8B706A9
:1058E0008000558F71BF930608FE93080002B356DF
:1058F000D7008145630818019305000433880541EA
:10590000B31507014D8E3336C000558E01474DB794
:10591000598E3336C000DDBF6304080C33889840CD
:1059200095E8B3E5A700638105289305F8FF91E9A1
:105930003305A640B307F7403336A600918F36896A
:1059400015BF1303F07F631F6800BA873285930485
:10595000F07F7DA09305F07FE389B8FEB705800056
:10596000CD8FC285130880036348B8067D48634E17
:10597000B802130300023303B340335EB50033981B
:105980006700331565003368C8013335A0003365FF
:10599000A800B3D5B7003305A640B307B7403336E8
:1059A000A600918FC684368929BF138805FE130E81
:1059B000000233D8070101436388C50113030004C3
:1059C000B305B3403393B7003365A3003335A0006C
:1059D0003365A8008145C1B75D8D3335A000DDBFBB
:1059E0009385140093F5E57FBDE533E8A700B36523
:1059F000C700B1E463180800638C051ABA873285C2
:105A00003689A1B9E38B05C43308C540B385E740A7
:105A1000B3380501B385154113948500635A04001A
:105A20003305A640B307F7403336A600918FC9BFB0
:105A30003365B80063020518AE87428539B9631A29
:105A40000800638D0516BA87328536899304F07F86
:105A500029B1EDDDE9B3B309C540B3353501338470
:105A6000E7400D8C9315840063D90506B309A64061
:105A7000B307F740333636013384C740368925C42F
:105A8000228597100000E78000E0130785FFFD479F
:105A900063C3E70693070002998F3314E400B3D77A
:105AA000F9005D8C3395E90063409708058F9307F3
:105AB0001700FD4663C7F604130700021D8F335617
:105AC000F500B316E4003315E500D18E3335A000A0
:105AD000558DB357F400814449B633E5890045F14B
:105AE00081478144C1A84E8597100000E780A0D966
:105AF0001305050259BF130485FD33948900014540
