:020000040800F2
:10000000B1AA010000000000000000000000000094
:100010000000000000000000000000003C17000885
:1000200000000000000000000000000000000000D0
:1000300000000000000000000000000000000000C0
:1000400000000000000000000000000000000000B0
:1000500000000000000000000000000000000000A0
:100060000000000000000000000000000000000090
:100070000000000000000000000000000000000080
:100080000000000000000000000000000000000070
:100090000000000000000000000000000000000060
:1000A0000000000000000000000000000000000050
:1000B0000000000000000000000000000000000040
:1000C0000000000000000000000000000000000030
:1000D0000000000000000000000000000000000020
:1000E0009017000800000000000000000000000061
:1000F0000000000000000000000000000000000000
:1001000000000000000000000000000000000000EF
:1001100000000000E61700080000000000000000DA
:1001200000000000000000000000000000000000CF
:1001300000000000000000000000000000000000BF
:1001400000000000000000000000000000000000AF
:100150000000000000000000000000007370043088
:10016000170500001305C5FF8545F605637BB5003F
:1001700089816378B500170500001305C5002E9529
:1001800002859302002073A0027D970200009382F3
:1001900062E773907230972200009382E24E739070
:1001A000C27E73E0C07E972200009382A2457390C6
:1001B0005230970100189381E16C178100181301E8
:1001C00061E4174500001305652397050018938522
:1001D00065E3170600181306E6EB63FAC5008322F1
:1001E000050023A0550011059105E3EAC5FE17059A
:1001F0000018130525EA970500189385A534637741
:10020000B500232005001105E36DB5FE73F0023241
:10021000173500001305254997300000E78040445A
:1002200097300000E780A04B97100000E780603A0D
:100230000145814597100000E780008717330000D3
:100240006700034301A073E00232828073F0023240
:0402500082800000A8
:100280000A50726F6772616D2068617320657869CA
:10029000746564207769746820636F64653A000050
:1002A000307800006E6D690A0000000074726170A1
:1002B0000A00000000000000000000000000000034
:1002C00000000000000000080808080808080000F6
:1002D0001818000000486C24120000000000000004
:1002E000000000000000002424247F1212127F125C
:1002F000121200000000081C2A2A0A0C1828282ABA
:100300002A1C080800000022251515152A585454E7
:10031000542200000000000C1212120A7625291146
:10032000916E0000000606040300000000000000BB
:1003300000000000004020101008080808080810FD
:1003400010204000000204080810101010101008BF
:10035000080402000000000008086B1C1C6B080861
:100360000000000000000000080808087F080808D6
:100370000800000000000000000000000000000075
:10038000060604030000000000000000FE0000005C
:10039000000000000000000000000000000000005D
:1003A00006060000000080404020201010080804CD
:1003B000040202000000001824424242424242422B
:1003C00024180000000000080E08080808080808A3
:1003D000083E00000000003C424242202010080479
:1003E000427E00000000003C424220182040404273
:1003F000221C0000000000203028242422227E201D
:10040000207800000000007E0202021A26404042CE
:10041000221C0000000000382402021A2642424238
:10042000241800000000007E22221010080808088E
:10043000080800000000003C4242422418244242C6
:10044000423C0000000000182442424264584040F0
:10045000241C00000000000000001818000000002C
:100460001818000000000000000000080000000054
:1004700000080804000000402010080402040810CE
:10048000204000000000000000007F0000007F000E
:1004900000000000000000020408102040201008A6
:1004A000040200000000003C4242464020101000C0
:1004B000181800000000001C225A555555552D42B1
:1004C000221C00000000000808181414243C2242DA
:1004D00042E700000000001F2222221E2242424268
:1004E000221F00000000007C424201010101014284
:1004F000221C00000000001F2242424242424242AF
:10050000221F00000000003F4212121E121202427F
:10051000423F00000000003F4212121E121202026F
:10052000020700000000003C22220101017121228B
:10053000221C0000000000E7424242427E4242424A
:1005400042E700000000003E080808080808080804
:10055000083E00000000007C101010101010101059
:100560001010110F0000007722120A0E0A12122238
:1005700022770000000000070202020202020202CB
:10058000427F000000000077363636362A2A2A2AB3
:100590002A6B0000000000E346464A4A525252626B
:1005A000624700000000001C22414141414141419D
:1005B000221C00000000003F424242423E02020272
:1005C000020700000000001C2241414141414D53FF
:1005D000321C60000000003F4242423E12122222C2
:1005E00042C700000000007C424202041820404242
:1005F000423E00000000007F49080808080808087B
:10060000081C0000000000E74242424242424242CF
:10061000423C0000000000E7424222242414141847
:10062000080800000000006B494949495555362229
:1006300022220000000000E7422424181818242475
:1006400042E700000000007722221414080808087E
:10065000081C00000000007E212010100804044245
:10066000423F000000780808080808080808080841
:10067000080878000000020204040808081010208E
:1006800020204040001E10101010101010101010EC
:1006900010101E00003844000000000000000000A0
:1006A000000000000000000000000000000000004A
:1006B000000000FF0006080000000000000000002D
:1006C00000000000000000000000003C42784442AE
:1006D00042FC0000000000030202021A26424242CD
:1006E000261A000000000000000000384402020248
:1006F00044380000000000604040407844424242DC
:1007000064D80000000000000000003C427E0202AD
:10071000423C0000000000F08808087E0808080835
:10072000083E0000000000000000007C22221C02A5
:100730003C42423C000000030202023A464242426E
:1007400042E700000000000C0C00000E080808083A
:10075000083E00000000003030000038202020203B
:100760002020221E0000000302020272120A16124A
:10077000227700000000000E080808080808080892
:10078000083E0000000000000000007F929292925C
:1007900092B70000000000000000003B46424242C9
:1007A00042E70000000000000000003C42424242DC
:1007B000423C0000000000000000001B26424242B4
:1007C000221E02070000000000000078444242425E
:1007D000447840E000000000000000774C0404046E
:1007E000041F0000000000000000007C42023C40AA
:1007F000423E0000000000000008083E080808080B
:100800000830000000000000000000634242424245
:1008100062DC000000000000000000E74224241415
:100820000808000000000000000000EB4949555591
:100830002222000000000000000000762418181892
:10084000246E000000000000000000E74224241491
:1008500018080807000000000000007E22100808A9
:10086000447E000000C020202020201020202020D6
:100870002020C000101010101010101010101010B8
:1008800010101010000608080808081008080808CA
:1008900008080600AAAA5555AAAA5555AAAA555548
:1008A000AAAA5555000000040A0E0A0A609060408A
:1008B0009060000000000000000000000040AF4019
:1008C0004775726B61000000250000004E4F2053F9
:1008D00055434820504C414E5400000030303A30CF
:1008E000303A3030000000004F4B0000257300000C
:1008F00018260000682500006E250000682500000D
:100900000A260000682500006E2500001826000059
:10091000182600000A2600006E2500004E25000063
:100920004E2500004E250000722500001E2A000002
:100930001E2A0000362A0000182A0000182A00008B
:10094000C42A0000362A0000182A0000C42A000029
:10095000182A0000362A0000162A0000162A000075
:10096000162A0000C42A0000000102020303030348
:10097000040404040404040405050505050505052F
:10098000050505050505050506060606060606060F
:1009900006060606060606060606060606060606F7
:1009A00006060606060606060707070707070707DF
:1009B00007070707070707070707070707070707C7
:1009C00007070707070707070707070707070707B7
:1009D00007070707070707070707070707070707A7
:1009E000070707070707070708080808080808088F
:1009F0000808080808080808080808080808080877
:100A00000808080808080808080808080808080866
:100A10000808080808080808080808080808080856
:100A20000808080808080808080808080808080846
:100A30000808080808080808080808080808080836
:100A40000808080808080808080808080808080826
:100A50000808080808080808080808080808080816
:100A60000808080808080808232D302B200000007B
:100A7000686C4C006566674546470000303132338C
:100A8000343536373839414243444546000000008A
:100A900030313233343536373839616263646566F4
:100AA000000000007D73130101840565232E117A77
:100AB000232C817A232A917A2328217B2326317BB8
:100AC0002324417B2322517B9307057A1A91FD75DC
:100AD0008A973389B7009307057A138405898A9723
:100AE000232609883E94F1473ECCCD473ECADD47D8
:100AF0003EC8930760043EC6D1473EC41305057A3D
:100B0000930720033EC20A959307A0059385C588E5
:100B1000B7190008AA95D148130860041307C00349
:100B20009306807022861385098C3EC093078070DF
:100B300097200000E780C08A97200000E78000C36C
:100B400097200000E780A0C697200000E780A0CD96
:100B500097200000E780409F014597000000E78054
:100B6000206B97000000E780003D014597100000D2
:100B7000E78000A9054597100000E78080FF9710E7
:100B80000000E78060010147930600051306000A94
:100B90008145014597100000E78080488144014A63
:100BA000930A803E850497200000E78040BF7DD9EE
:100BB000050A97200000E78080C397200000E780A7
:100BC000A0C9E3115AFF8325C9881386098C2285A1
:100BD00097100000E780206893D584400145972056
:100BE0000000E780C0CAA685054597200000E78081
:100BF00000CA814445BF4111B727014006C693870B
:100C00000740630BF500B737014093870780630304
:100C1000F502B24041018280130590309700000038
:100C2000E780E03E13059030B24041011703000019
:100C30006700633F1305A03097000000E780203D68
:100C40001305A030D5B7B727014003A74740B70623
:100C5000F1FFFD16758F23A2E74003A74740598D8A
:100C600023A2A740828093F7051013F705408989D6
:100C70000DC289C75C4193E707105CC109C75C419D
:100C800093E707405CC189C51C4593E727001CC555
:100C9000828089C75C4193F7F7EF5CC109C75C416B
:100CA00093F7F7BF5CC1EDD51C45F59BCDB71C454F
:100CB00099C5056713070780D98F1CC582807D778A
:100CC0001307F77FF98FD5BF1C45858B89E71C4536
:100CD00093E717001CC582801C451307850093E726
:100CE00087001CC51C43A18BF5FF1C4593E74700FB
:100CF0001CC51C43918BF5FF828037270140832759
:100D00008740B7068000D58F2324F740828085472F
:100D10006386F50089476382F50282805C55370758
:100D200010FF7D17F98F5CD55C557D16520637078D
:100D3000F000798E5D8E50D582801C5D3707D0FF24
:100D40007D17F98F1CDD1C5D7D16520637073000BC
:100D5000798E5D8E10DD828015476363B704B3859D
:100D6000E50203284503FD47B397B70093C7F7FF94
:100D7000B3F70701B315B600DD8D4CD9A54763E97C
:100D8000C7068D473306F6020C491D473317C700C7
:100D90001347F7FF6D8F3396C600598E10C98280B6
:100DA000AD4763E3B702E915B385E5020328050300
:100DB000FD47B397B70093C7F7FFB3F70701B31524
:100DC000B600DD8D0CD95DBFBD47E3E9B7FAD1159B
:100DD000B385E5020328C502FD47B397B70093C763
:100DE000F7FFB3F70701B315B600DD8D4CD579B722
:100DF000C54763E1C7028D4759163306F6025845C9
:100E00009D47B397C70093C7F7FFF98F3396C60086
:100E1000D18F5CC582801C5D7D4703288503D1830B
:100E20008D8BB385B740ED57B385F502A547BD055A
:100E30003317B7001347F7FF33770701B315B60031
:100E4000D98D0CDD63E1C7020D473306E6021C496C
:100E50001D473317C7001347F7FF7D8F3396C60032
:100E6000598E10C98280C54763E1C7028D47591664
:100E70003306F60258459D47B397C70093C7F7FF5F
:100E8000F98F3396C600D18F5CC582808547638613
:100E9000F5008947638DF50082801445B705F2FFA0
:100EA000FD15ED8E14C51845518F18C58280184563
:100EB000E576FD16758F18C51C45D18F1CC582803F
:100EC00093F71500898909CE91C71C453707100093
:100ED000D98F1CC589C51C452167D98F1CC5828047
:100EE00099C71C453707F0FF7D17F98F1CC5E5D959
:100EF0001C4561777D17F98FD5B793F7150091C71A
:100F00001C4537074000D98F1CC5898991C51C45F0
:100F100037072000D98F1CC58280411106C6970073
:100F20000000E7800012B240410117030000670093
:100F30002312F3670430828093F7050193F8F500DC
:100F400099C3B3E8C8008147054EBD4E130F800218
:100F5000930F800421433316FE00758E1DC2139734
:100F60002700832205003398EE001348F8FF3378FA
:100F700058003397E800336707016399E50550C9C6
:100F800018C18507E39967FC054EBD4E130F80021B
:100F9000930F800441433316FE00758E05C61397E8
:100FA00027000117832245003398EE001348F8FF0D
:100FB000337858003397E80033670701639CE501F5
:100FC00050C958C18507E39867FC8280E39AF5FB16
:100FD00010C97DB7E397F5FF10C9E5B70CC982804A
:100FE0004CC98280377700401C4393E707101CC32D
:100FF0008280B7170240135765003E971443854718
:10100000B397A700D58F1CC38280B7170240135730
:1010100065003E9714438547B397A700D58F1CC33F
:101020008280B7170240135765003E9714438547E7
:10103000B397A70093C7F7FFF58F1CC382803717BC
:1010400002401C53C166D58F1CD38280B716024064
:101050009C5241777D17F98F9CD28280B71702404E
:10106000DC433747FFEF7D17F98F1547630EE50027
:101070006369A7000D476370A702371702405CC37E
:1010800082801D47E31BE5FE3A053177798D5D8D42
:10109000B707001011A03A05C98FC5B7371702402E
:1010A0001C5393F7F7CF5D8D08D3828013576500EB
:1010B000B71702403E971C4333D5A70005898280AD
:1010C000411106C622C426C2E9476307F50E63EF45
:1010D000A700C1476304F504E1476302F50C59C159
:1010E0000145B24022449244410182809307058029
:1010F000A1CB8567138707906302E508F147E311E9
:10110000F5FE370410007D14754597000000E78058
:1011100020FA19E17D146DF8754521A841647D140C
:10112000454597000000E780A0F819E17D146DF8AF
:10113000454597000000E780A0F73335A00055B77C
:101140003704000485647D149384148026859700F9
:101150000000E780E0F519E17D146DF805651305E1
:101160001580C1BF13040050054597000000E780BB
:1011700020F419E17D146DF8054565BF37041000B2
:101180007D1493841790268597000000E78040F235
:1011900019E17D146DF805651305159059BF3704E5
:1011A00010007D14654597000000E78060F019E1AC
:1011B0007D146DF86545B5BF370410007D146D458D
:1011C00097000000E780C0EE19E17D146DF86D45D1
:1011D0008DB7B7170240135765003E9714438547F4
:1011E000B397A700D58F1CC3828037370040832771
:1011F000478093E707012322F7808280373700403A
:1012000083274780BD9B2322F7808280011106CE71
:101210002AC697000000E78080FD3245B7370040BE
:10122000F24013570501420523ACE780418123AE0C
:10123000A780056117030000670083FC011106CE3B
:101240002AC697000000E78080FA32453737004011
:10125000F24093570501BD8B42052324F78041815D
:101260002326A780056117030000670063F937375D
:1012700000408327478093F70702E5DF82803737F6
:10128000004083274780DD9B2322F7808327478008
:10129000A18BEDDF8280B737004003A7478013455D
:1012A000F5FF798D23A2A7808280232005002322C9
:1012B00005002324050023260500232A0500232CEE
:1012C000050082801C410D6713070704D4417D8F00
:1012D0009C41D58F9445D58FD445D58F9449D58FD2
:1012E000D449D58F944DD58FD98F1CC15C4D7D7756
:1012F0001307F77FF98F5CCD82801C4193E70704C9
:101300001CC182804CC582801C410967D98F1CC1D9
:101310000CC9828008456D8D3335A0008280B717D7
:1013200002409843B706FFE0B1061367170098C361
:10133000D843758FD8C39843B706F7FEFD16758F4F
:1013400098C39843B706FCFFFD16758F98C3D84322
:10135000B70601DFFD16758FD8C323A60702984391
:10136000B706F7EAFD16758F98C33707FF0098C7D1
:1013700094434167D98E94C39307F7FF3717024010
:1013800014431396E60063440600FD17F5FBB717F8
:10139000024098439316E70063C3060001A0D843B8
:1013A000B706C4DFFD16D8C3D843D8C3D8431367E4
:1013B0000740D8C3D843758FD8C3D843B706292070
:1013C000558FD8C3D857BD76758FD8D7D857C16633
:1013D000938616F1558FD8D79843B7060004558FDA
:1013E00098C3B7170240984393164700E3DD06FE03
:1013F0009843B7060010558F98C3B717024098431B
:1014000093162700E3DD06FE9843B7060001558FCB
:1014100098C3B7170240984393166700E3DD06FEB2
:10142000D843719BD8C3D84313672700D8C3371755
:1014300002405C43A18BF5DF82807971B70500081B
:1014400022D47D462A84938505280A8506D69720CE
:101450000000E780602F79468A85094597200000C3
:10146000E7802059A285094597000000E780C00465
:10147000B705000805469385052B09459720000010
:10148000E780205701A037070020130747081C43B7
:10149000B7060020938606543E95636BD500B77659
:1014A00000209386060063E5A60008C33E8582807F
:1014B000FD57EDBF79714ECEAE89B70500080946DC
:1014C0009385052A22D426D24AD052CC56CA06D6B3
:1014D0002A89714497200000E780A0513D4AA54A1F
:1014E000F154B3178A00B3F73701B3D7870093F7E6
:1014F000F70F63ECFA029387070393F7F70F05469C
:101500009305F1004A857114A307F10097200000AC
:10151000E780204EE31794FCB250225492540259B3
:10152000F249624AD24A4561828093877703F1B7D4
:10153000B70700D1D8438843CC43E39DE5FE8280C2
:10154000B70700D223800700A38507001205B7174D
:1015500000D23E9563E3A700828023A00700C10765
:10156000D5BFF327503093F707FC93E7370073900C
:1015700057308280B7050008411115469385452AEA
:10158000054506C697200000E780A0460545970060
:101590000000E780C0EA41119347F5FF22C406C668
:1015A000139747012A8409E797000000E780C0FCF1
:1015B000B705000815469385C52A05459720000004
:1015C000E7802043228597000000E78040E7411133
:1015D00006C697000000E780C0D413057005970089
:1015E0000000E78020F697000000E780C0F7B240D7
:1015F000410117F3FFFF670043C58280411126C2F6
:10160000AA841305206006C622C497000000E78064
:10161000809E1305906097000000E780C09D0D45F7
:1016200097000000E780C0A337150140A14601469E
:1016300081451305058097000000E780209037243E
:1016400001401305044097F0FFFFE780005B014570
:1016500097F0FFFFE780605F01468945130504406E
:1016600097F0FFFFE78060600146930500101305C7
:10167000044097F0FFFFE780405F81451305044079
:1016800097F0FFFFE780E0620546854513050440BB
:1016900097F0FFFFE780E06789460D468145130517
:1016A000044097F0FFFFE780606B37060E0085452A
:1016B0001305044097F0FFFFE780807D05468545D0
:1016C0001305044097F0FFFFE780C07F9DCC0546DF
:1016D000930500401305044097F0FFFFE780E058B2
:1016E000054689451305044097F0FFFFE7806062D7
:1016F00097F0FFFFE780A0609D46414681451305B6
:10170000044097F0FFFFE780407137240140130544
:10171000044097F0FFFFE780605B1305044097F0FB
:10172000FFFFE780A05B130504402244B2409244CF
:101730008545410117F3FFFF6700637C39713ECC9B
:10174000B707002083A7070906DE16DCDC4F1ADA8C
:101750001ED82AD62ED432D236D03ACE42CA46C865
:1017600072C676C47AC27EC08297F250E252525359
:10177000C2533255A255125682567247E24752481A
:10178000C248324EA24E124F824F21617300203068
:1017900039713ECCB707002083A7070906DE16DCA7
:1017A00083A7070E1ADA1ED82AD62ED432D236D004
:1017B0003ACE42CA46C872C676C47AC27EC0829702
:1017C000F250E2525253C2533255A255125682562B
:1017D0007247E2475248C248324EA24E124F824FE1
:1017E00021617300203039713ECCB707002083A7F8
:1017F000070906DE16DC83A747111ADA1ED82AD697
:101800002ED432D236D03ACE42CA46C872C676C438
:101810007AC27EC08297F250E2525253C25332557E
:10182000A255125682567247E2475248C248324E7B
:10183000A24E124F824F21617300203079714AD03D
:101840004ECE5AC806D622D426D252CC56CA5EC62E
:1018500062C466C22A8B97000000E780A0CDAA89E7
:101860002E8997000000E780E0CCAA842E84639440
:10187000A900E308B9FEB717000803A9878B83A95D
:10188000C78BB70B002097000000E780A0CAAA878B
:10189000058DB3B7A700818D9D8D97200000E7804F
:1018A000C0BC2A8A03A50B08AE8A97200000E780F7
:1018B00060B64A86CE8697100000E78040122A8CD8
:1018C0005A85AE8C97200000E780C0B42A86AE8689
:1018D0006285E68597100000E780006F2A86AE8655
:1018E0005285D68597100000E780C063E34D05F868
:1018F000B250225492540259F249624AD24A424B9F
:10190000B24B224C924C45618280411122C4B707F0
:101910000020370400200327840983A7C70906C6CF
:1019200026C2630AF708374500408945130505803C
:1019300097000000E780409E2DC58965371501405E
:1019400097F0FFFFE780006A130484091440B7078B
:1019500000201387C70A8A06369714431307F00F2F
:101960009384C70AA165371501406351D70497F0E6
:10197000FFFFE780E0661C40374500401305058007
:10198000138717008A07A69783C5070018C097001A
:101990000000E78060971C4013070010B3E7E702E0
:1019A0001CC0B240224492444101828097F0FFFF64
:1019B000E7804063C9B72244B24092448965371535
:1019C0000140410117F3FFFF67008361411122C409
:1019D00026C206C6B70400203704002003A78409E6
:1019E0008327C4096317F700B2402244924441019F
:1019F000828097000000E78080F1CDB7011122CCF2
:101A000026CA4AC806CE37090020930400103704BE
:101A100000201306C9091C42832684091387170076
:101A2000336797026301D70293962700B707002018
:101A3000F24062449387C70AB69788C318C2D2445B
:101A40004249056182802AC697000000E78020ECA9
:101A50003245C1B7411122C42A84218513050510DE
:101A600006C697000000E780A0F91375F40F224422
:101A7000B24013050510410117030000670043F849
:101A8000011122CC26CA37040020AA841305A00223
:101A900006CE36C22EC61304440932C49700000095
:101AA000E78000F603452400269597000000E780B4
:101AB000A0FA224603452400329597000000E780F3
:101AC000A0F91305B00297000000E78060F3B2456B
:101AD000034534002E9597000000E780E0F70345AA
:101AE00034009246369597000000E780E0F66244A5
:101AF000F240D2441305C0020561170300006700DD
:101B000023F0797189653715014006D622D497F004
:101B1000FFFFE780E04C480097F0FFFFE780207967
:101B2000930740103EC28D47374400403ECC930798
:101B300000203EC84C00A147130504803ECE02C4DD
:101B400002C602CA97F0FFFFE78000781305048001
:101B50009D4597F0FFFFE780607B1305048097F0B9
:101B6000FFFFE780C079B25022544561828009E9C5
:101B7000B707011A370700208507232AF708828054
:101B80008547E31EF5FEB707001837070020938747
:101B90001710E5B7B707002003C74709411122C452
:101BA00006C61384470911E7014597000000E78046
:101BB00040FC1305306097F0FFFFE780C04313053A
:101BC000406097F0FFFFE78000431305006097F047
:101BD000FFFFE78040421305E07097F0FFFFE780CA
:101BE000804137150140B9660D46E145130505C032
:101BF00097F0FFFFE7808034A9660D46C145371591
:101C0000014097F0FFFFE780603397000000E78016
:101C100080EFA9653715014097F0FFFFE780803C12
:101C200097000000E780C0DA130540069700000027
:101C3000E78000C1054597000000E78060DC970061
:101C40000000E780E0D81305800797000000E780D8
:101C500020BF454597000000E78080DA970000002C
:101C6000E78000D71305400697000000E78040BDDD
:101C7000834714001305200299E31305100297000F
:101C80000000E780E0D71305100B97000000E78005
:101C900020D71305501097000000E78060D6130589
:101CA000A01397000000E780A0D51305A0139700AC
:101CB0000000E780E0D41305200B97000000E780C8
:101CC00020D41305501097000000E78060D313055F
:101CD000A01397000000E780A0D21305A01397007F
:101CE0000000E780E0D11305300B97000000E7808B
:101CF00020D11305501097000000E78060D0130535
:101D0000A01397000000E780A0CF1305A013970051
:101D10000000E780E0CE1305501097000000E78038
:101D200020CE1305A01397000000E78060CD1305B7
:101D3000A01397000000E780A0CC1305400B97008C
:101D40000000E780E0CB1305301097000000E7802B
:101D500020CB1305000C97000000E78060CA130534
:101D6000201697000000E780A0C9130520109700F7
:101D70000000E780E0C81305401097000000E780EE
:101D800020C81305100C97000000E78060C71305FA
:101D9000001C97000000E780A0C61305200C9700E8
:101DA0000000E780E0C51305D01097000000E78031
:101DB00020C51305001097000000E78060C41305DC
:101DC000300C97000000E780A0C31305D0189700DF
:101DD0000000E780E0C21305A01697000000E7802E
:101DE00020C21305400C97000000E78060C1130576
:101DF000D01897000000E780A0C01305E01E9700F0
:101E00000000E780E0BF1305500C97000000E7805A
:101E100020BF1305E01097000000E78060BE1305A7
:101E2000000E97000000E780A0BD13050011970089
:101E30000000E780E0BC1305E01097000000E78099
:101E400020BC1305201097000000E78060BB13053D
:101E5000301097000000E780A0BA1305E01097004B
:101E60000000E780E0B91305701097000000E780DC
:101E700020B91305201097000000E78060B8130513
:101E8000701097000000E780A0B71305A01097001E
:101E90000000E780E0B61305201197000000E780FE
:101EA00020B61305701297000000E78060B5130597
:101EB000701397000000E780A0B41305001097008E
:101EC0000000E780E0B31305D01097000000E78022
:101ED00020B31305E01097000000E78060B21305FF
:101EE000001197000000E780A0B11305100E9700C5
:101EF0000000E780E0B01305001197000000E780C4
:101F000020B01305E01097000000E78060AF1305D4
:101F1000301097000000E780A0AE13053010970046
:101F20000000E780E0AD1305F01097000000E780A7
:101F300020AD1305601097000000E78060AC13052A
:101F4000201097000000E780A0AB130580109700D9
:101F50000000E780E0AA1305A01097000000E780CA
:101F600020AA1305301197000000E78060A913052F
:101F7000601297000000E780A0A813056013970087
:101F80000000E780E0A71305001097000000E7803D
:101F900020A71305D01097000000E78060A6130566
:101FA000E01097000000E780A0A51305001197003E
:101FB0000000E780E0A41305A00397000000E7807D
:101FC00020A41305501097000000E78060A31305BC
:101FD000600397000000E780A0A213058017970018
:101FE0000000E780E0A12244B240130590024101C5
:101FF000170300006700C3A0411122C4AE863284DB
:102000002A8606C697000000E780C0A722852244E2
:10201000B240410117030000670003A4011122CC64
:102020004AC84EC652C456C206CE26CAAA892E84B3
:10203000328A3689BA8A97000000E780A0A46375C7
:102040008902F2406244D2444249B249224A924A49
:1020500005618280568597000000E780E09F850437
:10206000E37A9AFE0504E1BFCE84DDBF93078009C1
:1020700063ECA70C797122D406D626D24AD04ECE74
:1020800052CC56CA5AC85EC6930700042E8463E633
:10209000B706B284811493F4F40FB68A1306750060
:1020A0009386F50013994400B7040008AA893A8A78
:1020B0009384442B97000000E780C09C639A0A0435
:1020C0008149B70B0020414BB3073901A69783CA5A
:1020D0000700214493F71A00528599E303A58B5317
:1020E0007D141374F40F97000000E780E09693DAF4
:1020F0001A006DF08509E39969FDB250225492549B
:102100000259F249624AD24A424BB24B456182803F
:10211000CA94130B0401A14B83CA0400014993F72D
:102120001A0089CB5286A2853385290197000000C9
:10213000E780C0EC050993DA1A00E31279FF050481
:102140008504E31B64FD55BF8280011122CC26CAA1
:102150004AC84EC652C456C25AC006CE2A84AE845D
:102160003289B6893A8A930A8009130B0004034620
:10217000090019EAF2406244D2444249B249224A73
:10218000924A024B0561828063F48A00C1040144D3
:10219000E3629BFE22854E87D286A68597000000CB
:1021A000E78000ED21040509D9B7797156CA938AF1
:1021B000F6FF22D426D24AD04ECE52CC5AC85EC6A2
:1021C00062C466C206D6AA8BAE89328C3A8A13F4F0
:1021D000FA0F814C01499304F00F294B63129406C6
:1021E000B250225492540259F249624AD24A424BA6
:1021F000B24B224C924C45618280B38767037D17B6
:102200001377F70FE31B97FE13953C005E95B357CA
:10221000FC02B3F7670313F6F70F6317090263D5E0
:102220005C0395E35287814613060002CE857D1438
:1022300097000000E780C0E3850C1374F40F79BFAA
:10224000228785476DBF05495287814613060603DD
:10225000F1BF797126D24AD04ECE06D622D4AE89AD
:10226000AA840149634E3901C16637160008054743
:10227000938606801306C68C91451305200321A280
:10228000B285268532C697100000E780E073268469
:1022900032469384047D63120510C164054793861A
:1022A000F4FF2286814597000000E78040EA8327FB
:1022B00004621387F4FF8D4685079207A297D047E3
:1022C000D145014597000000E78060EE371900080E
:1022D00005479386F4FF1306898CD145794597000D
:1022E0000000E780C0E60326046205479386F4FFFA
:1022F000050612062296D14513052003970000001B
:10230000E780E0E4832744621387F4FF8D46E50706
:102310009207A297D04793058002014597000000DD
:10232000E780E0E805479386F4FF1306898C930560
:102330008002794597000000E78060E1014793063D
:1023400050031306000A930580021305200397002B
:102350000000E780E0CC0326446205479386F4FF43
:102360006506120622969305800213052003970046
:102370000000E780C0DD05479306F07F1306F400F8
:102380009305C00301452254B25092540259F249B8
:10239000456117030000670083DB0509E1B5011102
:1023A00026CAB2843716000822CCAE862A841306C9
:1023B000C68EA9450A8506CE97100000E7802059F1
:1023C0008A852285414626C697100000E780C037DF
:1023D0002285F2406244D2440561828003AE05004A
:1023E00009436340C317797106D622D426D24AD056
:1023F0004ECE52CC56CA5AC82E8413010182B7154C
:102400000008B2842AC61306200308089385C58DE8
:102410004689C2893E8ABA8A368B97000000E780D7
:1024200040F8B246371600081306C68EBD450810A0
:1024300097100000E780A051B71500089385858E9E
:102440001305F10297100000E78080590C084146FF
:10245000880097100000E780202F0C084146880371
:1024600097100000E780402E0C0841461305014CF0
:1024700097100000E780402D056714089307078038
:10248000B6979C43084085452322F17E93074780F9
:10249000B6979C432320B1642322B1642328F17CA6
:1024A00093078780B6979C432324B164232AB17A8B
:1024B000232EF17C9307C780B6979C43232CB17AD7
:1024C000232EB17A2324F17E93070781B6979C438C
:1024D0000C101306007D232AF17C93074781B697E1
:1024E0009C432320617D2322517D2320F17E93078D
:1024F0008781B6979C432324417D2326317D232663
:10250000F17E9307007D3305F502232C217D2326E0
:1025100001642322016C232E01722695971000007E
:10252000E78080221C4085071CC01301017EB25049
:10253000225492540259F249624AD24A424B4561AE
:102540008280828041111305C07106C697F0FFFF9B
:10255000E78060AA97F0FFFFE78000A91305B0713C
:1025600097F0FFFFE78020A997F0FFFFE780209B0F
:10257000414597F0FFFFE78000C6414597F0FFFF18
:10258000E78040B421CD1305003097F0FFFFE780CE
:1025900020B105651305F58097F0FFFFE780A0A542
:1025A00097F0FFFFE780E0CD97F0FFFFE78060CC7A
:1025B0003D651305354297F0FFFFE78060C897F04F
:1025C000FFFFE78000CB054597F0FFFFE780E0CCF9
:1025D000B240410117F3FFFF6700A3C9B2404101B8
:1025E00082800000000000000000000000000000E9
:1025F00000000000000000000000000000000000DB
:102600005D7106C012C216C41AC61EC82ACA2ECCD4
:1026100032CE36D03AD23ED442D646D872DA76DCC2
:102620007ADEFEC0F322103496C0F322003096C248
:10263000F322407C96C4732520348A8597F0FFFFEF
:10264000E780A0F586427390123496427390023070
:10265000A6427390427C82401242A2423243C2435D
:102660005245E245724682561257A2573258C25816
:10267000525EE25E725F864F61617300203000003F
:10268000000000005D7106C012C216C41AC61EC842
:102690002ACA2ECC32CE36D03AD23ED442D646D8F2
:1026A00072DA76DC7ADEFEC073D0E87E7350F97E93
:1026B00073D0B97EF390D07E73700430B6427390BD
:1026C000427CA64273901234964273902234824028
:1026D0001242A2423243C2435245E24572468256FA
:1026E0001257A2573258C258525EE25E725F864F4E
:1026F000616173002030AA82B68E214363C46E00EC
:102700009102E11E8A0E3D433313D3011343F3FFBD
:10271000AE83B3E3C300B393D30103AE0200337EB1
:102720006E00336E7E0023A0C2018280F18D2D8E5B
:102730004206D18D0CC982804CC982804CC58280F2
:102740000C458280B712024003A3C2013363A30089
:1027500023AE62008280B712024003A3820133637A
:10276000A30023AC62008280711106C0414597002E
:102770000000E78060FDB71200401303B00623A4F9
:1027800062021303703E23A6620223A802000543DF
:1027900023A06200824011018280B712004003A58D
:1027A000020119C123A802008280711106C02145CF
:1027B00097000000E78060FA37150140130505C057
:1027C00081450D4681460D4797000000E780E0F205
:1027D0008506E39BE6FE82401101828097E2FF17A7
:1027E00093824282038502008280711106C03715F0
:1027F0000140130505C097E2FF179382A2808385ED
:102800000200FD1563D305009D452380B2001D46DF
:1028100097000000E780C0F10385020082401101AB
:102820008280711106C0214597000000E780E0F228
:1028300037150140130505C081450D46A1464147A6
:1028400097000000E78060EB8506E39BE6FE824090
:1028500011018280711106C097D2FF179382C27A4C
:1028600083A20200AA9237150140130505C083C553
:102870000200A20537060100130606F097000000CB
:10288000E78000EB82401101828097D2FF1793828C
:10289000A27783A20200AA922380B20082807111E3
:1028A00006C0114597000000E78020EB3715014076
:1028B0001305058081451146954625479700000080
:1028C000E780A0E38506E39BE6FE8240110182805B
:1028D000711106C07D5E97DEFF17938EBE7303A352
:1028E0000E009303F3FF23A07E006397030423A04D
:1028F0006E00371501401305058097000000E78042
:1029000060E49581BD898DC985813335B00033037D
:10291000A00085813335B0002A9385813335B0001E
:102920002A9397000000E780A0EB0A05336EA3000E
:102930001303002023A06E00728582401101828063
:1029400097D2FF179382526D23900200828097D214
:10295000FF179382726C03D30200A5430503137E15
:10296000F30063D8C3031903135E4300137EFE0014
:1029700063D1C30313030306135E8300137EFE00BB
:1029800063D9C30113030360135EC30063D3C301A0
:10299000014323906200828097D2FF179382D2670F
:1029A00003D50200828097D2FF179382126703A398
:1029B00002007D1323A06200635003021303F0089A
:1029C00023A0620097D2FF179382026403A3020040
:1029D0001343130023A062008280797113D845014C
:1029E00026D24ECE52CC5AC85EC69394C50006D6A7
:1029F00022D44AD056CA1378F87F2A8BB28B368AF3
:102A0000B18093D9F501630408089307F07F630E42
:102A1000F80C935AD5018E04B3E49A00B70A8000EB
:102A2000B3EA540113143500130918C0014B1355B0
:102A30004A019314CA001378F57FB180135AFA0142
:102A40006308080C9307F07F6301F81213953400B4
:102A500093D7DB015D8DB7048000C98C139F3B00C9
:102A6000130518C0814713172B005D8F7D17B946DA
:102A700033C649013308A94063EBE61097E6FFFF30
:102A8000938646E70A073697184336970287B3EAD4
:102A9000A40063860A068DCC268597100000E78087
:102AA00060B8930755FF7147634BF702F54A13046B
:102AB00085FFB38AFA40B3948400B35A5B01B3EA4A
:102AC0009A0033148B001308D0C03309A840B9BF53
:102AD00097100000E78000B513050502D9B79304ED
:102AE00085FDB31A9B000144F9BFB3EAA400638CCF
:102AF0000A002A84A68A1309F07F0D4B0DBF0144FA
:102B00000149054B2DB701441309F07F094B05B767
:102B100033EF740163040F069DC8268597100000EB
:102B2000E78040B0930755FF7147634AF702754746
:102B3000130F85FF1D8FB394E40133D7EB00D98CBD
:102B4000339FEB011306D0C03305A64021BF5E853D
:102B500097100000E78000AD13050502E1B793046C
:102B600085FDB3949B00014FF1BF33EF7401630BFC
:102B70000F005E8F1305F07F8D47F5B58144014549
:102B80008547D5B581441305F07F8947E9BD63E6E4
:102B9000540163939A2A6361E42B9396FA011357C5
:102BA00014009317F40193DA1A0033E4E600139546
:102BB000840093548F01458D135E0501B3D8CA0379
:102BC00013130501135303011357040193158F00C9
:102BD000B3F4CA03C68FB3061303939A0401336791
:102BE0005701637CD7002A97938FF8FF6367A7008C
:102BF0006375D700938FE8FF2A97158FB35EC703DD
:102C0000420441803377C703F686B308D3034207F3
:102C1000418F637C17012A979386FEFF6367A700A5
:102C2000637517019386EEFF2A97C20FB3EFDF009B
:102C3000C166330417419388F6FF13DF0F0133F7A2
:102C40001F0193DE0501B3F81501B3031703B304A5
:102C50001F033387EE02B302DF03330F970013D74E
:102C600003017A9763739700B692135F0701169F6B
:102C7000C162FD12B3765700C206B3F353009E96AD
:102C80006367E401FE84631EE40363FCD702AE972E
:102C900033B7B7002A973A949384FFFF63668500A1
:102CA0006311850263EFB7006366E401631B8F0065
:102CB00063F9D700AE9733B7B7002A979384EFFF35
:102CC0003A94B386D7403304E441B3B7D7001D8CA0
:102CD0007D5F6305850E335FC40313D7060133742C
:102CE000C403B307E3034204598C7A87637CF4007E
:102CF0002A941307FFFF6367A4006375F4001307AA
:102D0000EFFF2A941D8C335FC403C206C182337463
:102D1000C403FA873303E3034204558C637C6400E5
:102D20002A949307FFFF6367A40063756400930709
:102D3000EFFF2A9442075D8F93170701C183330485
:102D4000644013530701338E1703B308130333830F
:102D50006E02B38EFE0293570E01C69EF69763F481
:102D60001701C166369393D807019A9841637D1382
:102D7000B3F66700C206337E6E00F29663661401F6
:102D8000631E14193A8F9DCA2A94130FF7FF6361CB
:102D9000A402636614016312141963FDD5009397AE
:102DA0001500B3B5B7002E95130FE7FF2A94BE8523
:102DB000631414016384B600136F1F001307F83FF8
:102DC0006357E00A93777F0081CF9377FF009146A6
:102DD0006388D70093064F0033BFE601FA94368F1D
:102DE0009397740063D80700B70700FFFD17FD8CA9
:102DF000130708409307E07F63C8E710135F3F00A5
:102E00009397D401B3E7E70113D534003205137764
:102E1000F77F5207B25022543181598D7E063367B5
:102E2000C50092540259F249624AD24A424BB24B0F
:102E30003E85BA85456182807D1881478DBB4E866F
:102E4000D684228FDA8709476380E70C0D476386B3
:102E5000E70A0547E394E7F60145814785A85286CE
:102E6000DDB7B7040800014F01468D47E9BF0545AE
:102E7000198D93078003E3C1A7FEFD4763CAA7042A
:102E80001308E841B39704013357AF0033180F011B
:102E9000D98F33380001B3E7070133D5A40013F706
:102EA000770001CF13F7F70091466308D700138727
:102EB0004700B337F7003E95BA8713178500634A7A
:102EC00007041317D5018D83D98F0D8101473DBFAD
:102ED0008557998F93060002B3D7F4000147630624
:102EE000D5001308E84333970401336FE701333FFC
:102EF000E001B3E7E70101455DB737050800814709
:102F00001307F07F014619B7014581471307F07F8A
:102F1000F5BD014581470547D5BD7A873A8F69BD23
:102F200013D84501B7071000FD1713D746011378D2
:102F3000F87F930EF07FB3F8B7002A83F58FFD81F9
:102F4000328E1377F77FFD826318D801B3EEA800A5
:102F500063850E0689450DA86316D701B3EEC70039
:102F6000E39A0EFE631D080433E5A800133515002F
:102F700019E35D8E15CE11E5638AD50085C9FD552F
:102F800021A0FD5591C2B6852E858280E34807FFBA
:102F90006354E800F5F9E5B7E3E217FF639CF80036
:102FA000E36E6EFCE368C3FF8145F9BF8545E9BF69
:102FB00065FDE9B7E3E0F8FEC5BFE30107FB4DFFA0
:102FC000014545BF79714ECE93D9450122D426D211
:102FD00052CC56CA5AC89394C50006D64AD05EC68B
:102FE00093F9F97F2A84328BB68AB18013DAF5011E
:102FF000638109089307F07F6389F90C9357D50122
:103000008E04DD8CB7078000DD8C131935009389A1
:1030100019C0814B13D54A011394CA001375F57F6B
:10302000318093DAFA0161C59307F07F630DF510E3
:103030009357DB010E045D8CB70780005D8C130590
:1030400015C093173B00014793962B00D98E4E95E0
:10305000FD16B94533465A011308150063E6D5102D
:1030600097E5FFFF9385C58C8A06AE969442AE968F
:10307000828633E9A400630309069DC8268597006C
:103080000000E780205A130755FFF14763C9E702A4
:10309000F547130985FF998FB3942401B357F400C2
:1030A000DD8C331924019309D0C0B389A94095B7A9
:1030B00097000000E780005713050502E9B7930465
:1030C00085FDB31494000149F9BF33E9A400630BF3
:1030D00009002A899309F07F8D4B2DBF81448149D6
:1030E000854B0DBF81449309F07F894B25B7B367AA
:1030F0006401B5C31DC8228597000000E780805297
:10310000930655FFF14763CAD7027547930785FFBA
:10311000158F3314F4003357EB00598CB317FB00B1
:103120001307D0C03305A74039BF5A859700000068
:10313000E780404F13050502E1B7130485FD331402
:103140008B008147F1BFB367640191CBDA87130528
:10315000F07F0D47D5BD014401450547F5B5014454
:103160001305F07F0947CDB5416F930EFFFF13574D
:10317000090193D807013379D901B3F7D701B38592
:103180002803B3862703B30FF7023383F50193D5E2
:1031900006019A95330E170363F3F5017A9E93D3D4
:1031A0000501B3F5D501B3F6D601135F0401B3727F
:1031B000D401C205B695B30E5702B3862203330974
:1031C0002F033303D90113D906011A993307E703F3
:1031D0006374D90141631A97935E0901C169BA9E6C
:1031E0001387F9FF3379E900F98E13D404014209FA
:1031F000F98C369933879702CA933303F402B38666
:103200009802B3878802B388660093560701C69672
:1032100063F36600CE9793D80601C169B38FF800B7
:103220009387F9FFFD8E7D8FB3889202C206BA960E
:10323000B3075402B3049F0233038F02BE9413D426
:103240000801A29463F3F4004E93C167FD1733F7AE
:10325000F400B3F8F80042071E9E469733392E015A
:10326000769733042701369EB336DE00B308F401A7
:10327000338FD8003337D70133342401598CC180C0
:10328000B3B8F801B336DF002694B3E6D80036941D
:103290001A9493577F0126045D8C93179E00CD8F5F
:1032A000B337F000135E7E0113179F00B3E7C70129
:1032B000D98F131774006358070A13D71700858B2B
:1032C000D98F1317F401D98F05809306F83F635EF9
:1032D000D00813F7770001CF13F7F7009145630883
:1032E000B70013874700B337F7003E94BA87131728
:1032F000740063580700370700FF7D17798C930629
:1033000008401307E07F634CD70E13D7370093179D
:10331000D401D98F0D80320413F7F67F5207318024
:10332000598C7E063367C400B2502254925402591D
:10333000F249624AD24A424BB24B3E85BA85456158
:10334000828052862684CA875E8789466309D70AA7
:103350008D46630FD7088546E319D7F601448147A8
:103360009DA05686DDB72A888DB78545958D1307B4
:103370008003E345B7FE7D476349B7041308E8417E
:1033800033170401B3D6B700B3970701558FB3378E
:10339000F000D98F3354B40013F7770001CF13F73F
:1033A000F70091466308D70013874700B337F7004B
:1033B0003E94BA8713178400634807041317D40197
:1033C0008D83D98F0D808146B9B70557158F1305A9
:1033D00000023357E40081466386A5001308E843E2
:1033E000B3160401D58FB337F000D98F01446DB700
:1033F0003704080081479306F07F014629BF014446
:1034000081479306F07F01BF01448147854621B77C
:10341000411122C406C62A8421C597000000E78016
:1034200060201307E041A947098F63C6A702AD4793
:10343000898F5505B357F4003314A4002285B24098
:103440002244B2071377F77F5207B183B3E6E70050
:10345000B685410182805515B317A4000144F9BF18
:1034600081470147E1BF011106CE22CC26CA4AC8D6
:103470004EC652C4B367B500638607142A842E89EA
:10348000AE84BDC52E8597000000E780A019AA89EB
:10349000130AE043330A3A419307304363C74707AF
:1034A000AD47228563D337039307A00263C937056D
:1034B0009305B002938759FFB3853541B355B400E6
:1034C000B314F900CD8C3315F4009395C400F24089
:1034D0006244137AFA7F520AB181B3E745012A8721
:1034E000D2444249B249224A3A85BE85056182806A
:1034F00097000000E78000139309050251BF9385F0
:1035000059FDB314B4000145C9B79307604363D9AB
:103510004703138689032285CA8597000000E78048
:10352000C00DC98D2146B334B0002285CA8533064B
:10353000364197000000E780A00933E4A4002E89FB
:10354000A147228563D437039307700263C6370708
:1035500093058002938789FFB38535413319F900BC
:10356000B355B40033E925013315F400B70780FFE4
:10357000FD17B375F9009377750081CF9377F50048
:1035800011476388E7009307450033B5A700AA9564
:103590003E859397850063DA0700B70780FFFD1724
:1035A000130AF043FD8D330A3A410D819397D501FB
:1035B0005D8D93D4350011BF138989FD3319240122
:1035C00001456DB781440145014A01B701CE93071A
:1035D0000002918F6349F000130506FE014733D5C1
:1035E000A500BA85828033D7C5003355C500B39591
:1035F000F5004D8DFDB701CE93070002918F634911
:10360000F000930506FE0147B315B5003A858280A8
:103610003317C500B395C5003355F500C98DFDB707
:10362000C1676376F5029307F00FB3B7A7008E0763
:10363000130700021D8FB357F50017D5FFFF1305C1
:10364000E532AA9703C507003305A74082803707F4
:103650000001C147E36EE5FCE147D9BFAA85814679
:1036600001460145170300006700C33D411122C414
:1036700006C6970700009387A7452A8491C781450E
:1036800097000000E780C044971700009387C7D6D3
:1036900088431C5591C38297228597E0FFFFE780FE
:1036A00000DA411197170000938747D522C41714F9
:1036B00000001304A4D41D8C26C206C60984BE844F
:1036C00011E4B24022449244410182807D14931758
:1036D0002400A6979C438297E5B7411197170000F5
:1036E0009387C7D122C417140000130424D11D8C62
:1036F00026C24AC006C6098481443E896396840274
:1037000097170000938787CF17140000130404CF86
:103710001D8C098481443E89639F8400B240224409
:10372000924402494101828093972400CA979C43A6
:1037300085048297E1B793972400CA979C43850438
:103740008297D9BF2A8309CA8383050023007300A7
:103750007D16050385056DFA8280DDC983A7C5FF47
:10376000411122C406C626C21384C5FF63D30700D5
:103770003E94AA8497000000E780004297D7FF1785
:10378000938747929C4385E32322040097D7FF1732
:1037900023AA87902244B240268592444101170310
:1037A00000006700833F637EF40014403307D400B9
:1037B0006396E7009843DC43369718C05CC0F9B7BE
:1037C000BA87D84319C3E37DE4FE94433386D70018
:1037D000631F86001040B29694C33386D700E31B64
:1037E000C7FA10435843B29694C3D8C365B76375FC
:1037F000C400B1479CC079BF1040B306C400631633
:10380000D70014435843B29614C058C0C0C359B728
:103810008280011126CA93843500F19806CE22CC0D
:103820004AC84EC6A104B14763F3F406B14463E24B
:10383000B4062A8997000000E780003697D7FF1763
:103840009387478698433A8439EC97D7FF17938735
:10385000A7859C4399EB81454A8597000000E78046
:10386000A00B97D7FF1723A1A784A6854A859700A9
:103870000000E780600AFD59631F3507B147232028
:10388000F9004A8597000000E780203129A0E3D0A5
:1038900004FAB1471CC10145F2406244D244424996
:1038A000B249056182801C40858F63C30704AD4621
:1038B00063F6F6001CC03E9404C001A85C40631788
:1038C000870217C7FF17232FF77C4A859700000050
:1038D000E780A02C1305B4009307440061993307D7
:1038E000F5405DDB3A94898F1CC07DB75CC3F1BFA6
:1038F0002287404091BF130435007198E30E85FA8A
:10390000B305A4404A8597000000E780E000E31576
:1039100035FBADB7411122C42A842E8597D7FF17F6
:1039200023A007C206C697E0FFFFE78000B6FD5759
:103930006319F50097D7FF17938787C09C4391C3FE
:103940001CC0B24022444101828035713ECBA6DAD0
:1039500036C73AC942CD46CF97C7FF17938707733B
:1039600086DEA2DCCAD8844363DC05009307B00876
:103970009CC07D55F6506654D65446590D618280E0
:1039800093078020231AF1002AC42ACC814799C1C9
:103990009387F5FF7D592E8474012C0026853EC83F
:1039A0003ECE231B210136C297000000E780202F66
:1039B000635525019307B0089CC04DDCA2472380C6
:1039C00007004DBF0346050083C6050005058505B4
:1039D0006313D60065FA3305D6408280AA8703C7F1
:1039E000050085078505A38FE7FE75FB828097C7D5
:1039F000FF179387A769B2862E86AA858843170387
:103A0000000067008300411122C42A842E85B285FC
:103A1000368697D7FF1723A507B206C69710000072
:103A2000E7808099FD576319F50097D7FF179387B3
:103A300027B19C4391C31CC0B24022444101828003
:103A400097C7FF17938787669C432A8E8DE717D702
:103A5000FF171307E7A597C7FF1723A9E76417C543
:103A6000FFF71305255ABA8719C51C4117D5FF174B
:103A70002324F5ACBA87D8437D487D556347E804D5
:103A8000630E0E0203A88708630108049318270039
:103A9000C29823A0C8000323081005463316E60089
:103AA0003363C3002320681023A0D8088946631716
:103AB000DE0083264810558E2322C8109306170077
:103AC0000A07D4C3BA978CC701458280797152CC5A
:103AD00056CA5AC85EC606D622D426D24AD04ECE80
:103AE00062C42A8B2E8A97CAFF17938A2A5C854B59
:103AF00003A40A0011C84440832984081389F4FFF1
:103B00008A04A294635E0900B2502254925402596E
:103B1000F249624AD24A424BB24B224C4561828002
:103B2000630E0A00639509007D19F114E1BF931734
:103B30002900CE9783A70708E39847FF5840DC4049
:103B40007D176318270323222401F9DF032C440087
:103B50006388090083A6091033972B01F98E89EE3B
:103B60008297584083A70A00E31487F9E30EF4FA1A
:103B700041B723A20400D1BF93162900CE968C42F0
:103B800083A64910758F01E75A858297D9BF2E8584
:103B90008297C1BF8280828001114AC803A9850033
:103BA00022CC52C45AC006CE26CA4EC656C22E8455
:103BB000328B368A63E2260B83D7C50013F707489A
:103BC00051CB04408C495848AA8AB389B4408D44EB
:103BD000B384E4020947B3C4E402138716004E9786
:103BE00063F3E400BA8493F70740C9CBA6855685F2
:103BF00097000000E78020C22A890DE5B14723A085
:103C0000FA008357C4007D5593E707042316F40098
:103C1000F2406244D2444249B249224A924A024B9B
:103C2000056182800C484E8697000000E780C0B195
:103C30008357C40093F7F7B793E707082316F400F8
:103C40002328240144C84E99B384344123202401FD
:103C500004C4528963732A01528908404A86DA856E
:103C600097000000E780806A1C440145B387274124
:103C70001CC41C403E992320240159BF268656852A
:103C800097000000E780E06A2A895DF90C485685B4
:103C900097000000E780A0AC95B783D7C50071718D
:103CA00026D34AD14ECF06D722D552CD56CB5AC9AC
:103CB0005EC762C566C393F70708AA892E89B284D6
:103CC000A9C79C49B9E39305000436C697000000D4
:103CD000E78060B42320A9002328A900B24615E19B
:103CE000B14723A0F9007D55BA502A549A540A5975
:103CF000FA496A4ADA4A4A4BBA4B2A4C9A4C4D6105
:103D0000828093070004232AF90093070002A30C82
:103D1000F1029307000302DA230DF10236CE930B72
:103D2000500297DAFFFF938A6AD4054C294B268408
:103D30008347040099C36391770BB30C944063806D
:103D40000C02E6862686CA854E8597000000E7802D
:103D5000E0E4FD57630AF51AD256E69636DA834751
:103D600004006383071AFD579304140002D002D69F
:103D70003ED202D4A301010682DC83C504001546AD
:103D8000568597000000E780C056138414008257C0
:103D900031E513F7070109C713070002A301E10684
:103DA00013F7870009C71307B002A301E10683C612
:103DB00004001307A002638BE602B25726848146F3
:103DC00025460347040093051400130707FD637499
:103DD000E6068DC63ED61DA0050499BF33055541A4
:103DE0003315AC00C98F3ED0A28441BF7247930601
:103DF0004700184336CE634907023AD6034704000A
:103E00009307E002631FF704034714009307A0021F
:103E1000631BF702F2470904138747009C433ACE1D
:103E200063C107023ED235A83307E04093E727007D
:103E30003AD63ED0E1B7B387670385462E84BA975A
:103E400049B7FD57C5B7050402D2814681472546CB
:103E50000347040093051400130707FD637CE6067F
:103E6000F1F2834504000D4617D5FFFF130585C009
:103E700097000000E780E04711CD97D7FFFF9387B9
:103E800067BF1D8D93070004B397A7000255050473
:103E90005D8D2AD083450400194617D5FFFF130511
:103EA000A5BD93041400230CB10297000000E78025
:103EB000404425C597C7FFF79387C71495E7025776
:103EC000F2471377071009CF91073ECED257D2970A
:103ED0003EDAB1BDB387670385462E84BA978DBF9E
:103EE0009D07E19BA107D5B7780897060000938648
:103EF000E6CA4A860C104E8597000000E7000000D5
:103F0000FD572A8AE314F5FC8357C9007D5593F7C2
:103F10000704E39B07DC5255C1BB780897060000F5
:103F20009386C6C74A860C104E8597000000E7802E
:103F30006011F9B7797156CA9C49BA8A984522D45A
:103F400026D24ECE52CC06D64AD05AC85EC6AA89D0
:103F50002E84B284368A63D3E700BA879CC00347B5
:103F6000340419C385079CC01C4093F7070281C71E
:103F70009C4089079CC00329040013796900631AD7
:103F80000900130B9401FD5B5C449840998F634CCE
:103F9000F9041C408346340493F70702B336D0007B
:103FA000A5EB13063404D2854E85829AFD57630330
:103FB000F5041C4011469840998B54448144639702
:103FC000C700B384E64063D3040081441C4418480E
:103FD0006354F700998FBE94014969047D5B63982F
:103FE0002405014509A885465A86D2854E85829AC0
:103FF000631E75017D55B250225492540259F24904
:10400000624AD24A424BB24B456182800509ADBF3C
:104010003307D40013060003A301C7040347540465
:1040200093871600A2978906A381E7049DBF854662
:104030002286D2854E85829AE30E65FB050945B737
:10404000797122D426D24AD04ECE06D652CC56CA48
:104050005AC8B68983C685019307E0063289AA84C7
:104060002E84138635046383F61E63E2D706930716
:1040700030066382F60A63EDD700638D061E930750
:1040800080056389F616930A24042301D40469A8E1
:10409000930740066386F60093079006E395F6FEC5
:1040A0001C40084393F6070893054500C1C21C4114
:1040B0000CC363D807001307D002B307F040A30175
:1040C000E40497D6FFFF9386A69B294765A0930734
:1040D00030076385F61A63EFD7009307F006638F06
:1040E000F60493070007E390F6FA9C4193E7070272
:1040F0009CC109A8930750076382F60493078007C1
:10410000E393F6F893078007A302F40497D6FFFF22
:1041100093864698F5A01C43938A2504938647000E
:104120009C4314C32381F50485479DAA93F6070495
:104130001C410CC3BDDEC207C187A5BF0C401C4398
:1041400013F80508138547006305080008C39C435E
:1041500039A093F5050408C3FDD983D707001307D9
:10416000F006638DE60C97D6FFFF9386669129478C
:10417000A30104044C400CC463C5050008406D99BC
:1041800008C099E3B28A91CDB28AB3F5E702FD1A6D
:10419000B69583C505002380BA00B3D5E70263F561
:1041A000E70AA147631EF7001C40858B91CB58405E
:1041B0001C4863C7E70093070003A38FFAFEFD1AAC
:1041C0003306564110C84E87CA867000A2852685E0
:1041D00097000000E78040D67D5A6317450D7D5556
:1041E000B250225492540259F249624AD24A424B86
:1041F00045618280A382D50497D6FFFF93864688C7
:104200000C40084313F805081C411105630008021F
:1042100008C313F7150001C793E505020CC0414719
:10422000A1FB0C4093F5F5FD0CC099B713F80504FC
:1042300008C3E30008FEC207C183E1BF97D6FFFFB2
:104240009386068421472DB7AE8781B794411C43DE
:10425000CC4913F80608138547006306080008C315
:104260009C438CC301A808C393F606049C43F5DA6B
:104270002390B70023280400B28AB1B71C43D04171
:1042800081459386470014C383AA0700568597008B
:104290000000E780000601C53305554148C05C4079
:1042A0001CC8A301040405B714485686CA85268590
:1042B0008299E30645F31C40898B8DE7B247484459
:1042C000E350F5F23E8529BF85465686CA85268588
:1042D0008299E30665F1050A5C443247998FE3450C
:1042E000FAFEE9BF014A930A94017D5BF5B793F5A5
:1042F000F50F2A966314C5000145828083470500A7
:10430000E38DB7FE0505FDB715C22A8385466367B1
:10431000B500FD561307F6FF3A93BA95838305005F
:10432000230073007D163693B6956DFA828091E571
:10433000B28517F3FFFF6700034E011122CC06CEB2
:1043400026CA4AC84EC6328411EE97F0FFFFE780B6
:1043500000410149F24062444A85D2444249B2498F
:1043600005618280AE84AA8997000000E7808003FF
:104370002689E37185FEA2854E8597F0FFFFE780D1
:1043800080492A8961D9A685228697F0FFFFE780B8
:10439000A03BA6854E8597F0FFFFE780403C5DBFC0
:1043A00083A7C5FF1385C7FF63D50700AA959C4166
:1043B0003E958280411106C622C48146014781474D
:1043C00093080004730000002A84635A0500330434
:1043D000804097000000E780600100C17D54228585
:1043E000B24022444101828097C7FF17938707CAD2
:0443F00088438280FC
:0443F4002000002085
:1043F8000700000008000020000000000000000086
:10440800AA00020000FFFF8F000000070000000064
:104418000000000000000000000000000000000094
:104428000000000000000000000000000000000084
:104438000000000000000000000000000000000074
:104448000000000000000000000000000000000064
:104458000000000000000000000000000000000054
:104468000000000000000000000000000000000044
:1044780000F36F0640050020200000200000000027
:040000050800015C92
:00000001FF
