:020000040800F2
:10000000B1AA010000000000000000000000000094
:100010000000000000000000000000000E4F00087B
:1000200000000000000000000000000000000000D0
:1000300000000000000000000000000000000000C0
:1000400000000000000000000000000000000000B0
:1000500000000000000000000000000000000000A0
:100060000000000000000000000000000000000090
:100070000000000000000000000000000000000080
:100080000000000000000000000000000000000070
:100090000000000000000000000000000000000060
:1000A0000000000000000000000000000000000050
:1000B0000000000000000000000000000000000040
:1000C0000000000000000000000000000000000030
:1000D0000000000000000000000000000000000020
:1000E000624F000800000000000000000000000057
:1000F0000000000000000000000000000000000000
:1001000000000000000000000000000000000000EF
:1001100000000000B84F00080000000000000000D0
:1001200000000000000000000000000000000000CF
:1001300000000000000000000000000000000000BF
:1001400000000000000000000000000000000000AF
:100150000000000000000000000000007370043088
:10016000170500001305C5FF8545F605637BB5003F
:1001700089816378B500170500001305C5002E9529
:1001800002859302002073A0027D970200009382F3
:1001900062E773907230978200009382E2DE739080
:1001A000C27E73E0C07E978200009382A2D57390D6
:1001B0005230970100189381E16C178100181301E8
:1001C00061E417C500001305A58B970500189385FA
:1001D00065E317060018130666EC63FAC500832270
:1001E000050023A0550011059105E3EAC5FE17059A
:1001F00000181305A5EA972500189385A5AE637727
:10020000B500232005001105E36DB5FE73F0023241
:1002100017A50000130505E497A00000E78060DE45
:1002200097A00000E78080E697200000E7808056D6
:100230000145814597100000E78080FB17A300006F
:100240006700E3DD01A073E00232828073F00232C6
:0402500082800000A8
:100280000000000000000000010203040607080946
:100290000A50726F6772616D2068617320657869BA
:1002A000746564207769746820636F64653A000040
:1002B000307800006E6D690A000000007472617091
:1002C0000A00000046415400464154333200000009
:1002D000222A2B2C3A3B3C3D3E3F5B5D7C7F00005D
:1002E000000000000040AF400000D743000000388D
:1002F0000000A04000000000000000000000594085
:1003000068226C787AA5D83F000000000000000049
:1003100000000000000000000000000808080808B5
:10032000080800001818000000486C2412000000A3
:1003300000000000000000000000002424247F12C0
:1003400012127F12121200000000081C2A2A0A0C46
:100350001828282A2A1C080800000022251515152F
:100360002A585454542200000000000C1212120AA1
:1003700076252911916E0000000606040300000096
:1003800000000000000000000040201010080808D5
:10039000080808101020400000020408081010107F
:1003A00010101008080402000000000008086B1C70
:1003B0001C6B080800000000000000000808080886
:1003C0007F0808080800000000000000000000008E
:1003D000000000000606040300000000000000000A
:1003E000FE0000000000000000000000000000000F
:1003F00000000000060600000000804040202010A1
:1004000010080804040202000000001824424242BE
:100410004242424224180000000000080E0808086A
:1004200008080808083E00000000003C4242422044
:1004300020100804427E00000000003C42422018C8
:1004400020404042221C00000000002030282424CC
:1004500022227E20207800000000007E0202021A84
:1004600026404042221C0000000000382402021AEC
:1004700026424242241800000000007E2222101072
:1004800008080808080800000000003C4242422416
:1004900018244242423C000000000018244242421C
:1004A00064584040241C00000000000000001818A0
:1004B0000000000018180000000000000000000804
:1004C000000000000008080400000040201008049C
:1004D00002040810204000000000000000007F001F
:1004E00000007F000000000000000002040810204F
:1004F00040201008040200000000003C4242464038
:1005000020101000181800000000001C225A555539
:1005100055552D42221C0000000000080818141434
:10052000243C224242E700000000001F2222221E3B
:1005300022424242221F00000000007C4242010190
:1005400001010142221C00000000001F2242424221
:1005500042424242221F00000000003F4212121E8F
:1005600012120242423F00000000003F4212121EDF
:1005700012120202020700000000003C22220101C8
:1005800001712122221C0000000000E74242424289
:100590007E42424242E700000000003E0808080890
:1005A00008080808083E00000000007C1010101029
:1005B000101010101010110F0000007722120A0EF8
:1005C0000A12122222770000000000070202020233
:1005D00002020202427F0000000000773636363603
:1005E0002A2A2A2A2A6B0000000000E346464A4ACB
:1005F00052525262624700000000001C22414141F9
:1006000041414141221C00000000003F4242424261
:100610003E020202020700000000001C224141418C
:1006200041414D53321C60000000003F4242423EB7
:100630001212222242C700000000007C4242020443
:1006400018204042423E00000000007F4908080890
:1006500008080808081C0000000000E74242424267
:1006600042424242423C0000000000E74242222453
:1006700024141418080800000000006B4949494977
:100680005555362222220000000000E7422424189B
:100690001818242442E700000000007722221414D6
:1006A00008080808081C00000000007E2120101027
:1006B00008040442423F00000078080808080808BF
:1006C0000808080808087800000002020404080866
:1006D0000810102020204040001E10101010101094
:1006E0001010101010101E00003844000000000010
:1006F00000000000000000000000000000000000FA
:1007000000000000000000FF0006080000000000DC
:100710000000000000000000000000000000003C9D
:100720004278444242FC0000000000030202021A28
:1007300026424242261A0000000000000000003855
:10074000440202024438000000000060404040784B
:100750004442424264D80000000000000000003C17
:10076000427E0202423C0000000000F08808087E41
:1007700008080808083E0000000000000000007C97
:1007800022221C023C42423C000000030202023AC8
:100790004642424242E700000000000C0C00000EFE
:1007A00008080808083E000000000030300000384B
:1007B000202020202020221E0000000302020272BE
:1007C000120A1612227700000000000E080808081E
:1007D00008080808083E0000000000000000007F34
:1007E0009292929292B70000000000000000003B3D
:1007F0004642424242E70000000000000000003C88
:1008000042424242423C0000000000000000001B47
:1008100026424242221E020700000000000000782B
:1008200044424242447840E000000000000000776B
:100830004C040404041F0000000000000000007CC1
:1008400042023C40423E0000000000000008083E1A
:1008500008080808083000000000000000000063DD
:100860004242424262DC000000000000000000E75B
:10087000422424140808000000000000000000EBDF
:100880004949555522220000000000000000007672
:1008900024181818246E000000000000000000E773
:1008A0004224241418080807000000000000007EFD
:1008B00022100808447E000000C0202020202010C4
:1008C000202020202020C000101010101010101028
:1008D000101010101010101000060808080808105A
:1008E0000808080808080600AAAA5555AAAA5555D6
:1008F000AAAA5555AAAA5555000000040A0E0A0ACC
:100900006090604090600000010000000400000062
:10091000070000000E0000000200000005000000BB
:1009200008000000000000000300000006000000B6
:10093000090000000F0000000A0000000B0000008A
:100940000C0000000D000000477265656E204669CE
:100950006E676572732076310000000053797374FE
:10096000656D206F6E6C696E650000004442206CFE
:100970006F616465640000004E6F20444200000017
:10098000477265656E2066696E6765727320776F62
:10099000726B696E67000000444220757064617478
:1009A000656400004442205550444154452045525E
:1009B000524F52008A5A0008BC5A0008325B0008A5
:1009C000AC5B0008005F00081C600008FC5B0008CE
:1009D000FC5B0008305C00087E5C0008E65C0008F8
:1009E000705D0008E05D0008705E0008346000087B
:1009F000605D0008605D0008A65E000820620008D7
:100A0000586100087261000886610008546100089E
:100A1000546100089A610008AE610008C2610008D4
:100A2000D6610008EA610008EA610008EA6100088E
:100A3000FC610008FA610008FA610008FA61000828
:100A4000EA610008206200085A6100087461000829
:100A50008861000800620008006200089C610008CC
:100A6000B0610008C4610008D8610008EC610008AA
:100A7000EC610008EC61000800620008FA610008FF
:100A8000FA610008FA610008EC61000847726565C8
:100A90006E2066696E67657273000000736565207D
:100AA0006461746100000000726567697374657247
:100AB000206120706C616E740000000072657365C7
:100AC000740000006261636B00000000706C616E76
:100AD0007420000053656520736E61702073686F29
:100AE000740000007669657720686973746F7279A5
:100AF0000000000043686F6F736520646566617570
:100B00006C740000437573746F6D20736574746941
:100B10006E677300546F6D61746F00006375637569
:100B20006D62657200000000507572706C6520681F
:100B3000617A6500546F6D61746F206164646564EF
:100B400021000000437563756D626572000000004E
:100B50004452554753204152452042414400000031
:100B60006D6D6B6161616179790000004D79207371
:100B700077616767610000006E65656420746F20AF
:100B800062652061626C6520746F2072656164200B
:100B9000696E2064617461004C414D50206F6E009D
:100BA0004D6F6973747572653A20000073756E3A03
:100BB0002000000054656D703A2000005265736596
:100BC0007420616C6C000000726573657420612094
:100BD000706C616E74000000257300004F4B0000C4
:100BE000424548C39656455220534B55474741000E
:100BF000424548C396564552204C4A555300000082
:100C000053554E3A000000004D4F4953543A0000EE
:100C100054454D503A0000002500000064617461A5
:100C2000626173652E62696E0000000022257322E6
:100C30003A0000005B0000002C0000007B226E6187
:100C40006D65223A222573222C22737461747573A8
:100C5000223A222573222C2263757272656E7453B8
:100C6000756E223A25642C2263757272656E744D1E
:100C70006F697374223A25642C2263757272656EF3
:100C80007454656D70223A25642C22696465616C28
:100C90004D6F697374223A25642C22696465616C16
:100CA00053756E223A25642C22696465616C546523
:100CB0006D70223A25642C226D696E4D6F697374D4
:100CC000223A25642C226D696E53756E223A256492
:100CD0002C226D696E54656D70223A25642C226D4C
:100CE00061784D6F697374223A25642C226D6178A6
:100CF00053756E223A25642C226D617854656D70AF
:100D0000223A25647D0000005D0A0000696E2072B1
:100D100065636569766520636F6D6D616E647300F0
:100D200072656E646572416C6C506C616E747300B8
:100D3000676574416C6C506C616E747300000000E8
:100D400064617461207472616E736D69747465643A
:100D50000000000022636D64223A220022636D6469
:100D6000223A222531345B5E225D22007374617267
:100D70007450756D7000000050554D502053544113
:100D8000525445442100000073746172744C616DCB
:100D900070000000616464506C616E7400000000BB
:100DA000226E616D65223A2200000000226E616DA4
:100DB00065223A22255B5E225D220000696465613E
:100DC0006C4D6F6973740000696465616C53756E76
:100DD00000000000696465616C54656D700000007E
:100DE0006D696E4D6F697374000000006D696E531C
:100DF000756E00006D696E54656D70006D61784DA3
:100E00006F697374000000006D617853756E0000A7
:100E10006D617854656D70004E455720504C414EC1
:100E200054204144444544210000000042414420F4
:100E3000434F4D4D414E443A00000000C67900003A
:100E4000167900001C79000016790000B8790000BE
:100E5000167900001C790000C6790000C6790000F0
:100E6000B87900001C790000FC780000FC780000D4
:100E7000FC78000020790000CC7D0000CC7D0000D3
:100E8000E47D0000C67D0000C67D0000727E00008B
:100E9000E47D0000C67D0000727E0000C67D00007B
:100EA000E47D0000C47D0000C47D0000C47D00001E
:100EB000727E0000D28A0000FC8A0000248B0000B1
:100EC000FC8A0000708B0000FC8A0000248B00006C
:100ED000D28A0000D28A0000708B0000248B0000B0
:100EE000E48A0000E48A0000E48A0000288B000005
:100EF000DC8C0000DC8C0000F48C0000D88C00003E
:100F0000D88C00003A8D0000F48C0000D88C0000D2
:100F10003A8D0000D88C0000F48C0000D68C0000C4
:100F2000D68C0000D68C00003A8D00000001020231
:100F30000303030304040404040404040505050571
:100F4000050505050505050505050505060606064D
:100F50000606060606060606060606060606060631
:100F6000060606060606060606060606070707071D
:100F70000707070707070707070707070707070701
:100F800007070707070707070707070707070707F1
:100F900007070707070707070707070707070707E1
:100FA00007070707070707070707070708080808CD
:100FB00008080808080808080808080808080808B1
:100FC00008080808080808080808080808080808A1
:100FD0000808080808080808080808080808080891
:100FE0000808080808080808080808080808080881
:100FF0000808080808080808080808080808080871
:101000000808080808080808080808080808080860
:101010000808080808080808080808080808080850
:101020000808080808080808080808080020202000
:101030002020202020202828282828202020202088
:101040002020202020202020202020202088101058
:1010500010101010101010101010101010040404B4
:101060000404040404040410101010101010414172
:101070004141414101010101010101010101010160
:101080000101010101010101101010101010424274
:101090004242424202020202020202020202020230
:1010A00002020202020202021010101020000000D0
:1010B0000000000000000000000000000000000030
:1010C0000000000000000000000000000000000020
:1010D0000000000000000000000000000000000010
:1010E0000000000000000000000000000000000000
:1010F00000000000000000000000000000000000F0
:1011000000000000000000000000000000000000DF
:1011100000000000000000000000000000000000CF
:1011200000000000000000000000000000000000BF
:10113000232D302B20000000686C4C00656667454D
:101140004647000030313233343536373839414282
:1011500043444546000000003031323334353637E1
:10116000383961626364656600000000412D4661A4
:101170002D66383930313233343536375D00000072
:101180002B2D0000303000007858000000000000D7
:10119000000000000000000000000000000000004F
:1011A000000000000000000000000000000000003F
:1011B000000000000000000000000000000000002F
:1011C000000000000000000000000000000000001F
:1011D000000000000000000000000000000000000F
:1011E000000000000000000000000000130101D515
:1011F000B715000813060004938585900810232670
:10120000112A2324812A2322912A2320212B232ED1
:101210003129232C4129232A5129232861299790F8
:101220000000E78080EEB5473EC802C402C602CA8D
:1012300002CC97700000E78060E397700000E780C1
:1012400000E797700000E78000EE37150140930635
:1012500000080D46C145130505C097000000E78052
:10126000405797700000E780C0F397600000E78068
:10127000C058014597100000E7802097054597402A
:101280000000E780A00B97400000E780800D01453B
:1012900097400000E7802053371600080547930663
:1012A000007E13068694A945294597400000E780F3
:1012B000006B97400000E780808701459730000071
:1012C000E780C06B054597600000E7804041054519
:1012D00097600000E78020A997000000E780404B5E
:1012E000371500081305C59597600000E780003D9D
:1012F000B70500089385852B0546881097200000C8
:10130000E78080FD370400202ACE2C081305C44D49
:1013100097600000E780E0FA6304051037150008C5
:101320001305C59697600000E78040391305400615
:1013300097300000E780A05781440149B709002099
:10134000371A0008B71A0008371B0008974000003A
:10135000E78000D983A7490C85046359F0002C0865
:101360001305C44D97700000E780808297700000DD
:10137000E780E0D261DD97700000E78040D797708A
:101380000000E78060DD05099307803E6314F906DD
:10139000480897600000E780205015CDE24585CDD4
:1013A0001305C44D97500000E780807E19C51305D2
:1013B0000B9897600000E7806030E2451305C44D4C
:1013C00097600000E780E0002DC113858A9997603F
:1013D0000000E780A02E93D584400145977000005F
:1013E000E780E0DAA685054597700000E78020DAFF
:1013F0008144014997700000E780C0DD634A05021F
:101400001C0D0A053E95832505D918089306C44D81
:101410003008280002C697500000E780E0E03DB7A2
:101420003715000813058597F5BD13054A9A45B78A
:101430006C00280097500000E78080E501BF411153
:10144000B727014006C693870740630BF500B737FF
:101450000140938707806303F502B2404101828017
:101460001305903097000000E7806044130590302A
:10147000B2404101170300006700E3441305A030A8
:1014800097000000E780A0421305A030D5B7B7272A
:10149000014003A74740B706F1FFFD16758F23A251
:1014A000E74003A74740598D23A2A740828093F7C6
:1014B000051013F7054089890DC289C75C4193E780
:1014C00007105CC109C75C4193E707405CC189C54F
:1014D0001C4593E727001CC5828089C75C4193F7B0
:1014E000F7EF5CC109C75C4193F7F7BF5CC1EDD56D
:1014F0001C45F59BCDB71C4599C5056713070780AB
:10150000D98F1CC582807D771307F77FF98FD5BFF0
:101510001C45858B89E71C4593E717001CC5828015
:101520001C451307850093E787001CC51C43A18B4E
:10153000F5FF1C4593E747001CC51C43918BF5FF45
:1015400082803727014083278740B7068000D58FE8
:101550002324F740828085476386F50089476382AC
:10156000F50282805C55370710FF7D17F98F5CD537
:101570005C557D1652063707F000798E5D8E50D58A
:1015800082801C5D3707D0FF7D17F98F1CDD1C5D45
:101590007D16520637073000798E5D8E10DD828011
:1015A00015476363B704B385E50203284503FD4788
:1015B000B397B70093C7F7FFB3F70701B315B600AA
:1015C000DD8D4CD9A54763E9C7068D473306F60282
:1015D0000C491D473317C7001347F7FF6D8F33962C
:1015E000C600598E10C98280AD4763E3B702E91582
:1015F000B385E50203280503FD47B397B70093C7FA
:10160000F7FFB3F70701B315B600DD8D0CD95DBF49
:10161000BD47E3E9B7FAD115B385E5020328C50252
:10162000FD47B397B70093C7F7FFB3F70701B315AB
:10163000B600DD8D4CD579B7C54763E1C7028D474C
:1016400059163306F60258459D47B397C70093C70E
:10165000F7FFF98F3396C600D18F5CC582801C5D81
:101660007D4703288503D1838D8BB385B740ED5724
:10167000B385F502A547BD053317B7001347F7FF3C
:1016800033770701B315B600D98D0CDD63E1C702CE
:101690000D473306E6021C491D473317C7001347A1
:1016A000F7FF7D8F3396C600598E10C98280C547DB
:1016B00063E1C7028D4759163306F60258459D4728
:1016C000B397C70093C7F7FFF98F3396C600D18F42
:1016D0005CC5828085476386F5008947638DF50088
:1016E00082801445B705F2FFFD15ED8E14C518452F
:1016F000518F18C582801845E576FD16758F18C57F
:101700001C45D18F1CC5828093F71500898909CEAD
:1017100091C71C4537071000D98F1CC589C51C45CA
:101720002167D98F1CC5828099C71C453707F0FFF8
:101730007D17F98F1CC5E5D91C4561777D17F98F99
:10174000D5B793F7150091C71C4537074000D98FCF
:101750001CC5898991C51C4537072000D98F1CC538
:101760008280684542054181828008416D8D333514
:10177000A0008280411106C697000000E780601635
:10178000B24041011703000067008316F36704307D
:101790008280171300006700A3EA011106CE22CC55
:1017A00032C42A842EC697100000E78020E7B24595
:1017B000228597100000E78000EB224622856244D4
:1017C000F240B285056117130000670043EF93F7FD
:1017D000050193F8F50099C3B3E8C8008147054EA9
:1017E000BD4E130F8002930F800421433316FE0079
:1017F000758E1DC213972700832205003398EE00D3
:101800001348F8FF337858003397E800336707012F
:101810006399E50550C918C18507E39967FC054E32
:10182000BD4E130F8002930F800441433316FE0018
:10183000758E05C61397270001178322450033983C
:10184000EE001348F8FF337858003397E800336709
:101850000701639CE50150C958C18507E39867FCFF
:101860008280E39AF5FB10C97DB7E397F5FF10C9B5
:10187000E5B70CC982804CC9828048456D8D3335EF
:10188000A0008280377700401C4393E707101CC3F9
:101890008280B7170240135765003E97144385476F
:1018A000B397A700D58F1CC38280B7170240135788
:1018B00065003E9714438547B397A700D58F1CC397
:1018C0008280B7170240135765003E97144385473F
:1018D000B397A70093C7F7FFF58F1CC38280371714
:1018E00002401C53C166D58F1CD38280B7160240BC
:1018F0009C5241777D17F98F9CD28280B7170240A6
:10190000DC433747FFEF7D17F98F1547630EE5007E
:101910006369A7000D476370A702371702405CC3D5
:1019200082801D47E31BE5FE3A053177798D5D8D99
:10193000B707001011A03A05C98FC5B73717024085
:101940001C5393F7F7CF5D8D08D382801357650042
:10195000B71702403E971C4333D5A7000589828004
:10196000411106C622C426C2E9476307F50E63EF9C
:10197000A700C1476304F504E1476302F50C59C1B0
:101980000145B24022449244410182809307058080
:10199000A1CB8567138707906302E508F147E31140
:1019A000F5FE370410007D14754597000000E780B0
:1019B00020FA19E17D146DF8754521A841647D1464
:1019C000454597000000E780A0F819E17D146DF807
:1019D000454597000000E780A0F73335A00055B7D4
:1019E0003704000485647D14938414802685970051
:1019F0000000E780E0F519E17D146DF80565130539
:101A00001580C1BF13040050054597000000E78012
:101A100020F419E17D146DF8054565BF3704100009
:101A20007D1493841790268597000000E78040F28C
:101A300019E17D146DF805651305159059BF37043C
:101A400010007D14654597000000E78060F019E103
:101A50007D146DF86545B5BF370410007D146D45E4
:101A600097000000E780C0EE19E17D146DF86D4528
:101A70008DB7B7170240135765003E97144385474B
:101A8000B397A700D58F1CC382807971B705000872
:101A900022D441462A8493850528080806D69780D3
:101AA0000000E7808066B70703049387172002C011
:101AB0003EC202C43EC6371702405C438946898352
:101AC0008D8B6397D70E5C439396F70063D606061B
:101AD0005C579396F70063DC06045C575857918374
:101AE0002183BD8B3D8B938617000907C547631380
:101AF000F7005147B7177A0093870720B3D7D7026B
:101B0000B387E7023717024058573D8B050733D795
:101B1000E702B7160240DC42D442C983139626007E
:101B2000BD8B6350060293E7070185070DA0B71729
:101B30007A0093870720F9B7B7173D0013870790FE
:101B4000C9BFBD46E383D7FE8907638DD704B3873A
:101B5000E702B7160240D842101011833D8B32972E
:101B6000034507FFD84233D5A70021831D8B329749
:101B7000034607FED84214102D831D8B36978546E9
:101B8000034787FE630CD40005CC89476307F40242
:101B90008D473355E5006303F4000145B2502254EC
:101BA000456182809947B307F7020583BA9755B715
:101BB000B7177A009387072069BF3355C500F9BF6F
:101BC0003E85E9BF373700408327478093E7070109
:101BD0002322F78082803737004083274780BD9BD0
:101BE0002322F7808280011106CE2AC697000000CA
:101BF000E78080FD3245B7370040F24013570501BA
:101C0000420523ACE780418123AEA780056117031D
:101C10000000670083FC011106CE2AC69700000071
:101C2000E78080FA324537370040F240935705018C
:101C3000BD8B42052324F78041812326A7800561BF
:101C400017030000670063F9373700408327478098
:101C500093F70702E5DF828037370040832747800C
:101C6000DD9B2322F78083274780A18BEDDF8280D5
:101C7000B737004083A78781B736004003A5C681E8
:101C800003A786816395E700C2075D8D8280BA87CE
:101C9000F5B7B737004003A747801345F5FF798DA7
:101CA00023A2A7808280232005002322050023246D
:101CB000050023260500232A0500232C0500828029
:101CC0001C410D6713070704D4417D8F9C41D58FBC
:101CD0009445D58FD445D58F9449D58FD449D58F88
:101CE000944DD58FD98F1CC15C4D7D771307F77F3D
:101CF000F98F5CCD82801C4193E707041CC1828070
:101D00004CC5828048454205418182801C4109675B
:101D1000D98F1CC10CC9828008456D8D3335A00058
:101D200082804111B717004006C6138707C0630EB3
:101D3000E5086367A702370700409306074063047E
:101D4000D506938707806309F5066312E50A130534
:101D5000004097000000E78080B51305004035A8DB
:101D600013870740630CE50637370140130707C0A8
:101D7000630DE500631DF506130540409700000064
:101D8000E780E0B21305404009A81305B030970082
:101D90000000E780C0B11305B030B2404101170325
:101DA0000000670043B21305104097000000E78071
:101DB00000B013051040D5B7130520409700000070
:101DC000E780E0AE13052040C9BF130530409700FF
:101DD0000000E780C0AD13053040C1B71305504087
:101DE00097000000E780A0AC130550407DB7B240DB
:101DF00041018280C167FD172320050023120500E1
:101E00001CC52316050023070500828083D7050023
:101E100003D745009376F5BF1CD5B73701409387AC
:101E200007C0418B630AF500FD779387F73FE98F81
:101E3000370600406390C7061C4193F7F7F81CC1B2
:101E400083D72500104193F70706D18F1CC11C4191
:101E50005D8F18C19C455CD5B71700406387F602BB
:101E60001C4193F7F7CF1CC183D7C500184193F7E6
:101E70000730D98F1CC1B7370140138707C06316DD
:101E8000E50003C7E50023A8E7C25C4993E7170014
:101E90005CC982801C41BD9B55BF1C4193E7170064
:101EA0001CC182801C4193E707081CC1828023105B
:101EB0000500231105002312050023130500231438
:101EC00005002315050082808547638EF50881C9CA
:101ED00089476389F5128D476387F51C82801C5101
:101EE000F99B1CD1185183570600D98F1CD11C5166
:101EF000F59B1CD1185183574600D98F1CD1B73799
:101F00000140138707C0631CE50418516D9B18D16D
:101F1000145103572600558F18D118515D9B18D1C5
:101F2000145103576600558F18D103A747C0137784
:101F3000F7EF23A2E7C083A647C003578600558F5B
:101F400023A2E7C003A747C01377F7DF23A2E7C0A8
:101F500083A647C00357A600558F23A2E7C01C4D98
:101F6000F19B1CCD82801C51BD9B1CD18357060068
:101F700018519207D98F1CD11C5193F7F7FD1CD132
:101F80008357460018519207D98F1CD1B7370140AB
:101F9000138707C06314E50618511377F7FB18D1B0
:101FA0000357260014511207558F18D11851137773
:101FB000F7F718D10357660014511207558F18D13F
:101FC00003A747C01377F7BF23A2E7C003578600D4
:101FD00083A647C00A07558F23A2E7C003A747C0BF
:101FE000FD769386F67F758F23A2E7C00357A60080
:101FF00083A647C00A07558F23A2E7C01C4D93F75D
:10200000F7CF85B71C5193F7F7EF1CD18357060024
:102010001851A207D98F1CD11C5193F7F7DF1CD19F
:10202000835746001851A207D98F1CD1B7370140FA
:10203000138707C06315E50618511377F7BF18D14A
:102040000357260014512207558F18D11851FD76D9
:102050009385F67F6D8F18D1035766000C51FD16DE
:1020600022074D8F18D103A747C0F98E23A2D7C0EE
:102070000357860083A647C01207558F23A2E7C0E7
:1020800003A747C0F976FD16758F23A2E7C0035753
:10209000A60083A647C01207558F23A2E7C05C4D58
:1020A000F19B5CCD82801C517D777D17F98F1CD10F
:1020B000835706001851B207D98F1CD11C5179776C
:1020C0007D17F98F1CD1835746001851B207D98F5D
:1020D0001CD1B7370140138707C06311E50203A77E
:1020E00047C0F176FD16758F23A2E7C0035786001F
:1020F00083A647C01A07558F23A2E7C05C4D93F70C
:10210000F7CF45B785476382F50281C98947638662
:10211000F5028D47638BF50282801C4D93F7F7F82B
:102120001CCD1C4D5D8E10CD82801C4D65777D17BA
:10213000F98F1CCD1C4D2206F5B75C4D93F7F7F8CF
:102140005CCD5C4D5D8E50CD82805C4D65777D179A
:10215000F98F5CCD5C4D2206F5B78547638CF500A1
:1021600081C98947638AF5008D476389F5008280BC
:1021700050D9828010DD828050DD828030C1828023
:1021800085476381F50281C989476386F5028D47DA
:10219000638AF50282801C4DDD9B1CCD1C4D5D8E3B
:1021A00010CD82801C4D7D771307F77FF98F1CCDF2
:1021B0001C4D2206EDB75C4DDD9B5CCD5C4D5D8E0C
:1021C00050CD82805C4D7D771307F77FF98F5CCD12
:1021D0005C4D2206EDB74111B757004006C6138784
:1021E00007C06309E506636FA70037470040130780
:1021F0000740630FE502938707806304F504B2404C
:10220000410182806301F506B7470140938707804B
:10221000E317F5FE1305E03097F0FFFFE780206934
:102220001305E030B240410117F3FFFF6700A369D7
:102230001305104197F0FFFFE78060671305104119
:10224000D5B71305204197F0FFFFE78040661305DF
:102250002041C9BF1305304197F0FFFFE78020659B
:1022600013053041C1B71305404197F0FFFFE780E8
:102270000064130540417DB74111B757004022C4A7
:1022800026C206C6138707C02A84AE84630FE50002
:10229000636FA70037470040130707406307E50057
:1022A0009387078001456312F402094519A8E30EDC
:1022B000F5FEB74701409387078001456317F40097
:1022C0000D4597F0FFFFE780807C93D71400AA9715
:1022D000B3D79702B2409244C207C1831CC42244C0
:1022E000410182805C4593F7F79F5CC55C45DD8DBD
:1022F0004CC582805C457D777D17F98F5CC55C4558
:10230000DD8D4CC582801C4975777D17F98F1CC9FE
:102310001C49DD8D0CC982805C450967D98F5CC57D
:1023200082805C45DD9BDD8D4CC582805C45ED9BEC
:10233000DD8D4CC5828093F5F51F4CC182804841EC
:102340001375F51F82805C4993F7F7EFDD8D4CC95B
:1023500082805C4993F7F7DFDD8D4CC9828093D78B
:10236000650093F7F73F3E9508413355B500058961
:10237000828093D7650093F7F73F3E9518418547D4
:10238000B397B700D98F1CC1828013D7650013772C
:10239000F73F3A9518418547B397B70093C7F7FFC2
:1023A000F98F1CC1828013D765001377F73F2A97F6
:1023B000144313D765012A97184313D505018547A0
:1023C0003395A700798D11C53395B700758D3335D9
:1023D000A0008280B71702409843B706FFE0B1061D
:1023E0001367170098C3D843758FD8C39843B706AF
:1023F000F7FEFD16758F98C39843B706FCFFFD16D0
:10240000758F98C3D843B70601DFFD16758FD8C303
:1024100023A607029843B706F7EAFD16758F98C3FF
:102420003707FF0098C794434167D98E94C3930739
:10243000F7FF3717024014431396E6006344060083
:10244000FD17F5FBB717024098439316E70063C3E7
:10245000060001A0D843B706C4DFFD16D8C3D84391
:10246000D8C3D84313670740D8C3D843758FD8C3A0
:10247000D843B7062920558FD8C3D857BD76758F56
:10248000D8D7D857C166938616F1558FD8D79843B9
:10249000B7060004558F98C3B717024098439316A8
:1024A0004700E3DD06FE9843B7060010558F98C33A
:1024B000B7170240984393162700E3DD06FE9843C2
:1024C000B7060001558F98C3B7170240984393167B
:1024D0006700E3DD06FED843719BD8C3D84313677A
:1024E0002700D8C3371702405C43A18BF5DF8280F9
:1024F0007971B705000822D47D462A849385052981
:102500000A8506D697800000E78020C079468A8534
:10251000094597800000E780400FA2850945970094
:102520000000E780C004B705000805469385052C28
:10253000094597800000E780400D01A03707002083
:10254000130747081C43B7260020938606CE3E9506
:10255000636BD500B77600209386060063E5A6007E
:1025600008C33E858280FD57EDBF79714ECEAE899E
:10257000B705000809469385052B22D426D24AD0F8
:1025800052CC56CA06D62A89714497800000E7804B
:10259000C0073D4AA54AF154B3178A00B3F7370183
:1025A000B3D7870093F7F70F63ECFA02938707031B
:1025B00093F7F70F05469305F1004A857114A307B9
:1025C000F10097800000E7804004E31794FCB250CC
:1025D000225492540259F249624AD24A4561828099
:1025E00093877703F1B7B70700D1D8438843CC432B
:1025F000E39DE5FE8280B70700D223800700A38514
:1026000007001205B71700D23E9563E3A70082804A
:1026100023A00700C107D5BFB71700D285070A0559
:102620003E9585472300F5008280B7078034938765
:1026300007403E950A05230005008280370700D237
:10264000834707000605798993F7170E5D8D2300F0
:10265000A7008280B70700D203C5070005813D8926
:102660008280411122C426C206C62A84AE84970005
:102670000000E78060FE9147114763E3A7002A87C7
:10268000371500D20A040D0522958347050093767D
:10269000F70FA145B397E70093F7F70F958DB39424
:1026A000B400B3D7E740C58F93F7F70F2300F500C9
:1026B000B2402244924441018280011122CC2EC6B4
:1026C00006CE2A8497000000E78000F98D478145F7
:1026D00063E9A702371700D20A040D072297834740
:1026E0000700B245A1463385A6409205B3D7A7405F
:1026F00093F5F50FB397A700CD8F93F7F70F23004E
:10270000F700F24062442E8505618280F327503045
:1027100093F707FC93E73700739057308280B71721
:1027200000D289070A053E958347050093E7170005
:102730002300F5008280B7050008411115469385F6
:10274000452B054506C697800000E78000EC05454F
:1027500097000000E78000DA41119347F5FF22C49B
:1027600006C6139747012A8409E797000000E7800F
:10277000C0FCB705000815469385C52B0545978015
:102780000000E78080E8228597000000E78080D67F
:10279000411106C697000000E78000C413057005CC
:1027A00097000000E78060E597000000E78040F6B2
:1027B000B240410117E3FFFF670023A982808347EE
:1027C000350003472500A207D98F03471500A2074C
:1027D00003450500D98FA2075D8D828093D78500C0
:1027E0002300B500A300F50093D70501E181230183
:1027F000F500A301B5008280AA872A968507850582
:1028000003C5F7FF03C7F5FF198D6383C7007DD5A7
:1028100082805849F915791763F9E5008357A500B7
:102820000855B387B7023E958280014582801C41DE
:102830008DC33E87930500021306A0030507834658
:10284000F7FF63F2D502E39BC6FE9386270063047D
:10285000D700FD5711A803C6070093060003FD57D4
:102860006314D60018C181473E85828001ED8147FF
:1028700025459CC1828025458147F24062449CC128
:10288000056182801C41011122CC06CE2A84E5D745
:1028900003C707006DD38356450003D76700E39C49
:1028A000E6FC03C517002EC697200000E780E0B8BD
:1028B0000589B24569F11C40C9B781473387F500E6
:1028C000834607003307F50085072300D700E31789
:1028D000F6FE828083C7B50103C7A501A207D98F81
:1028E0000D47631AE50003C7550183C6450122075A
:1028F000558F4207D98F3E858280411122C426C25E
:102900004AC006C61309050350552A84034515001D
:102910008546CA8597200000E78080BD85440DE983
:1029200050541C50184CA3010400B307F640AA846D
:1029300063F0E702834624008947639BF600034562
:10294000140085463A96CA8597200000E78040BA71
:10295000B2402244268502499244410182805C555E
:102960006384B704411122C426C206C683473500DA
:102970002A84AE8485E303451400854626869305A4
:10298000040397200000E78080AC19C10545FD5481
:1029900044D431A097000000E78060F669DDB240C2
:1029A000224492444101828001458280411122C427
:1029B00006C6FD575CD5A30105002A8497000000D8
:1029C000E78020FA91473DE50347F4228347E4225C
:1029D000ED7622075D8F42074187938656A58D4786
:1029E000631AD704834704031307B00E6389E70013
:1029F000E10713F7F70F8546894763EDE602B70550
:102A000000080D469385452C1305640697000000C9
:102A1000E780C0DE814719CDB705000815469385CC
:102A2000852C1305240897000000E78020DDB337CC
:102A3000A0008607B24022443E8541018280397160
:102A40004AD806DE22DC26DA4ED652D456D25AD0E6
:102A500023A0050032892EC697000000E78060DDC4
:102A6000AD4763420504370700209317250013077D
:102A70008709BA978043AA84B14715C4B245137930
:102A8000E90F80C18347040095CB034514009720CC
:102A90000000E780809A937715008DE363050900B5
:102AA000118911C1A947F2506254D2544259B25906
:102AB000225A925A025B3E852161828013F5F40FFF
:102AC00023000400A300A40097100000E780806E9C
:102AD000137715008D4761FB63040900118979F1B3
:102AE0008145228597000000E78080EC8947631FBD
:102AF000F50404081309641F130A6423A689834795
:102B0000C9FF014591C74A8597000000E78060CB67
:102B100023A0A90041099109E3132AFF13890401A5
:102B2000854903AA04000D45630A0A00D28522855F
:102B300097000000E780C0E763F3A9029104E31265
:102B400099FE11478547631AE500B1BF11478547D4
:102B5000E30BE5F4014A63F4A700B547A9B783473F
:102B6000C4030347B403A207D98FC207C187130761
:102B70000020E394E7FE8349740483476404A209B8
:102B8000B3E9F900639909001305440597000000B3
:102B9000E78020C3AA8983440404232C3401054719
:102BA0009387F4FF2301940093F7F70FE367F7FA95
:102BB0000349D40393170901C1832315F400D1DF1E
:102BC0009307F9FFB3F72701C9FB83472404834A1E
:102BD0001404A207B3E75701939A070193DA0A4155
:102BE000139B0A01135B0B01231464019377FB0011
:102BF000ADF7034544048347340422055D8D19E590
:102C00001305040597000000E780A0BB8347F40389
:102C10000347E403A207D98FA9D3B386340313571C
:102C20004B003E973697E36AE5F2198DB3542503BE
:102C3000E36525F3370600105516E36096F241660A
:102C40005516637996120D4952978904D29718D474
:102C500044C8232E44011CD00D47631EE90E834750
:102C6000B4050347A405A207D98FB3E7FA00C2074A
:102C7000C187E39407EE1305C40597000000E780C1
:102C800040B448D08A049384F41FA580E3E799EC0C
:102C9000FD571CC85CC4930700F82302F4008D475D
:102CA000631AF9088347140603470406A207D98F5D
:102CB000C207C1870547639FE70693051A0022856F
:102CC00097000000E780E0C935E58347F422034719
:102CD000E42223020400A207D98FC2076D77C187BF
:102CE000130757A56398E704130504039700000032
:102CF000E78020ADB757614193872725631CF50214
:102D00001305442197000000E780A0ABB77741612D
:102D1000938727276310F50213058421970000008D
:102D2000E78020AA08C81305C42197000000E780A7
:102D300040A948C4370700201307C7098357070075
:102D4000230024018507C207C1832310F700231342
:102D5000F400814789BBE3020BE0B6975CD089475A
:102D60006314F900860405B73387E4028588058378
:102D7000BA9411BF05695519333999000509E9B5A8
:102D800001114EC652C406CE22CC26CA4AC856C22B
:102D90005AC0054A89496374BA0A5C492A89894933
:102DA00063FFF508834705000947B2842E84638AD0
:102DB000E70A0D476380E70E6393470913DA1500AE
:102DC0001C512E9A93559A00BE9597000000E780FB
:102DD00040B9AA892DE5930A0903130B1A00058847
:102DE000137AFA1F569A93F7F40F09CC83470A0017
:102DF0008566C11613F7F70093974400F58FD98FB6
:102E000093F7F70F2300FA008547A301F900832702
:102E1000090293559B004A85BE9597000000E78004
:102E200040B4AA8909ED137BFB1FDA9A05C491808F
:102E300093F4F40F23809A008547A301F900F24030
:102E400062444E85D2444249B249224A924A024BD8
:102E50000561828083C70A00A180BD88C19BDD8C8B
:102E6000D1BF1C51A181BE9597000000E78060AFE3
:102E7000AA8971F50604930709031374E41F3E94AD
:102E800023009400C204C180A180A3009400A30188
:102E9000490175B71C519D81BE9597000000E780E0
:102EA00040ACAA8949FD0A04930709031374C41F9F
:102EB0003E94228597000000E780A0909204B70519
:102EC00000F09180E98DC58D228597000000E78094
:102ED000209175BF854763F7B70E5849011122CC81
:102EE00006CE26CA4AC84EC62A8463FAE5020347BC
:102EF00005008946AE84630CD7068D46630ED7085D
:102F0000631FF70013D915001C512E999355990092
:102F1000BE9597000000E780C0A411C9FD57F2409C
:102F20006244D2444249B2493E85056182801C50C8
:102F30009309190093D599001379F91F2299BE9529
:102F400022850349090397000000E78080A179F5F5
:102F500093F9F91F4E94834704038588A207B3E7CA
:102F6000270199C0918365BFD207D1834DBF1C5102
:102F7000A181BE9597000000E780A09E45F18604E0
:102F80001304040393F4E41F2694834714000347B7
:102F90000400A207D98F61B71C519D81BE9597008F
:102FA0000000E780009C3DF91395240013040403FE
:102FB0001375C51F229597000000E7808080931746
:102FC00045004DB785473E858280011126CA4EC611
:102FD00052C406CE22CC4AC856C25AC02A8AAE89EA
:102FE000044191E903A9C40063050900DC4863605A
:102FF000F90405492DA8268597000000E780C0ED5B
:1030000085472A8463EEA70005442285F240624486
:10301000D2444249B249224A924A024B0561828017
:10302000FD576303F50CDC484E89E360F5FE9C48D0
:1030300099E30144D9BF631D3903DC481304190027
:103040006363F400094403250A00A2859700000089
:10305000E78080E80547E309E5FAFD576306F508D0
:1030600029C1DC446376F700D84863F3E7003E8962
:103070004A84854A7D5BDC4805046365F400E3FA15
:103080002AFB094403250A00A28597000000E78077
:10309000A0E409C9E30A55F763086505E31D24FDAB
:1030A00049BF79D47D56A285268597000000E78028
:1030B00060CD05E9639F0900D8489C48C0C47917D2
:1030C0006376F70283C7440093E717002382F40076
:1030D0002DBF2286CE85268597000000E78080CA16
:1030E00061DD8547E312F5F27D5405B7FD179CC8F5
:1030F000D1BF797152CC032A050122D406D626D23B
:103100004AD04ECE56CA5AC85EC6130A0A02B7073C
:10311000200000416364FA00232C0500184D9147FC
:1031200005C7137BFA1FAE8AAA84631D0B0C4C499A
:10313000050718CD95E50357840093575A0063E3BC
:10314000E70C23AC04009147B25022549254025928
:10315000F249624AD24A424BB24B3E854561828077
:103160008359A40093579A00FD19B3F9F900639BA2
:103170000908228597000000E78000D6854B2A8940
:1031800063E4AB008947C9B7FD576314F500854771
:1031900065BF5C48636FF504E3850AFACC48268571
:1031A00097000000E780A0E22A899D4751DDE30BEC
:1031B00075FDFD57E30DF5FC83473400A1EFCA858B
:1031C000228597F0FFFFE7800065930A0403AA8B2E
:1031D00048D413070423D6878507A38F07FEE39DF2
:1031E000E7FE8357A40063EEF9028357A400E3903F
:1031F000F9FA23AA2401CA85228597F0FFFFE78008
:10320000806188CC130404035A9423A84401C0CCE1
:1032100081471DBF228597F0FFFFE780406E25F9AB
:1032200079BF03451400854633863B01D685971048
:103230000000E780E02B55F9850965B701114AC800
:103240000329850022CC26CA06CE4EC652C42328A6
:103250000500AA840041631109040347040089475B
:1032600063F4E7005C5085EB8357840091EB0945DC
:10327000F2406244D2444249B249224A0561828006
:103280005C509CCC9C4C23AA2401F5D3130404036A
:10329000C0CC0145F1BF3E898357A400FD59054AC2
:1032A00085E38840CA8597000000E780E0C22A894C
:1032B00063003503E37DAAFA5C48E364F5FE45BF8D
:1032C000CA85228597F0FFFFE780E05488CC5DBF78
:1032D000054579BF79712AC6680806D62EC432C260
:1032E0002ECE97F0FFFFE780C05463410504B70777
:1032F0000020138787090A052A97184393878709AF
:10330000124619C323000700324719C323000700E0
:10331000AA9798C3014501CA01466C00280097F09E
:10332000FFFFE7800072B250456182802D45E5BF06
:103330001971D2D486DEA2DCA6DACAD8CED6D6D20D
:10334000DAD0DECEE2CCE6CAEAC8EEC62EC6254A00
:10335000630A054A9379F6033289AA844E860C08DB
:10336000680097F0FFFFE780C06D2A8A2A84631BFC
:103370000530C24A324D9306F00256CA1307C00503
:1033800083470D00638DD70E638BE70E02CE034794
:103390000D00FD4763F7E70E130CF101130B00025C
:1033A000930BF002B70C00085C08238067038507C5
:1033B000E31DFCFE01470146A1451305C0051308A6
:1033C000E002AD481303D007654E930EF003130FD0
:1033D000E007B307CD0083C70700930616006370AC
:1033E000FB02638477016397A71A9305C005330630
:1033F000DD0003460600630D7619630BB618369D93
:10340000630E0718834641031307500E6395E600C9
:103410001547230AE10211476373FB00014748087F
:10342000A30FE102D24D97000000E78060E12A84FB
:103430006316051EB2556E8597F0FFFFE780605258
:103440002A84631D051C4255834705006387071CBA
:103450008347B50013F7F703230DE100A18B89EB38
:103460002D464C1897F0FFFFE78040396308051A96
:103470008145480897000000E780E0C74DBF050D73
:1034800001B7930700F84808A30FF1029700000066
:10349000E78000DB2A846302051C9377C9016385FA
:1034A00007286305041E9147631EF41C480852490F
:1034B00097000000E780C0D82A846311051C930A96
:1034C000500EB2554A8597F0FFFFE78080492A8465
:1034D0006316051AC25783C7070063965719B2557A
:1034E0004A8597F0FFFFE780C0472A84631C0518D0
:1034F000C257138707028507A38F07FEE31DF7FE58
:1035000042552D464C1897F0FFFFE780403B85471A
:10351000A301F90093E98900C247425403C507009B
:10352000A28597F0FFFFE780203B2A8997100000D3
:10353000E780A08CAA851305E40097F0FFFFE780E1
:10354000202AC257130700028D46A385E700C25701
:103550004247238D0700A38D07000346070063162B
:10356000D600238A0700A38A0700C257238E0700CC
:10357000A38E0700238F0700A38F07008547A301B1
:10358000F7006300091CD24A63EF27110944DDA844
:103590008506B1BD638C072B6364B7001944F5BD84
:1035A000938FF70793FFFF0F6367F305EA9683CFC7
:1035B00006000906E3F4FEFF93F6FF07E360DFFE73
:1035C0009386F5FFE37CD7FC800093061700B302D7
:1035D000E400238AF2FEB687A2970907238AF7FF41
:1035E000B2863686FDB30506834F060063880F005A
:1035F000E39BF7FF65B713860C2DFDB71386F7F92C
:103600001376F60F6365CE00811793F7F70F9000DE
:103610003A96230AF6FE0507E9B711448347F103FA
:1036200009C81147E31BE4E6918BE39807E61544CC
:10363000ADB5918B9DE38347A101C18BEDDB925723
:1036400003C50A0093850A0393F7F71FBE9597F009
:10365000FFFFE78060282ACE81BB8307F103014486
:10366000E3DD07E225BFE38C07E6854548089700C0
:103670000000E78040A82A84E30505E4914763132E
:10368000F4001D4423A00400228AADAA8347A101AF
:10369000C58BE5FB937749006396071A1379890078
:1036A0006301090A95BD83A74A01E371F9EE832BF3
:1036B000C7024A84054CFD5C5245A2859700000074
:1036C000E78080812A8B21C5E30285ED6314950193
:1036D00005444DBFA2850146568597F0FFFFE78060
:1036E000606A2A8445F103A74A0183A70A01930669
:1036F000E7FF63FBD700850723A8FA0083C74A00CA
:1037000093E717002382FA005A84E367EBFA4245F5
:10371000DE857D1997F0FFFFE780A024C2472A8449
:1037200023A6270119CDB9BF31FC8347A10113F7A7
:103730000701631B07101379290063040900858BB7
:10374000A9F393F7890099C393E9090442444259C4
:10375000938A84025C5423A22403CA859CD0034527
:10376000040097F0FFFFE780201788C41305C90104
:1037700097F0FFFFE780E00483576400C8C480C06F
:103780002392F40023883401A388040023AE0400AC
:1037900023AA040013878422D6878507A38F07FEF8
:1037A000E39DE7FE93F90902638E090403A9C400AF
:1037B000630A09040354A4008C4423AA24012604A8
:1037C00085497D5B6360240701448CCCE31C04EADB
:1037D0009377F91F85CB4244228597F0FFFFE7805E
:1037E0008003E30505DA135999003306A900D0CC0C
:1037F000034514008546D68597100000E78020C554
:10380000E31805ECF65066545285D6544659B6591D
:10381000265A965A065BF64B664CD64C464DB64D2C
:103820000961828088403309894097F0FFFFE78073
:10383000A06AAA8563F6A900E31665F9054471B785
:10384000094461B721443DBD11442DBDE38815D520
:103850002147AD4579B31D71A2CCA6CAD2C4DAC046
:1038600086CECAC8CEC6D6C25EDE62DC66DA6AD84A
:103870006ED62E8A23A006006C082A8432C6368BA8
:1038800097F0FFFFE780C0FEAA8425E1834414017E
:10389000A9EC834704019D44858BA1CB44445C483B
:1038A00032469D8C63739600B284930B0020930A7A
:1038B0008402130CF01FFD5C8DC85C4813F7F71FE2
:1038C000631807127247035DA70013D797007D1D89
:1038D000337DED00631A0D048DEB0844854763EDDD
:1038E000A7028947A308F4008944F6406644268568
:1038F0004649D644B649264A964A064BF25B625C74
:10390000D25C425DB25D256182800C4C084097F02C
:10391000FFFFE780605CD9B7631795018547A3086F
:10392000F4008544D9B708CCF24D0C4C6E8597F065
:10393000FFFFE78040EE55D5B309AD0063779C06E5
:1039400083D7AD0013D9940033072D0163F4E7004A
:103950003389A74103C51D00CA864E86D2859710BC
:103960000000E780C0AE5DF98307040163D1070260
:10397000484CB309354163FC2901A6091306002010
:10398000D68533053A0197F0FFFFE78040F326091B
:1039900083270B00B38424414A9ACA972320FB0053
:1039A0005C483E99232A240101BF504C6300360530
:1039B0008307040163D1070203C51D008546D68530
:1039C00097100000E780C0B231F98347040193F7F4
:1039D000F7072308F400F24785464E8603C5170013
:1039E000D68597100000E78080A60DF9232E3401BC
:1039F0004C48268993F5F51FB387BB4063F39700C6
:103A00003E894A86D695528597F0FFFFE78020EBE6
:103A100041B71D71A2CCCAC8CEC6D2C4DAC086CE08
:103A2000A6CAD6C25EDE62DC66DA6AD86ED62E8A96
:103A300023A006006C082A843289368B97F0FFFF9A
:103A4000E78000E3AA8939E58349140163940904F6
:103A500083470401898B6380071C5C4833872701F7
:103A60006374F70013C9F7FF930B0020930A8402D5
:103A7000130CF01FFD5C39A20C4C228597F0FFFF60
:103A8000E780E054631605128347040193E70704B7
:103A90002308F400F64066444E85D6444649B649AC
:103AA000264A964A064BF25B625CD25C425DB25D8E
:103AB00025618280631795018547A308F400854935
:103AC000D1BF1C4408CC91E308C48307040163D32D
:103AD0000702F247504C854603C51700D68597105C
:103AE0000000E780E0A069F98347040193F7F70736
:103AF0002308F400F2470C4C3E853EC697F0FFFFCA
:103B0000E78060D14DC9338DAD00B247637A2C0B8D
:103B100003D7A70093549900B3869D006374D70020
:103B2000B304B74103C51700A6866A86D2859710ED
:103B30000000E780E09B49F14C4C338DA541637256
:103B40009D02260D13060020B305AA01568597F0A5
:103B5000FFFFE780C0D68347040193F7F7072308E8
:103B6000F400A60483270B0033099940269AA697F0
:103B70002320FB005C48BE945C4444C863F3970078
:103B8000A6875CC4E30209F05C4813F7F71F29EF2E
:103B90007247835DA70013D79700FD1DB3FDED00AD
:103BA000E3950DF2E39A07EC08448145E30705EC41
:103BB0008547E311F5F08947A308F4008949D9BD89
:103BC000584C6301A70354445848637DD70003C58C
:103BD000170085466A86D68597100000E780208703
:103BE000E31C05EC232EA4014848CA841375F51F75
:103BF000B387AB4063F32701BE842686D2855695F2
:103C000097F0FFFFE780A0CB8347040193E707F815
:103C10002308F40081BF9D49B5BD01116C0026CA7F
:103C200006CE22CC4AC8AA8497F0FFFFE78040C4A2
:103C3000AA876315051803C7040193760704638FE9
:103C400006166207618763560702B247D04C854665
:103C500003C517009385840297100000E780408910
:103C60008547631D051483C7040193F7F70723886D
:103C7000F40097000000E78040182A898C503245F4
:103C800097F0FFFFE780E0CDAA8763190512C050C7
:103C90008347B40093E70702A305F4009C449440D3
:103CA0001397070141832183A30DE400230DF40042
:103CB00083C606000D476398E600C183230AF4001B
:103CC000A183A30AF400CC441305C40197F0FFFFBD
:103CD000E78000B1CA851305640197F0FFFFE78014
:103CE00020B023090400A309040032440549A301BC
:103CF0002401228597F0FFFFE78060C0AA874DE985
:103D0000034704008D47631BF7088347440063970C
:103D100027091309040313070423CA878507A38F00
:103D200007FEE39DE7FE930750052307F422930760
:103D3000A0FAA307F4220C489307200513071004E8
:103D4000930620072308F402A308F4029307100641
:103D50002309F402A309E402230AD420A30AD420ED
:103D6000230BE420A30BF4201305842197F0FFFF1D
:103D7000E78000A74C441305C42197F0FFFFE780BC
:103D800020A6504C034514008546050650D4CA852C
:103D900097000000E780C07523020400034514006B
:103DA0000146814597100000E7800085B337A000E9
:103DB00003C704011377F7FB2388E400F240624451
:103DC000D24442493E8505618280011122CC06CE53
:103DD0002A8497000000E78080E411E96C002285C6
:103DE00097F0FFFFE780C0A819E123200400F2400C
:103DF00062440561828037070020130787088347E4
:103E0000270003453700D6074205C98F03456700E1
:103E1000C98F034547002E05C98F03455700160576
:103E2000C98F034507001305450466055D8D828033
:103E3000411122C43744004026C24AC006C6AA84A3
:103E40001309048089454A8597E0FFFFE78000ED6C
:103E500075D9A685130504803744004097E0FFFF1D
:103E6000E78040EA930404808545268597E0FFFFBC
:103E7000E780C0EA75D91305048097E0FFFFE7806B
:103E8000A0E8B2402244924402491375F50F410163
:103E900082804111054506C697100000E78020A1E9
:103EA00037150140916597E0FFFFE780C09CB24065
:103EB0001305F00F4101170300006700A3F73971E4
:103EC00026DA5AD05ECE62CC66CA6AC806DE22DC2A
:103ED0004AD84ED652D456D2AA8497E0FFFFE78044
:103EE000C070B707000803AB072E83AB472EAA8C20
:103EF0002E8D370C002097E0FFFFE780006F33091D
:103F0000954133352501B385A541898D1305F00F02
:103F10002EC697000000E780E0F19307F00F2A8497
:103F2000630FF504B2454A8597500000E780A0432F
:103F30002A8903250C08AE8997500000E780403D90
:103F40005A86DE8697400000E78000392A8A268557
:103F5000AE8A97500000E780A03B2A86AE86528545
:103F6000D68597500000E780C0952A86AE864A85A0
:103F7000CE8597500000E780808AE34E05F6130552
:103F800014F0F2506254D2544259B259225A925A01
:103F9000025BF24B624CD24C424D1335150021614D
:103FA0008280011191653715014006CE97E0FFFF31
:103FB000E780A08C1305F00F97000000E78080E7F2
:103FC0001305401F97000000E780A0EF2AC609E90B
:103FD00097000000E78020EC3245F24005618280C6
:103FE0000545E5BF41119317850122C426C206C6C7
:103FF000E1872A84AE8463DF0700814513057003DF
:1040000097000000E78040FE0547AA87636CA70A77
:104010001374F407B147631CF40813650404970094
:104020000000E78020E113D5840197000000E780BD
:1040300060E013D504011375F50F97000000E780C9
:1040400060DF13D584001375F50F97000000E7803B
:1040500060DE13F5F40F97000000E780A0DD130584
:10406000500919C4A14705456314F40013057008ED
:1040700097000000E78000DCB1476318F4001305E7
:10408000F00F97000000E780E0DA29441305F00FF5
:1040900097000000E78000DA131785016187AA877F
:1040A000635207027D141374F40F6DF021A897007A
:1040B0000000E78040DE97000000E780C0EE930735
:1040C000F00F21FDB240224492443E85410182809E
:1040D000411122C42A841305800C26C206C6AE8470
:1040E00097000000E78020731305F00F9700000091
:1040F000E78040D49307F00F631DF50097000000A0
:10410000E780007775F10145B240224492444101B5
:1041100082809307E00FE318F5FE8504A29413054F
:10412000F00F97000000E780E0D02300A400050412
:10413000E39784FE1305F00F97000000E78080CF1F
:104140001305F00F97000000E780C0CE05456DBF56
:10415000411122C426C24AC006C62A8901449304DA
:104160000020B307890003C507000504970000007D
:10417000E78040CCE31794FE1305F00F9700000092
:10418000E78040CB1305F00F97000000E78080CA5E
:104190001305F00F97000000E780C0C9B240224429
:1041A0007D896D15924402491335150041018280C5
:1041B0006311052879711305306006D622D426D202
:1041C0004AD097D0FFFFE780006D1305406097D07D
:1041D000FFFFE780406C1305E07097D0FFFFE7809A
:1041E000806B37140140130504C0A9660D46E145F4
:1041F00097D0FFFFE780E05D130504C091660D4690
:10420000914597D0FFFFE780C05C91660D46C145A0
:104210003715014097D0FFFFE780A05B9165371508
:10422000014097D0FFFFE7800065930740103EC232
:104230008D47B74400403ECC930700203EC84C0059
:1042400093070002138504803ECE02C402C602CA50
:1042500097E0FFFFE78000A79D451385048097E066
:10426000FFFFE780E0AA1385048097E0FFFFE78067
:10427000C0A8294597000000E7806063370400204C
:10428000130704098347070013040409898B99CB9A
:1042900003450700B2502254925402591375F50F8A
:1042A0004561828083A7048091653715014093F7AB
:1042B00077FC93E7870223A0F48097D0FFFFE78085
:1042C000C05BA944FD141305F00F93F4F40F97009D
:1042D0000000E78020B6FDF481450145970000000D
:1042E000E78080D085472A896313F5141305803E43
:1042F00097000000E78020529305A01A21459700FF
:104300000000E78060CE631E250D11491305F00FF4
:1043100097000000E78000B25C00A6972380A7000A
:104320008504E39524FF0347610085476311F71077
:10433000034771009307A00A631BF70E9700000064
:10434000E780005311C9B70500401305900A970094
:104350000000E78060C97DF197000000E7804051D0
:1043600079C581451305A00397000000E780C0C709
:104370005DED814411491305F00F97000000E780BF
:1043800060AB5C00A6972380A7008504E39524FF1B
:1043900083474100B14493F7070491E39144B70781
:1043A0000020238F970897000000E780C0AE0545E6
:1043B00097000000E780A04F854799CC3747004021
:1043C0008327078093F777FC93E787022320F78002
:1043D0008347040093F7E70F2300F400034504002C
:1043E00055BD81451305900A97000000E780C0BFC6
:1043F00085446365A90089441309900A9700000069
:10440000E780004701C981454A8597000000E780A1
:10441000A0BD6DF597000000E780804509C99305B0
:104420000020414597000000E78000BC2DD9814461
:10443000BDB70545828001E9B707002003C507091C
:104440001375F50F82800545828059ED411122C414
:1044500006C626C236841145B1CAB707002083C7F5
:1044600007090D45858BB9E3B707002083C7E70926
:10447000AE84B285A18B99E3931596008547631CA2
:10448000F402454597000000E78000B611E9930566
:104490000020268597000000E780C0C31334150074
:1044A00097000000E780209F33358000B24022440F
:1044B000924441018280494597000000E780C0B2E4
:1044C00065F193050020268597000000E78080C0F5
:1044D00009C57D14938404206DF48145314597000E
:1044E0000000E78060B06DBF114582806312051047
:1044F000011122CC06CE26CA36841145A9CAB707B7
:1045000000209387070903C707000D45058B21E3AA
:1045100083C707000945918B9DEBB707002083C730
:10452000E709AE8413F7870011E326060547631AEF
:10453000E404B285614597000000E780E0AA09CD58
:10454000054497000000E780009533358000F24075
:104550006244D244056182801305401F9700000029
:10456000E780209671DD1305E00F97000000E780DB
:10457000608C268597000000E780C0BD13341500CD
:10458000C9B7998B91CBA2851305700932C69700E4
:104590000000E78060A53246B285654597000000BF
:1045A000E78080A459FD1305401F97000000E780B5
:1045B00040910DC11305C00F97000000E780808770
:1045C000268597000000E780E0B809C57D14938434
:1045D000042071F81305401F97000000E780608EEB
:1045E00025D11305D00F97000000E780A08491BF6C
:1045F00011458280011126CA06CE22CC91440DE9D4
:10460000B707002083C707098D44858B95E385474D
:104610003284AE84638BF50295C18D476388F50AB9
:1046200091476383F516914497000000E780A086C8
:10463000F24062442685D2440561828097000000E2
:10464000E780609693341500C5B7814525459700EE
:104650000000E780609919C18544F9B7C1450A8512
:1046600097000000E78000A765D903460100834753
:10467000810083469100198203477100631E9600F2
:10468000A207B6974207B7063F00758F0507BA978E
:10469000AA071CC0814449BF0A079983BA970347F8
:1046A00061000566130606C02A07718FBA97034694
:1046B000A1000347510086061D823D8B3297998ADF
:1046C000369785076517B397E700E1B7B704002071
:1046D0009384E40983C704008145918BB1CB130512
:1046E000D00897000000E78020903DF51305F00FFB
:1046F00097F0FFFFE7800074C1450A85970000002E
:10470000E780409D31D993040003FD141305F00F99
:1047100093F4F40F97F0FFFFE780C071FDF4834737
:10472000A10013D74700C147B397E7001CC0EDBDF8
:10473000254597000000E780208B19FDC1450A85BB
:1047400097000000E780009901D903C70400834760
:10475000A1008346B100098B01CF0347D100860732
:1047600093F7E7079D82B697198385077D17A1BF49
:1047700013973600618B958289873697FD8B0507E5
:104780008507B307F70231B7B70400209384E40923
:1047900083C70400998BE38107EC0A86AD45970037
:1047A0000000E78060E5E31905EA8347010003475D
:1047B000A100998313770704D98FE38F07E883C794
:1047C00004000C404040A18B99E3A6052604130584
:1047D000000297000000E7802081E31F05E6A28524
:1047E0001305100297000000E7800080E31605E63D
:1047F00081451305600297F0FFFFE780E07EE31D2F
:1048000005E41D651305055397F0FFFFE780606B16
:1048100015BD411122C406C62A8497E0FFFFE78038
:10482000C0DCB70700209387070A88C3CCC303A85E
:10483000070083A84700B707002003A5070885677E
:10484000938707FA3355F502B7060020B2403305C7
:1048500085022244330605013335A60023A4C60A87
:10486000B307150123A6F60A41018280411106C64D
:1048700097E0FFFFE78060D7B70700209387070A1C
:1048800088C3CCC3B70600209843DC4303A6860A3E
:1048900083A6C60A63E7F60005456395D7006373F0
:1048A000E6000145B2404101828079714AD04ECE86
:1048B0005AC806D622D426D252CC56CA5EC662C484
:1048C00066C22A8B97E0FFFFE78020D2AA892E8953
:1048D00097E0FFFFE78060D1AA842E846394A9004B
:1048E000E308B9FEB707000803A9072E83A9472EDE
:1048F000B70B002097E0FFFFE78020CFAA87058D48
:10490000B3B7A700818D9D8D97500000E780A0A5CB
:104910002A8A03A50B08AE8A97500000E780409FC3
:104920004A86CE8697400000E780009B2A8C5A85F5
:10493000AE8C97500000E780A09D2A86AE866285E7
:10494000E68597400000E780C0F72A86AE8652854C
:10495000D68597400000E78080ECE34D05F8B25023
:10496000225492540259F249624AD24A424BB24B03
:10497000224C924C45618280411126C2AA841305C3
:10498000206006C622C497D0FFFFE780C0F0130561
:10499000906097D0FFFFE78000F00D4597D0FFFFB4
:1049A000E78000F637150140A94601468145130509
:1049B000058097D0FFFFE780C0E137240140130551
:1049C000044097D0FFFFE780C0A7014597D0FFFFC5
:1049D000E78020AC014689451305044097D0FFFFCE
:1049E000E78020AD0146930500101305044097D0E1
:1049F000FFFFE78000AC81451305044097D0FFFF1F
:104A0000E780A0AF054685451305044097D0FFFF1A
:104A1000E780A0B489460D4681451305044097D030
:104A2000FFFFE78020B837060E00854513050440D8
:104A300097D0FFFFE78040CA05468545130504402F
:104A400097D0FFFFE78080CC9DCC054693050040C2
:104A50001305044097D0FFFFE780A0A505468945D0
:104A60001305044097D0FFFFE78020AF97D0FFFFEA
:104A7000E78060AD9D46414681451305044097D0CF
:104A8000FFFFE78000BE372401401305044097D0A4
:104A9000FFFFE78020A81305044097D0FFFFE780C1
:104AA00060A8130504402244B24092448545410168
:104AB00017D3FFFF670023C9411126C2AA843745D7
:104AC000004022C413050580374400404AC006C692
:104AD0001309048097D0FFFFE780002389454A85AA
:104AE00097D0FFFFE780802375D9A6851305048042
:104AF0003744004097D0FFFFE780C0209304048034
:104B00008545268597D0FFFFE780402175D913059D
:104B1000048097D0FFFFE780201FB24022449244D8
:104B200002491375F50F41018280797113052060E8
:104B300006D622D426D297D0FFFFE780C0D5130532
:104B4000E07097D0FFFFE78000D51305306097D065
:104B5000FFFFE78040D4B714014013850480C146AD
:104B60000D46C14597D0FFFFE780A0C6138504C05E
:104B7000A9660D46E14597D0FFFFE78080C59166A5
:104B80000D46138504C0914597D0FFFFE78060C4B0
:104B9000C1451385048097D0FFFFE780C0CD480052
:104BA00097D0FFFFE7806010930740103EC28D470B
:104BB000374400403ECC930700204C003EC813050C
:104BC0000480930700023ECE02C402C602CA97D0F8
:104BD000FFFFE780200F1305048097D0FFFFE780D9
:104BE000C01183270480C1451385048093F777FCA7
:104BF00093E707022320F48097D0FFFFE780E0C708
:104C00001305000897000000E78040EB1305100D26
:104C100097000000E78080EA13850480C14597D0A3
:104C2000FFFFE78040C583270480B250925493F77A
:104C300077FC93E787002320F4802254456182802B
:104C4000011126CAB744004083A7048006CE22CCB7
:104C500093F777FC4AC84EC693E70702371901401D
:104C600023A0F480C1451305098097D0FFFFE7809A
:104C7000C0C0054597000000E78040E41305F00F31
:104C800097000000E78080E32A841305F00F970067
:104C90000000E780A0E2AA89054597000000E780B0
:104CA000403713050980C14597D0FFFFE780A0BCBE
:104CB00083A704801315840033653501F2406244F4
:104CC00093F777FC93E78700420523A0F4804181A6
:104CD000D2444249B2490581056182807971B707A2
:104CE00000084ECE83A9872EB707000862C403AC24
:104CF000C72EB707000852CC56CA03AA872F83AA2B
:104D0000C72FB70700085AC85EC603AB073083AB8E
:104D1000473022D426D206D64AD095441304000048
:104D200097000000E78000F297500000E78040FE07
:104D3000CE8597500000E780E0CFE28597500000D5
:104D4000E78040CF97500000E780A0065286D686C5
:104D500097400000E780A0FB5A86DE86973000006F
:104D6000E780805797500000E780800EAA85228553
:104D700097400000E78080752A84654905457D19C4
:104D800097000000E780E02897000000E7804035AA
:104D9000E31609FEFD14C9F4B707000883A5072F21
:104DA000228597500000E78080A3B250225492548D
:104DB0000259F249624AD24A424BB24B224C4561F7
:104DC0008280411122C406C626C24AC085472A8471
:104DD0006315F506894605463725014081451305CB
:104DE000054097C0FFFFE780E07B37250140854500
:104DF00013050540B724014097D0FFFFE780A0943A
:104E00001389044089454A8597D0FFFFE7802096A3
:104E100075D91385044097D0FFFFE780C0940547FC
:104E2000AA876312E402930770023345F502B24089
:104E3000224492440249410182808D47E317F5FAEA
:104E400089460D4651BF0D47E313E4FE0565130582
:104E5000459C1D8D635305000145A547F9B7011118
:104E600026CAB70400209384440B9C4022CC4AC835
:104E70004EC652C456C23709002006CE2A842E8A56
:104E8000B28AB6891309090B85EFB70700D2C84368
:104E90004E054D8188C097D0FFFFE780007697E0F0
:104EA000FFFFE780E08688400A0597500000E78012
:104EB00080242320A9000D4597D0FFFFE780A08D17
:104EC000228597D0FFFFE780807613F6FA0F93755F
:104ED000FA0F228597D0FFFFE780608C228597E04C
:104EE000FFFFE7800084228597D0FFFFE7800073F3
:104EF000832709000A04F2403E94232034016244CF
:104F0000D2444249B249224A924A056182803971AB
:104F10003ECCB707002083A7070B06DE16DCDC4F6C
:104F20001ADA1ED82AD62ED432D236D03ACE42CA77
:104F300046C872C676C47AC27EC08297F250E252E8
:104F40005253C2533255A255125682567247E24707
:104F50005248C248324EA24E124F824F2161730016
:104F6000203039713ECCB707002083A7070B06DE3F
:104F700016DC83A7070E1ADA1ED82AD62ED432D210
:104F800036D03ACE42CA46C872C676C47AC27EC00D
:104F90008297F250E2525253C2533255A2551256E2
:104FA00082567247E2475248C248324EA24E124FD2
:104FB000824F21617300203039713ECCB707002049
:104FC00083A7070B06DE16DC83A747111ADA1ED863
:104FD0002AD62ED432D236D03ACE42CA46C872C66B
:104FE00076C47AC27EC08297F250E2525253C253C4
:104FF0003255A255125682567247E2475248C2486D
:10500000324EA24E124F824F2161730020307971CF
:105010004AD04ECE5AC806D622D426D252CC56CA30
:105020005EC662C466C22A8B97D0FFFFE780E05B52
:10503000AA892E8997D0FFFFE780205BAA842E845F
:105040006394A900E308B9FEB707000803A9072E77
:1050500083A9472EB70B002097D0FFFFE780E058C9
:10506000AA87058DB3B7A700818D9D8D974000005D
:10507000E780602F2A8A03A50B08AE8A97400000BC
:10508000E78000294A86CE8697300000E780C0245A
:105090002A8C5A85AE8C97400000E78060272A86CC
:1050A000AE866285E68597400000E78080812A868B
:1050B000AE865285D68597300000E7804076E34D76
:1050C00005F8B250225492540259F249624AD24A27
:1050D000424BB24B224C924C45618280411122C41A
:1050E000B7070020370400200327C40B83A7070C51
:1050F00006C626C2630AF7083745004089451305EE
:10510000058097D0FFFFE78060C12DC58965371501
:10511000014097C0FFFFE78040761304C40B1440A2
:10512000B70700201387C70D8A0636971443130765
:10513000F00F9384C70DA165371501406351D70463
:1051400097C0FFFFE78020731C40374500401305E0
:105150000580138717008A07A69783C5070018C024
:1051600097D0FFFFE78000BA1C4013070010B3E799
:10517000E7021CC0B240224492444101828097C0A1
:10518000FFFFE780806FC9B72244B240924489652F
:1051900037150140410117C3FFFF6700C36D41117F
:1051A00022C426C206C6B70400203704002003A785
:1051B000C40B8327040C6317F700B24022449244C7
:1051C0004101828097000000E78080F1CDB7011196
:1051D00022CC26CA4AC806CE370900209304001004
:1051E000370400201306090C1C428326C40B1387C6
:1051F0001700336797026301D70293962700B7071A
:105200000020F24062449387C70DB69788C318C246
:10521000D2444249056182802AC697000000E78097
:1052200020EC3245C1B7411122C42A8421851305DF
:10523000051006C697000000E780A0F91375F40F6B
:105240002244B24013050510410117030000670016
:1052500043F8011122CC3704002026CAD957130481
:10526000840BAA841305A00206CE36C2A301F40063
:105270002EC632C497000000E780A0F50345240045
:10528000269597000000E78040FA22460345240057
:10529000329597000000E78040F91305B0029700AF
:1052A0000000E78000F3B245034534002E959700D7
:1052B0000000E78080F7034534009246369597005A
:1052C0000000E78080F66244F240D2441305C00239
:1052D0000561170300006700C3EF79718965371511
:1052E000014006D622D497C0FFFFE780C05848008F
:1052F00097D0FFFFE780609B930740103EC28D4729
:105300003ECC37440040930700203EC84C00A147E4
:10531000130504803ECE02C402C602CA97D0FFFF26
:10532000E780409A1305048097D0FFFFE780E09C58
:10533000B25022544561828009E9B707011A370744
:1053400000208507232CF70A82808547E31EF5FE9F
:10535000B70700183707002093871710E5B7B7077E
:10536000002003C7870B411122C406C61384870B94
:1053700011E7014597000000E78040FC130530600D
:1053800097C0FFFFE78020511305406097C0FFFFE3
:10539000E78060501305006097C0FFFFE780A04FD3
:1053A0001305E07097C0FFFFE780E04E371501401E
:1053B000A9660D46E145130505C097C0FFFFE780CC
:1053C0004041A9660D46C1453715014097C0FFFF12
:1053D000E780204097000000E78060F0A96537155E
:1053E000014097C0FFFFE780404997000000E78039
:1053F00040DB1305400697000000E78080C10545AB
:1054000097000000E780E0DC97000000E78060D9AB
:105410001305800797000000E780A0BF454597006F
:105420000000E78000DB97000000E78080D71305CD
:10543000400697000000E780C0BD834714001305B5
:10544000200299E31305100297000000E78060D85E
:105450001305100B97000000E780A0D7130550102C
:1054600097000000E780E0D61305A0139700000026
:10547000E78020D61305A01397000000E78060D5D1
:105480001305200B97000000E780A0D413055010EF
:1054900097000000E780E0D31305A01397000000F9
:1054A000E78020D31305A01397000000E78060D2A7
:1054B0001305300B97000000E780A0D113055010B2
:1054C00097000000E780E0D01305A01397000000CC
:1054D000E78020D01305A01397000000E78060CF7D
:1054E0001305501097000000E780A0CE1305A0130D
:1054F00097000000E780E0CD1305A013970000009F
:10550000E78020CD1305400B97000000E78060CCBA
:105510001305301097000000E780A0CB1305000CA6
:1055200097000000E780E0CA1305201697000000EE
:10553000E78020CA1305201097000000E78060C9AB
:105540001305401097000000E780A0C81305100C59
:1055500097000000E780E0C71305001C97000000DB
:10556000E78020C71305200C97000000E78060C685
:105570001305D01097000000E780A0C513050010A8
:1055800097000000E780E0C41305300C970000008E
:10559000E78020C41305D01897000000E78060C39F
:1055A0001305A01697000000E780A0C21305400C69
:1055B00097000000E780E0C11305D01897000000B5
:1055C000E78020C11305E01E97000000E78060C05F
:1055D0001305500C97000000E780A0BF1305E010F2
:1055E00097000000E780E0BE1305000E9700000062
:1055F000E78020BE1305001197000000E78060BD22
:105600001305E01097000000E780A0BC13052010F0
:1056100097000000E780E0BB130530109700000002
:10562000E78020BB1305E01097000000E78060BA18
:105630001305701097000000E780A0B91305201033
:1056400097000000E780E0B8130570109700000095
:10565000E78020B81305A01097000000E78060B72E
:105660001305201197000000E780A0B61305701203
:1056700097000000E780E0B5130570139700000065
:10568000E78020B51305001097000000E78060B4A4
:105690001305D01097000000E780A0B31305E010B9
:1056A00097000000E780E0B21305001197000000AA
:1056B000E78020B21305100E97000000E78060B16C
:1056C0001305001197000000E780A0B01305E0105B
:1056D00097000000E780E0AF13053010970000004E
:1056E000E78020AF1305301097000000E78060AE20
:1056F0001305F01097000000E780A0AD13056010BF
:1057000097000000E780E0AC130520109700000030
:10571000E78020AC1305801097000000E78060ABA5
:105720001305A01097000000E780A0AA1305301110
:1057300097000000E780E0A91305601297000000C1
:10574000E78020A91305601397000000E78060A898
:105750001305001097000000E780A0A71305D010E4
:1057600097000000E780E0A61305E0109700000016
:10577000E78020A61305001197000000E78060A5D0
:105780001305A00397000000E780A0A413055010A4
:1057900097000000E780E0A3130560039700000076
:1057A000E78020A31305801797000000E78060A220
:1057B0002244B24013059002410117030000670024
:1057C00043A141114AC09306F0092A891306F00942
:1057D0008145014526C206C622C49304000A9700EB
:1057E0000000E78040A71304000A4A857D14970053
:1057F0000000E78080A375F8FD14F5F4B240224460
:105800009244024941018280411122C4AE86328411
:105810002A8606C697000000E780E0A3228522447E
:10582000B240410117030000670023A0011122CC00
:105830004AC84EC652C456C206CE26CAAA892E846B
:10584000328A3689BA8A97000000E780C0A0637563
:105850008902F2406244D2444249B249224A924A01
:1058600005618280568597000000E780009C8504D2
:10587000E37A9AFE0504E1BFCE84DDBF9307800979
:1058800063ECA70C797122D406D626D24AD04ECE2C
:1058900052CC56CA5AC85EC6930700092E8463E6E6
:1058A000B706B284811493F4F40FB68A1306750018
:1058B0009386F50013994400B7040008AA893A8A30
:1058C0009384843097000000E780E098639A0A048C
:1058D0008149B72B0020414BB3073901A69783CAF2
:1058E0000700214493F71A00528599E303A54BBDA5
:1058F0007D141374F40F97000000E780009393DA8F
:105900001A006DF08509E39969FDB2502254925452
:105910000259F249624AD24A424BB24B45618280F7
:10592000CA94130B0401A14B83CA0400014993F7E5
:105930001A0089CB5286A285338529019700000081
:10594000E780C0EC050993DA1A00E31279FF050439
:105950008504E31B64FD55BF8280011122CC26CA59
:105960004AC84EC652C456C25AC006CE2A84AE8415
:105970003289B6893A8A930A8009130B00090346D3
:10598000090019EAF2406244D2444249B249224A2B
:10599000924A024B0561828063F48A00C10401448B
:1059A000E3629BFE22854E87D286A6859700000083
:1059B000E78000ED21040509D9B7797156CA938AA9
:1059C000F6FF22D426D24AD04ECE52CC5AC85EC65A
:1059D00062C466C206D6AA8BAE89328C3A8A13F4A8
:1059E000FA0F814C01499304F00F294B631294067E
:1059F000B250225492540259F249624AD24A424B5E
:105A0000B24B224C924C45618280B38767037D176D
:105A10001377F70FE31B97FE13953C005E95B35782
:105A2000FC02B3F7670313F6F70F6317090263D598
:105A30005C0395E35287814613060002CE857D14F0
:105A400097000000E780C0E3850C1374F40F79BF62
:105A5000228785476DBF0549528781461306060395
:105A6000F1BFC54763EFA760B71700089387479B4F
:105A70000A053E951C41397122DC26DA06DE4AD839
:105A80004ED652D4B68432848287014597000000F6
:105A9000E78060D3C166371600080547FD16130678
:105AA000C6A8A94529456254F250D2544259B25968
:105AB000225A216117030000670063EA01452ECED8
:105AC00097000000E78020D0F24541641307F4FFFF
:105AD00085461306E003054597000000E78040DA9D
:105AE0003716000805479306F4FF1306C6A9A94513
:105AF000314597000000E78080E63716000805472B
