:020000040800F2
:10000000B1AA010000000000000000000000000094
:1000100000000000000000000000000000190008BF
:1000200000000000000000000000000000000000D0
:1000300000000000000000000000000000000000C0
:1000400000000000000000000000000000000000B0
:1000500000000000000000000000000000000000A0
:100060000000000000000000000000000000000090
:100070000000000000000000000000000000000080
:100080000000000000000000000000000000000070
:100090000000000000000000000000000000000060
:1000A0000000000000000000000000000000000050
:1000B0000000000000000000000000000000000040
:1000C0000000000000000000000000000000000030
:1000D0000000000000000000000000000000000020
:1000E000541900080000000000000000000000009B
:1000F0000000000000000000000000000000000000
:1001000000000000000000000000000000000000EF
:1001100000000000AA190008000000000000000014
:1001200000000000000000000000000000000000CF
:1001300000000000000000000000000000000000BF
:1001400000000000000000000000000000000000AF
:100150000000000000000000000000007370043088
:10016000170500001305C5FF8545F605637BB5003F
:1001700089816378B500170500001305C5002E9529
:1001800002859302002073A0027D970200009382F3
:1001900062E773907230972200009382E23E739080
:1001A000C27E73E0C07E972200009382A2357390D6
:1001B0005230970100189381E16C178100181301E8
:1001C00061E4173500001305257D97050018938518
:1001D00065E3170600181306E6EB63FAC5008322F1
:1001E000050023A0550011059105E3EAC5FE17059A
:1001F0000018130525EA970500189385A575637700
:10020000B500232005001105E36DB5FE73F0023241
:10021000173500001305253997300000E78040347A
:1002200097300000E780A03B97100000E780A04BCC
:100230000145814597100000E78040821733000098
:100240006700033301A073E00232828073F0023250
:0402500082800000A8
:100280000000000000000000010203040607080946
:100290000A50726F6772616D2068617320657869BA
:1002A000746564207769746820636F64653A000040
:1002B000307800006E6D690A000000007472617091
:1002C0000A00000000000000000000000000000024
:1002D00000000000000000080808080808080000E6
:1002E0001818000000486C241200000000000000F4
:1002F000000000000000002424247F1212127F124C
:10030000121200000000081C2A2A0A0C1828282AA9
:100310002A1C080800000022251515152A585454D7
:10032000542200000000000C1212120A7625291136
:10033000916E0000000606040300000000000000AB
:1003400000000000004020101008080808080810ED
:1003500010204000000204080810101010101008AF
:10036000080402000000000008086B1C1C6B080851
:100370000000000000000000080808087F080808C6
:100380000800000000000000000000000000000065
:10039000060604030000000000000000FE0000004C
:1003A000000000000000000000000000000000004D
:1003B00006060000000080404020201010080804BD
:1003C000040202000000001824424242424242421B
:1003D00024180000000000080E0808080808080893
:1003E000083E00000000003C424242202010080469
:1003F000427E00000000003C424220182040404263
:10040000221C0000000000203028242422227E200C
:10041000207800000000007E0202021A26404042BE
:10042000221C0000000000382402021A2642424228
:10043000241800000000007E22221010080808087E
:10044000080800000000003C4242422418244242B6
:10045000423C0000000000182442424264584040E0
:10046000241C00000000000000001818000000001C
:100470001818000000000000000000080000000044
:1004800000080804000000402010080402040810BE
:10049000204000000000000000007F0000007F00FE
:1004A0000000000000000002040810204020100896
:1004B000040200000000003C4242464020101000B0
:1004C000181800000000001C225A555555552D42A1
:1004D000221C00000000000808181414243C2242CA
:1004E00042E700000000001F2222221E2242424258
:1004F000221F00000000007C424201010101014274
:10050000221C00000000001F22424242424242429E
:10051000221F00000000003F4212121E121202426F
:10052000423F00000000003F4212121E121202025F
:10053000020700000000003C22220101017121227B
:10054000221C0000000000E7424242427E4242423A
:1005500042E700000000003E0808080808080808F4
:10056000083E00000000007C101010101010101049
:100570001010110F0000007722120A0E0A12122228
:1005800022770000000000070202020202020202BB
:10059000427F000000000077363636362A2A2A2AA3
:1005A0002A6B0000000000E346464A4A525252625B
:1005B000624700000000001C22414141414141418D
:1005C000221C00000000003F424242423E02020262
:1005D000020700000000001C2241414141414D53EF
:1005E000321C60000000003F4242423E12122222B2
:1005F00042C700000000007C424202041820404232
:10060000423E00000000007F49080808080808086A
:10061000081C0000000000E74242424242424242BF
:10062000423C0000000000E7424222242414141837
:10063000080800000000006B494949495555362219
:1006400022220000000000E7422424181818242465
:1006500042E700000000007722221414080808086E
:10066000081C00000000007E212010100804044235
:10067000423F000000780808080808080808080831
:10068000080878000000020204040808081010207E
:1006900020204040001E10101010101010101010DC
:1006A00010101E0000384400000000000000000090
:1006B000000000000000000000000000000000003A
:1006C000000000FF0006080000000000000000001D
:1006D00000000000000000000000003C427844429E
:1006E00042FC0000000000030202021A26424242BD
:1006F000261A000000000000000000384402020238
:1007000044380000000000604040407844424242CB
:1007100064D80000000000000000003C427E02029D
:10072000423C0000000000F08808087E0808080825
:10073000083E0000000000000000007C22221C0295
:100740003C42423C000000030202023A464242425E
:1007500042E700000000000C0C00000E080808082A
:10076000083E00000000003030000038202020202B
:100770002020221E0000000302020272120A16123A
:10078000227700000000000E080808080808080882
:10079000083E0000000000000000007F929292924C
:1007A00092B70000000000000000003B46424242B9
:1007B00042E70000000000000000003C42424242CC
:1007C000423C0000000000000000001B26424242A4
:1007D000221E02070000000000000078444242424E
:1007E000447840E000000000000000774C0404045E
:1007F000041F0000000000000000007C42023C409A
:10080000423E0000000000000008083E08080808FA
:100810000830000000000000000000634242424235
:1008200062DC000000000000000000E74224241405
:100830000808000000000000000000EB4949555581
:100840002222000000000000000000762418181882
:10085000246E000000000000000000E74224241481
:1008600018080807000000000000007E2210080899
:10087000447E000000C020202020201020202020C6
:100880002020C000101010101010101010101010A8
:1008900010101010000608080808081008080808BA
:1008A00008080600AAAA5555AAAA5555AAAA555538
:1008B000AAAA5555000000040A0E0A0A609060407A
:1008C0009060000000000000000000000040AF4009
:1008D000506C616E7469692076302E310000000022
:1008E00028250000782400007E24000078240000E1
:1008F0001A250000782400007E240000282500002E
:10090000282500001A2500007E2400005E24000037
:100910005E2400005E240000822400002E290000D6
:100920002E2900004629000028290000282900005F
:10093000D42900004629000028290000D4290000FD
:100940002829000046290000262900002629000049
:1009500026290000D429000000010202030303033A
:10096000040404040404040405050505050505053F
:10097000050505050505050506060606060606061F
:100980000606060606060606060606060606060607
:1009900006060606060606060707070707070707EF
:1009A00007070707070707070707070707070707D7
:1009B00007070707070707070707070707070707C7
:1009C00007070707070707070707070707070707B7
:1009D000070707070707070708080808080808089F
:1009E0000808080808080808080808080808080887
:1009F0000808080808080808080808080808080877
:100A00000808080808080808080808080808080866
:100A10000808080808080808080808080808080856
:100A20000808080808080808080808080808080846
:100A30000808080808080808080808080808080836
:100A40000808080808080808080808080808080826
:100A50000808080808080808011106CE26CA4AC86E
:100A60004EC652C456C222CC97200000E78000C078
:100A700097200000E780A0C397200000E780A0CA6D
:100A800097200000E780E0D1054597100000E7803F
:100A900060C8054597100000E780E0299710000026
:100AA000E780C02B014597100000E7806071054585
:100AB000C1693729014097200000E7806093814495
:100AC000130A803EFD19B71A0008130909400144B2
:100AD000050497200000E78080BC7DD997200000A6
:100AE000E780E0C0850497200000E780E0C6639DB2
:100AF00044010547CE8613860A8D8145014597201E
:100B00000000E78060808144935584400945972028
:100B10000000E780C0C7A2850D4597200000E78050
:100B200000C785454A8597000000E780E03045B75B
:100B30004111B727014006C693870740630BF500B4
:100B4000B7370140938707806303F502B240410144
:100B500082801305903097000000E780E03F130586
:100B60009030B24041011703000067006340130555
:100B7000A03097000000E780203E1305A030D5B7D5
:100B8000B727014003A74740B706F1FFFD16758F51
:100B900023A2E74003A74740598D23A2A7408280A4
:100BA00093F7051013F7054089890DC289C75C4189
:100BB00093E707105CC109C75C4193E707405CC13C
:100BC00089C51C4593E727001CC5828089C75C4105
:100BD00093F7F7EF5CC109C75C4193F7F7BF5CC1BE
:100BE000EDD51C45F59BCDB71C4599C50567130789
:100BF0000780D98F1CC582807D771307F77FF98F17
:100C0000D5BF1C45858B89E71C4593E717001CC59C
:100C100082801C451307850093E787001CC51C4391
:100C2000A18BF5FF1C4593E747001CC51C43918B26
:100C3000F5FF82803727014083278740B706800071
:100C4000D58F2324F740828085476386F500894746
:100C50006382F50282805C55370710FF7D17F98F9C
:100C60005CD55C557D1652063707F000798E5D8E97
:100C700050D582801C5D3707D0FF7D17F98F1CDDB2
:100C80001C5D7D16520637073000798E5D8E10DDB3
:100C9000828015476363B704B385E50203284503E3
:100CA000FD47B397B70093C7F7FFB3F70701B31535
:100CB000B600DD8D4CD9A54763E9C7068D473306DD
:100CC000F6020C491D473317C7001347F7FF6D8F16
:100CD0003396C600598E10C98280AD4763E3B702D0
:100CE000E915B385E50203280503FD47B397B7006F
:100CF00093C7F7FFB3F70701B315B600DD8D0CD925
:100D00005DBFBD47E3E9B7FAD115B385E502032816
:100D1000C502FD47B397B70093C7F7FFB3F70701C5
:100D2000B315B600DD8D4CD579B7C54763E1C70271
:100D30008D4759163306F60258459D47B397C700AD
:100D400093C7F7FFF98F3396C600D18F5CC58280B9
:100D50001C5D7D4703288503D1838D8BB385B74008
:100D6000ED57B385F502A547BD053317B700134707
:100D7000F7FF33770701B315B600D98D0CDD63E1BA
:100D8000C7020D473306E6021C491D473317C7004B
:100D90001347F7FF7D8F3396C600598E10C98280A6
:100DA000C54763E1C7028D4759163306F602584519
:100DB0009D47B397C70093C7F7FFF98F3396C600D7
:100DC000D18F5CC5828085476386F5008947638D36
:100DD000F50082801445B705F2FFFD15ED8E14C5B0
:100DE0001845518F18C582801845E576FD16758F18
:100DF00018C51C45D18F1CC5828093F715008989C1
:100E000009CE91C71C4537071000D98F1CC589C56D
:100E10001C452167D98F1CC5828099C71C4537079F
:100E2000F0FF7D17F98F1CC5E5D91C4561777D174B
:100E3000F98FD5B793F7150091C71C4537074000C8
:100E4000D98F1CC5898991C51C4537072000D98FCA
:100E50001CC58280170300006700A373011106CE32
:100E600022CC32C42A842EC697000000E78020706E
:100E7000B245228597000000E78000742246228553
:100E80006244F240B28505611703000067004378B1
:100E900093F7050193F8F50099C3B3E8C8008147BB
:100EA000054EBD4E130F8002930F8004214333166D
:100EB000FE00758E1DC2139727008322050033980C
:100EC000EE001348F8FF337858003397E800336793
:100ED00007016399E50550C918C18507E39967FCC7
:100EE000054EBD4E130F8002930F8004414333160D
:100EF000FE00758E05C61397270001178322450053
:100F00003398EE001348F8FF337858003397E80021
:100F100033670701639CE50150C958C18507E39811
:100F200067FC8280E39AF5FB10C97DB7E397F5FF74
:100F300010C9E5B70CC982804CC98280B71702403E
:100F4000135765003E9714438547B397A700D58F85
:100F50001CC38280B7170240135765003E971443A5
:100F60008547B397A700D58F1CC38280B71702406F
:100F7000135765003E9714438547B397A70093C75F
:100F8000F7FFF58F1CC38280B7170240DC43374759
:100F9000FFEF7D17F98F1547630EE5006369A70022
:100FA0000D476370A702371702405CC382801D475C
:100FB000E31BE5FE3A053177798D5D8DB7070010AB
:100FC00011A03A05C98FC5B77971B705000822D4B9
:100FD00041462A8493850528080806D697200000F4
:100FE000E780C067B70703049387172002C03EC29B
:100FF00002C43EC6371702405C43894689838D8B05
:101000006397D70E5C439396F70063D606065C574A
:101010009396F70063DC06045C575857918321834D
:10102000BD8B3D8B938617000907C5476313F700F7
:101030005147B7177A0093870720B3D7D702B387F2
:10104000E7023717024058573D8B050733D7E702B1
:10105000B7160240DC42D442C98313962600BD8BEA
:101060006350060293E7070185070DA0B7177A00C2
:1010700093870720F9B7B7173D0013870790C9BFBB
:10108000BD46E383D7FE8907638DD704B387E702A4
:10109000B7160240D842101011833D8B329703459A
:1010A00007FFD84233D5A70021831D8B3297034613
:1010B00007FED84214102D831D8B369785460347B3
:1010C00087FE630CD40005CC89476307F4028D4783
:1010D0003355E5006303F4000145B25022544561E5
:1010E00082809947B307F7020583BA9755B7B717B8
:1010F0007A009387072069BF3355C500F9BF3E8545
:10110000E9BF232005002322050023240500232610
:101110000500232A0500232C050082801C410D6751
:1011200013070704D4417D8F9C41D58F9445D58FFB
:10113000D445D58F9449D58FD449D58F944DD58F2B
:10114000D98F1CC15C4D7D771307F77FF98F5CCD7C
:1011500082801C4193E707041CC182804CC58280B9
:101160001C410967D98F1CC10CC9828008456D8D4F
:101170003335A00082804111B757004006C613875F
:1011800007C06309E506636FA700374700401307F0
:101190000740630FE502938707806304F504B240BC
:1011A000410182806301F506B747014093870780BC
:1011B000E317F5FE1305E03097000000E780C0D983
:1011C0001305E030B240410117030000670043DA25
:1011D0001305104197000000E78000D81305104167
:1011E000D5B71305204197000000E780E0D613052E
:1011F0002041C9BF1305304197000000E780C0D5EA
:1012000013053041C1B71305404197000000E78046
:10121000A0D4130540417DB74111B757004022C407
:1012200026C206C6138707C02A84AE84630FE50072
:10123000636FA70037470040130707406307E500C7
:101240009387078001456312F402094519A8E30E4C
:10125000F5FEB74701409387078001456317F40007
:101260000D4597000000E78060D693D71400AA9739
:10127000B3D79702B2409244C207C1831CC4224430
:10128000410182805C4593F7F79F5CC55C45DD8D2D
:101290004CC582805C457D777D17F98F5CC55C45C8
:1012A000DD8D4CC582801C4975777D17F98F1CC96F
:1012B0001C49DD8D0CC982805C450967D98F5CC5EE
:1012C00082805C45DD9BDD8D4CC582805C45ED9B5D
:1012D000DD8D4CC5828093F5F51F4CC182805C4941
:1012E00093F7F7EFDD8D4CC982805C4993F7F7DF08
:1012F000DD8D4CC9828093D7650093F7F73F3E950B
:1013000008413355B5000589828013D765001377EE
:10131000F73F3A9518418547B397B70093C7F7FF52
:10132000F98F1CC18280B71702409843B706FFE0CF
:10133000B1061367170098C3D843758FD8C3984375
:10134000B706F7FEFD16758F98C39843B706FCFFE6
:10135000FD16758F98C3D843B70601DFFD16758F4C
:10136000D8C323A607029843B706F7EAFD16758F80
:1013700098C33707FF0098C794434167D98E94C339
:101380009307F7FF3717024014431396E6006344B0
:101390000600FD17F5FBB717024098439316E700C8
:1013A00063C3060001A0D843B706C4DFFD16D8C347
:1013B000D843D8C3D84313670740D8C3D843758FE1
:1013C000D8C3D843B7062920558FD8C3D857BD7680
:1013D000758FD8D7D857C166938616F1558FD8D751
:1013E0009843B7060004558F98C3B7170240984337
:1013F00093164700E3DD06FE9843B7060010558FAD
:1014000098C3B7170240984393162700E3DD06FE02
:101410009843B7060001558F98C3B7170240984309
:1014200093166700E3DD06FED843719BD8C3D8430B
:1014300013672700D8C3371702405C43A18BF5DF41
:1014400082807971B705000822D47D462A8493856D
:1014500005290A8506D697200000E78020207946D6
:101460008A85094597200000E7802034A285094538
:1014700097000000E780C004B70500080546938583
:10148000052C094597200000E780203201A037078E
:101490000020130747081C43B716002093860695C3
:1014A0003E95636BD500B77600209386060063E512
:1014B000A60008C33E858280FD57EDBF79714ECEF0
:1014C000AE89B705000809469385052B22D426D29C
:1014D0004AD052CC56CA06D62A89714497200000B9
:1014E000E780A02C3D4AA54AF154B3178A00B3F710
:1014F0003701B3D7870093F7F70F63ECFA029387AE
:10150000070393F7F70F05469305F1004A85711419
:10151000A307F10097200000E7802029E31794FC3F
:10152000B250225492540259F249624AD24A456159
:10153000828093877703F1B7B70700D1D8438843F8
:10154000CC43E39DE5FE8280B70700D223800700ED
:10155000A38507001205B71700D23E9563E3A700E5
:10156000828023A00700C107D5BFB71700D2850727
:101570000A053E9585472300F5008280B707803431
:10158000938707403E950A052300050082803707B0
:1015900000D2834707000605798993F7170E5D8D02
:1015A0002300A7008280B70700D203C5070005818A
:1015B0003D898280411122C426C206C62A84AE8497
:1015C00097000000E78060FE9147114763E3A700A2
:1015D0002A87371500D20A040D0522958347050096
:1015E0009376F70FA145B397E70093F7F70F958D23
:1015F000B394B400B3D7E740C58F93F7F70F230038
:10160000F500B2402244924441018280011122CC73
:101610002EC606CE2A8497000000E78000F98D4789
:10162000814563E9A702371700D20A040D07229704
:1016300083470700B245A1463385A6409205B3D73C
:10164000A74093F5F50FB397A700CD8F93F7F70F4A
:101650002300F700F24062442E8505618280F32763
:10166000503093F707FC93E7370073905730828030
:10167000B71700D289070A053E958347050093E70F
:1016800017002300F5008280B705000841111546B8
:101690009385452B054506C697200000E780E0109E
:1016A000054597000000E78000DA41119347F5FFF8
:1016B00022C406C6139747012A8409E79700000051
:1016C000E780C0FCB705000815469385C52B054586
:1016D00097200000E780600D228597000000E780DA
:1016E00080D6411106C697000000E78000C41305AC
:1016F000700597000000E78060E597000000E78034
:1017000040F6B240410117F3FFFF670003B4828047
:10171000411126C2AA841305206006C622C4970080
:101720000000E780E0811305906097000000E780EB
:1017300020810D4597000000E78040853715014066
:10174000A146414681451305058097F0FFFFE780DC
:101750006074372401401305044097F0FFFFE780D1
:10176000603D014597F0FFFFE780C0410146894594
:101770001305044097F0FFFFE780C0420146930540
:1017800000101305044097F0FFFFE780A04181455A
:101790001305044097F0FFFFE78040450546854567
:1017A0001305044097F0FFFFE780404A89460D4645
:1017B00081451305044097F0FFFFE780C04D3706D1
:1017C0000E0085451305044097F0FFFFE780E05FBA
:1017D000054685451305044097F0FFFFE78020622A
:1017E0009DCC0546930500401305044097F0FFFF8C
:1017F000E780403B054689451305044097F0FFFF0D
:10180000E780C04497F0FFFFE78000439D464146D4
:1018100081451305044097F0FFFFE780A05337246C
:1018200001401305044097F0FFFFE780C03D13051A
:10183000044097F0FFFFE780003E13050440224478
:10184000B24092448545410117F3FFFF6700C35E34
:10185000011126CAB7040020938444099C4022CC7D
:101860004AC84EC652C456C23709002006CE2A8442
:101870002E8AB28AB6891309090985EFB70700D203
:10188000C8434E054D8188C097000000E78000CC1A
:1018900097000000E780E0DC88400A059720000000
:1018A000E78080DA2320A9000D4597F0FFFFE7804D
:1018B000A05A228597000000E78080CC13F6FA0F2B
:1018C0009375FA0F228597F0FFFFE7806059228514
:1018D00097000000E78000DA228597000000E7808B
:1018E00000C9832709000A04F2403E9423203401F2
:1018F0006244D2444249B249224A924A05618280F6
:1019000039713ECCB707002083A7070906DE16DC35
:10191000DC4F1ADA1ED82AD62ED432D236D03ACE9E
:1019200042CA46C872C676C47AC27EC08297F25056
:10193000E2525253C2533255A25512568256724742
:10194000E2475248C248324EA24E124F824F2161A6
:101950007300203039713ECCB707002083A70709F8
:1019600006DE16DC83A7070E1ADA1ED82AD62ED476
:1019700032D236D03ACE42CA46C872C676C47AC28D
:101980007EC08297F250E2525253C2533255A25552
:10199000125682567247E2475248C248324EA24E11
:1019A000124F824F21617300203039713ECCB7074E
:1019B000002083A7070906DE16DC83A747111ADA81
:1019C0001ED82AD62ED432D236D03ACE42CA46C8F3
:1019D00072C676C47AC27EC08297F250E2525253E7
:1019E000C2533255A255125682567247E2475248A8
:1019F000C248324EA24E124F824F216173002030F6
:101A000079714AD04ECE5AC806D622D426D252CCAC
:101A100056CA5EC662C466C22A8B97000000E78081
:101A2000E0B1AA892E8997000000E78020B1AA843E
:101A30002E846394A900E308B9FEB717000803A930
:101A4000878C83A9C78CB70B002097000000E78024
:101A5000E0AEAA87058DB3B7A700818D9D8D972035
:101A60000000E78080902A8A03A50B08AE8A9720A1
:101A70000000E780208A4A86CE8697100000E78023
:101A800000E62A8C5A85AE8C97200000E78080887B
:101A90002A86AE866285E68597100000E780C04200
:101AA0002A86AE865285D68597100000E78080375B
:101AB000E34D05F8B250225492540259F249624A59
:101AC000D24A424BB24B224C924C4561828041112A
:101AD00022C4B7070020370400200327C40983A7C6
:101AE000070A06C626C2630AF7083745004089453B
:101AF0001305058097F0FFFFE78080672DC5896596
:101B00003715014097F0FFFFE78040431304C409F5
:101B10001440B70700201387870B8A0636971443B3
:101B20001307F00F9384870BA165371501406351AC
:101B3000D70497F0FFFFE78020401C403745004066
:101B400013050580138717008A07A69783C507002A
:101B500018C097F0FFFFE780A0601C40130700103B
:101B6000B3E7E7021CC0B2402244924441018280A4
:101B700097F0FFFFE780803CC9B72244B24092440F
:101B8000896537150140410117F3FFFF6700C33A2C
:101B9000411122C426C206C6B70400203704002023
:101BA00003A7C4098327040A6317F700B24022443D
:101BB00092444101828097000000E78080F1CDB718
:101BC000011122CC26CA4AC806CE37090020930448
:101BD0000010370400201306090A1C428326C4099A
:101BE00013871700336797026301D7029396270084
:101BF000B7070020F24062449387870BB69788C3EB
:101C000018C2D2444249056182802AC6970000006A
:101C1000E78020EC3245C1B7411122C42A842185D6
:101C20001305051006C697000000E780A0F913759C
:101C3000F40F2244B24013050510410117030000C0
:101C4000670043F8011122CC26CA37040020AA8479
:101C50001305A00206CE36C22EC61304840932C470
:101C600097000000E78000F60345240026959700C2
:101C70000000E780A0FA2246034524003295970031
:101C80000000E780A0F91305B00297000000E7808C
:101C900060F3B245034534002E9597000000E780BD
:101CA000E0F7034534009246369597000000E78040
:101CB000E0F66244F240D2441305C0020561170306
:101CC0000000670023F0797189653715014006D659
:101CD00022D497F0FFFFE7802026480097F0FFFF0F
:101CE000E7806042930740103EC28D473744004072
:101CF0003ECC930700203EC84C00A147130504804A
:101D00003ECE02C402C602CA97F0FFFFE780404100
:101D1000130504809D4597F0FFFFE780A04413055D
:101D2000048097F0FFFFE7800043B25022544561E2
:101D3000828009E9B707011A370700208507232C9D
:101D4000F70882808547E31EF5FEB70700183707BE
:101D5000002093871710E5B7B707002003C787094E
:101D6000411122C406C61384870911E70145970073
:101D70000000E78040FC1305306097F0FFFFE7802C
:101D8000201C1305406097F0FFFFE780601B1305E0
:101D9000006097F0FFFFE780A01A1305E07097F04E
:101DA000FFFFE780E01937150140B9660D46E145B0
:101DB000130505C097F0FFFFE780C00DA9660D462B
:101DC000C1453715014097F0FFFFE780A00C970051
:101DD0000000E78080EFA9653715014097F0FFFF0D
:101DE000E780C01597000000E780C0DA13054006C1
:101DF00097000000E78000C1054597000000E780DC
:101E000060DC97000000E780E0D8130580079700AA
:101E10000000E78020BF454597000000E78080DA9A
:101E200097000000E78000D71305400697000000E8
:101E3000E78040BD834714001305200299E3130592
:101E4000100297000000E780E0D71305100B970001
:101E50000000E78020D71305501097000000E780AE
:101E600060D61305A01397000000E780A0D51305E6
:101E7000A01397000000E780E0D41305200B970023
:101E80000000E78020D41305501097000000E78081
:101E900060D31305A01397000000E780A0D21305BC
:101EA000A01397000000E780E0D11305300B9700E6
:101EB0000000E78020D11305501097000000E78054
:101EC00060D01305A01397000000E780A0CF130592
:101ED000A01397000000E780E0CE13055010970094
:101EE0000000E78020CE1305A01397000000E780D4
:101EF00060CD1305A01397000000E780A0CC130568
:101F0000400B97000000E780E0CB130530109700EE
:101F10000000E78020CB1305000C97000000E7804D
:101F200060CA1305201697000000E780A0C91305BA
:101F3000201097000000E780E0C8130540109700CC
:101F40000000E78020C81305100C97000000E78010
:101F500060C71305001C97000000E780A0C61305AA
:101F6000200C97000000E780E0C51305D010970013
:101F70000000E78020C51305001097000000E780EF
:101F800060C41305300C97000000E780A0C3130560
:101F9000D01897000000E780E0C21305A016970054
:101FA0000000E78020C21305400C97000000E78086
:101FB00060C11305D01897000000E780A0C013058A
:101FC000E01E97000000E780E0BF1305500C97006B
:101FD0000000E78020BF1305E01097000000E780B5
:101FE00060BE1305000E97000000E780A0BD13053A
:101FF000001197000000E780E0BC1305E010970097
:102000000000E78020BC1305201097000000E78047
:1020100060BB1305301097000000E780A0BA1305DD
:10202000E01097000000E780E0B9130570109700FA
:102030000000E78020B91305201097000000E7801A
:1020400060B81305701097000000E780A0B7130573
:10205000A01097000000E780E0B61305201197005C
:102060000000E78020B61305701297000000E7809B
:1020700060B51305701397000000E780A0B4130546
:10208000001097000000E780E0B31305D010970020
:102090000000E78020B31305E01097000000E78000
:1020A00060B21305001197000000E780A0B113058E
:1020B000100E97000000E780E0B0130500119700B4
:1020C0000000E78020B01305E01097000000E780D3
:1020D00060AF1305301097000000E780A0AE130535
:1020E000301097000000E780E0AD1305F010970076
:1020F0000000E78020AD1305601097000000E78026
:1021000060AC1305201097000000E780A0AB13051A
:10211000801097000000E780E0AA1305A010970048
:102120000000E78020AA1305301197000000E78027
:1021300060A91305601297000000E780A0A81305AE
:10214000601397000000E780E0A7130500109700D8
:102150000000E78020A71305D01097000000E7805B
:1021600060A61305E01097000000E780A0A5130506
:10217000001197000000E780E0A41305A00397007A
:102180000000E78020A41305501097000000E780AE
:1021900060A31305600397000000E780A0A2130569
:1021A000801797000000E780E0A12244B2401305A9
:1021B00090024101170300006700C3A041114AC00B
:1021C0009306F0042A891306F0098145014526C2C9
:1021D00006C622C49304000A97000000E780C0A648
:1021E000130400054A857D1497000000E78000A3D2
:1021F00075F8FD14F5F4B2402244924402494101BD
:102200008280411122C4AE8632842A8606C6970097
:102210000000E78060A322852244B24041011703F9
:1022200000006700A39F9307800963ECA70C7971F6
:1022300022D406D626D24AD04ECE52CC56CA5AC83E
:102240005EC6930700042E8463E6B706B284811449
:1022500093F4F40FB68A130675009386F50013996C
:102260004400B7040008AA893A8A9384442C970052
:102270000000E780609D639A0A048149B71B002033
:10228000414BB3073901A69783CA0700214493F74E
:102290001A00528599E303A54B947D141374F40F2F
:1022A00097000000E780809793DA1A006DF08509A7
:1022B000E39969FDB250225492540259F249624A9C
:1022C000D24A424BB24B45618280CA94130B04013F
:1022D000A14B83CA0400014993F71A0089CB5286A7
:1022E000A2853385290197000000E780C0F1050928
:1022F00093DA1A00E31279FF05048504E31B64FDF9
:1023000055BF8280011122CC26CA4AC84EC652C48B
:1023100056C25AC006CE2A84AE843289B6893A8A19
:10232000930A8009130B00040346090019EAF240DE
:102330006244D2444249B249224A924A024B056160
:10234000828063F48A00C1040144E3629BFE22851B
:102350004E87D286A68597000000E78000ED210415
:102360000509D9B7411122C4370400201304440AD7
:10237000B7070020184083A7870A06C626C263094C
:10238000F704B74401409D451385048097F0FFFF93
:10239000E780A0F60DC91C40138504801387170041
:1023A00018C013972700B70700209387874BBA9769
:1023B0008C4397F0FFFFE78040F21C4013070010AA
:1023C000B3E7E7021CC0B24022449244410182803C
:1023D0002244B240924437450140930570301305C2
:1023E0000580410117F3FFFF670063F2411126C228
:1023F000AA841305206006C622C497F0FFFFE78079
:1024000020B43714014013050480930600200D46C4
:10241000E14597F0FFFFE780E0A7930600400D46F7
:1024200091451305048097F0FFFFE780A0A61305F0
:10243000E0603744014097F0FFFFE78060B013058C
:10244000048097F0FFFFE78040D3896593850558A6
:102450001305048097F0FFFFE78040DC81451305FA
:10246000048097F0FFFFE78020E281451305048098
:1024700097F0FFFFE78040E289651305048097F03D
:10248000FFFFE78080E281451305048097F0FFFF9E
:10249000E78020E581451305048097F0FFFFE78082
:1024A00000E51305048097F0FFFFE78020E1A145D8
:1024B0001305048097F0FFFFE780E0E091451305E6
:1024C000048097F0FFFFE780A0E08DC02244B24077
:1024D0009244B72600089386463605468D45130577
:1024E0008003410117F3FFFF6700C336B240224467
:1024F00092444101828000000000000000000000C2
:102500005D7106C012C216C41AC61EC82ACA2ECCD5
:1025100032CE36D03AD23ED442D646D872DA76DCC3
:102520007ADEFEC0F322103496C0F322003096C249
:10253000F322407C96C4732520348A8597F0FFFFF0
:10254000E780E01686427390123496427390023010
:10255000A6427390427C82401242A2423243C2435E
:102560005245E245724682561257A2573258C25817
:10257000525EE25E725F864F616173002030000040
:10258000000000005D7106C012C216C41AC61EC843
:102590002ACA2ECC32CE36D03AD23ED442D646D8F3
:1025A00072DA76DC7ADEFEC073D0E87E7350F97E94
:1025B00073D0B97EF390D07E73700430B6427390BE
:1025C000427CA64273901234964273902234824029
:1025D0001242A2423243C2435245E24572468256FB
:1025E0001257A2573258C258525EE25E725F864F4F
:1025F000616173002030AA82B68E214363C46E00ED
:102600009102E11E8A0E3D433313D3011343F3FFBE
:10261000AE83B3E3C300B393D30103AE0200337EB2
:102620006E00336E7E0023A0C2018280F18D2D8E5C
:102630004206D18D0CC982804CC982804CC58280F3
:102640000C458280B712024003A3C2013363A3008A
:1026500023AE62008280B712024003A3820133637B
:10266000A30023AC62008280711106C0414597002F
:102670000000E78060FDB71200401303B00623A4FA
:1026800062021303703E23A6620223A802000543E0
:1026900023A06200824011018280B712004003A58E
:1026A000020119C123A802008280711106C02145D0
:1026B00097000000E78060FA37150140130505C058
:1026C00081450D4681460D4797000000E780E0F206
:1026D0008506E39BE6FE82401101828097E2FF17A8
:1026E00093824292038502008280711106C03715E1
:1026F0000140130505C097E2FF179382A2908385DE
:102700000200FD1563D305009D452380B2001D46E0
:1027100097000000E780C0F10385020082401101AC
:102720008280711106C0214597000000E780E0F229
:1027300037150140130505C081450D46A1464147A7
:1027400097000000E78060EB8506E39BE6FE824091
:1027500011018280711106C097E2FF179382C28A2D
:1027600083A20200AA9237150140130505C083C554
:102770000200A20537060100130606F097000000CC
:10278000E78000EB82401101828097E2FF1793827D
:10279000A28783A20200AA922380B20082807111D4
:1027A00006C0114597000000E78020EB3715014077
:1027B0001305058081451146954625479700000081
:1027C000E780A0E38506E39BE6FE8240110182805C
:1027D000711106C07D5E97EEFF17938EBE8303A333
:1027E0000E009303F3FF23A07E006397030423A04E
:1027F0006E00371501401305058097000000E78043
:1028000060E49581BD898DC985813335B00033037E
:10281000A00085813335B0002A9385813335B0001F
:102820002A9397000000E780A0EB0A05336EA3000F
:102830001303002023A06E00728582401101828064
:1028400097D2FF179382527D23900200828097D205
:10285000FF179382727C03D30200A5430503137E06
:10286000F30063D8C3031903135E4300137EFE0015
:1028700063D1C30313030306135E8300137EFE00BC
:1028800063D9C30113030360135EC30063D3C301A1
:10289000014323906200828097D2FF179382D27700
:1028A00003D50200828097D2FF179382127703A389
:1028B00002007D1323A06200635003021303F0089B
:1028C00023A0620097D2FF179382027403A3020031
:1028D0001343130023A062008280797113D845014D
:1028E00026D24ECE52CC5AC85EC69394C50006D6A8
:1028F00022D44AD056CA1378F87F2A8BB28B368AF4
:10290000B18093D9F501630408089307F07F630E43
:10291000F80C935AD5018E04B3E49A00B70A8000EC
:10292000B3EA540113143500130918C0014B1355B1
:102930004A019314CA001378F57FB180135AFA0143
:102940006308080C9307F07F6301F81213953400B5
:1029500093D7DB015D8DB7048000C98C139F3B00CA
:10296000130518C0814713172B005D8F7D17B946DB
:1029700033C649013308A94063EBE61097E6FFFF31
:10298000938646F60A073697184336970287B3EAC6
:10299000A40063860A068DCC268597100000E78088
:1029A00060B8930755FF7147634BF702F54A13046C
:1029B00085FFB38AFA40B3948400B35A5B01B3EA4B
:1029C0009A0033148B001308D0C03309A840B9BF54
:1029D00097100000E78000B513050502D9B79304EE
:1029E00085FDB31A9B000144F9BFB3EAA400638CD0
:1029F0000A002A84A68A1309F07F0D4B0DBF0144FB
:102A00000149054B2DB701441309F07F094B05B768
:102A100033EF740163040F069DC8268597100000EC
:102A2000E78040B0930755FF7147634AF702754747
:102A3000130F85FF1D8FB394E40133D7EB00D98CBE
:102A4000339FEB011306D0C03305A64021BF5E853E
:102A500097100000E78000AD13050502E1B793046D
:102A600085FDB3949B00014FF1BF33EF7401630BFD
:102A70000F005E8F1305F07F8D47F5B5814401454A
:102A80008547D5B581441305F07F8947E9BD63E6E5
:102A9000540163939A2A6361E42B9396FA011357C6
:102AA00014009317F40193DA1A0033E4E600139547
:102AB000840093548F01458D135E0501B3D8CA037A
:102AC00013130501135303011357040193158F00CA
:102AD000B3F4CA03C68FB3061303939A0401336792
:102AE0005701637CD7002A97938FF8FF6367A7008D
:102AF0006375D700938FE8FF2A97158FB35EC703DE
:102B0000420441803377C703F686B308D3034207F4
:102B1000418F637C17012A979386FEFF6367A700A6
:102B2000637517019386EEFF2A97C20FB3EFDF009C
:102B3000C166330417419388F6FF13DF0F0133F7A3
:102B40001F0193DE0501B3F81501B3031703B304A6
:102B50001F033387EE02B302DF03330F970013D74F
:102B600003017A9763739700B692135F0701169F6C
:102B7000C162FD12B3765700C206B3F353009E96AE
:102B80006367E401FE84631EE40363FCD702AE972F
:102B900033B7B7002A973A949384FFFF63668500A2
:102BA0006311850263EFB7006366E401631B8F0066
:102BB00063F9D700AE9733B7B7002A979384EFFF36
:102BC0003A94B386D7403304E441B3B7D7001D8CA1
:102BD0007D5F6305850E335FC40313D7060133742D
:102BE000C403B307E3034204598C7A87637CF4007F
:102BF0002A941307FFFF6367A4006375F4001307AB
:102C0000EFFF2A941D8C335FC403C206C182337464
:102C1000C403FA873303E3034204558C637C6400E6
:102C20002A949307FFFF6367A4006375640093070A
:102C3000EFFF2A9442075D8F93170701C183330486
:102C4000644013530701338E1703B3081303338310
:102C50006E02B38EFE0293570E01C69EF69763F482
:102C60001701C166369393D807019A9841637D1383
:102C7000B3F66700C206337E6E00F29663661401F7
:102C8000631E14193A8F9DCA2A94130FF7FF6361CC
:102C9000A402636614016312141963FDD5009397AF
:102CA0001500B3B5B7002E95130FE7FF2A94BE8524
:102CB000631414016384B600136F1F001307F83FF9
:102CC0006357E00A93777F0081CF9377FF009146A7
:102CD0006388D70093064F0033BFE601FA94368F1E
:102CE0009397740063D80700B70700FFFD17FD8CAA
:102CF000130708409307E07F63C8E710135F3F00A6
:102D00009397D401B3E7E70113D534003205137765
:102D1000F77F5207B25022543181598D7E063367B6
:102D2000C50092540259F249624AD24A424BB24B10
:102D30003E85BA85456182807D1881478DBB4E8670
:102D4000D684228FDA8709476380E70C0D476386B4
:102D5000E70A0547E394E7F60145814785A85286CF
:102D6000DDB7B7040800014F01468D47E9BF0545AF
:102D7000198D93078003E3C1A7FEFD4763CAA7042B
:102D80001308E841B39704013357AF0033180F011C
:102D9000D98F33380001B3E7070133D5A40013F707
:102DA000770001CF13F7F70091466308D700138728
:102DB0004700B337F7003E95BA8713178500634A7B
:102DC00007041317D5018D83D98F0D8101473DBFAE
:102DD0008557998F93060002B3D7F4000147630625
:102DE000D5001308E84333970401336FE701333FFD
:102DF000E001B3E7E70101455DB73705080081470A
:102E00001307F07F014619B7014581471307F07F8B
:102E1000F5BD014581470547D5BD7A873A8F69BD24
:102E200013D84501B7071000FD1713D746011378D3
:102E3000F87F930EF07FB3F8B7002A83F58FFD81FA
:102E4000328E1377F77FFD826318D801B3EEA800A6
:102E500063850E0689450DA86316D701B3EEC7003A
:102E6000E39A0EFE631D080433E5A8001335150030
:102E700019E35D8E15CE11E5638AD50085C9FD5530
:102E800021A0FD5591C2B6852E858280E34807FFBB
:102E90006354E800F5F9E5B7E3E217FF639CF80037
:102EA000E36E6EFCE368C3FF8145F9BF8545E9BF6A
:102EB00065FDE9B7E3E0F8FEC5BFE30107FB4DFFA1
:102EC000014545BF79714ECE93D9450122D426D212
:102ED00052CC56CA5AC89394C50006D64AD05EC68C
:102EE00093F9F97F2A84328BB68AB18013DAF5011F
:102EF000638109089307F07F6389F90C9357D50123
:102F00008E04DD8CB7078000DD8C131935009389A2
:102F100019C0814B13D54A011394CA001375F57F6C
:102F2000318093DAFA0161C59307F07F630DF510E4
:102F30009357DB010E045D8CB70780005D8C130591
:102F400015C093173B00014793962B00D98E4E95E1
:102F5000FD16B94533465A011308150063E6D5102E
:102F600097E5FFFF9385C59B8A06AE969442AE9681
:102F7000828633E9A400630309069DC8268597006D
:102F80000000E780205A130755FFF14763C9E702A5
:102F9000F547130985FF998FB3942401B357F400C3
:102FA000DD8C331924019309D0C0B389A94095B7AA
:102FB00097000000E780005713050502E9B7930466
:102FC00085FDB31494000149F9BF33E9A400630BF4
:102FD00009002A899309F07F8D4B2DBF81448149D7
:102FE000854B0DBF81449309F07F894B25B7B367AB
:102FF0006401B5C31DC8228597000000E780805298
:10300000930655FFF14763CAD7027547930785FFBB
:10301000158F3314F4003357EB00598CB317FB00B2
:103020001307D0C03305A74039BF5A859700000069
:10303000E780404F13050502E1B7130485FD331403
:103040008B008147F1BFB367640191CBDA87130529
:10305000F07F0D47D5BD014401450547F5B5014455
:103060001305F07F0947CDB5416F930EFFFF13574E
:10307000090193D807013379D901B3F7D701B38593
:103080002803B3862703B30FF7023383F50193D5E3
:1030900006019A95330E170363F3F5017A9E93D3D5
:1030A0000501B3F5D501B3F6D601135F0401B37280
:1030B000D401C205B695B30E5702B3862203330975
:1030C0002F033303D90113D906011A993307E703F4
:1030D0006374D90141631A97935E0901C169BA9E6D
:1030E0001387F9FF3379E900F98E13D404014209FB
:1030F000F98C369933879702CA933303F402B38667
:103100009802B3878802B388660093560701C69673
:1031100063F36600CE9793D80601C169B38FF800B8
:103120009387F9FFFD8E7D8FB3889202C206BA960F
:10313000B3075402B3049F0233038F02BE9413D427
:103140000801A29463F3F4004E93C167FD1733F7AF
:10315000F400B3F8F80042071E9E469733392E015B
:10316000769733042701369EB336DE00B308F401A8
:10317000338FD8003337D70133342401598CC180C1
:10318000B3B8F801B336DF002694B3E6D80036941E
:103190001A9493577F0126045D8C93179E00CD8F60
:1031A000B337F000135E7E0113179F00B3E7C7012A
:1031B000D98F131774006358070A13D71700858B2C
:1031C000D98F1317F401D98F05809306F83F635EFA
:1031D000D00813F7770001CF13F7F7009145630884
:1031E000B70013874700B337F7003E94BA87131729
:1031F000740063580700370700FF7D17798C93062A
:1032000008401307E07F634CD70E13D7370093179E
:10321000D401D98F0D80320413F7F67F5207318025
:10322000598C7E063367C400B2502254925402591E
:10323000F249624AD24A424BB24B3E85BA85456159
:10324000828052862684CA875E8789466309D70AA8
:103250008D46630FD7088546E319D7F601448147A9
:103260009DA05686DDB72A888DB78545958D1307B5
:103270008003E345B7FE7D476349B7041308E8417F
:1032800033170401B3D6B700B3970701558FB3378F
:10329000F000D98F3354B40013F7770001CF13F740
:1032A000F70091466308D70013874700B337F7004C
:1032B0003E94BA8713178400634807041317D40198
:1032C0008D83D98F0D808146B9B70557158F1305AA
:1032D00000023357E40081466386A5001308E843E3
:1032E000B3160401D58FB337F000D98F01446DB701
:1032F0003704080081479306F07F014629BF014447
:1033000081479306F07F01BF01448147854621B77D
:10331000411122C406C62A8421C597000000E78017
:1033200060201307E041A947098F63C6A702AD4794
:10333000898F5505B357F4003314A4002285B24099
:103340002244B2071377F77F5207B183B3E6E70051
:10335000B685410182805515B317A4000144F9BF19
:1033600081470147E1BF011106CE22CC26CA4AC8D7
:103370004EC652C4B367B500638607142A842E89EB
:10338000AE84BDC52E8597000000E780A019AA89EC
:10339000130AE043330A3A419307304363C74707B0
:1033A000AD47228563D337039307A00263C937056E
:1033B0009305B002938759FFB3853541B355B400E7
:1033C000B314F900CD8C3315F4009395C400F2408A
:1033D0006244137AFA7F520AB181B3E745012A8722
:1033E000D2444249B249224A3A85BE85056182806B
:1033F00097000000E78000139309050251BF9385F1
:1034000059FDB314B4000145C9B79307604363D9AC
:103410004703138689032285CA8597000000E78049
:10342000C00DC98D2146B334B0002285CA8533064C
:10343000364197000000E780A00933E4A4002E89FC
:10344000A147228563D437039307700263C6370709
:1034500093058002938789FFB38535413319F900BD
:10346000B355B40033E925013315F400B70780FFE5
:10347000FD17B375F9009377750081CF9377F50049
:1034800011476388E7009307450033B5A700AA9565
:103490003E859397850063DA0700B70780FFFD1725
:1034A000130AF043FD8D330A3A410D819397D501FC
:1034B0005D8D93D4350011BF138989FD3319240123
:1034C00001456DB781440145014A01B701CE93071B
:1034D0000002918F6349F000130506FE014733D5C2
:1034E000A500BA85828033D7C5003355C500B39592
:1034F000F5004D8DFDB701CE93070002918F634912
:10350000F000930506FE0147B315B5003A858280A9
:103510003317C500B395C5003355F500C98DFDB708
:10352000C1676376F5029307F00FB3B7A7008E0764
:10353000130700021D8FB357F50017D5FFFF1305C2
:10354000E541AA9703C507003305A74082803707E6
:103550000001C147E36EE5FCE147D9BFAA8581467A
:10356000014601451703000067004329411122C4A9
:1035700006C697070000938727312A8491C78145A3
:1035800097000000E780403097070000938787404E
:1035900088431C5591C38297228597E0FFFFE780FF
:1035A00080EA4111970700009387073F22C4170460
:1035B00000001304643E1D8C26C206C60984BE8426
:1035C00011E4B24022449244410182807D14931759
:1035D0002400A6979C438297E5B741119707000006
:1035E0009387873B22C4170400001304E43A1D8C20
:1035F00026C24AC006C6098481443E896396840275
:103600009707000093874739170400001304C43854
:103610001D8C098481443E89639F8400B24022440A
:10362000924402494101828093972400CA979C43A7
:1036300085048297E1B793972400CA979C43850439
:103640008297D9BF97D7FF17938747A4AA85884346
:10365000170300006700E3012A8309CA838305007A
:10366000230073007D16050385056DFA8280011124
:1036700026CA93843500F19806CE22CC4AC84EC69D
:10368000A104B14763F3F406B14463E2B4062A89A6
:1036900097000000E780C02B97D7FF17938747A1BB
:1036A00098433A8439EC97D7FF179387A7A09C4398
:1036B00099EB81454A8597000000E780A00B97D7DA
:1036C000FF1723A9A79EA6854A8597000000E780DB
:1036D000600AFD59631F3507B1472320F9004A8569
:1036E00097000000E780E02629A0E3D004FAB14764
:1036F0001CC10145F2406244D2444249B2490561CD
:1037000082801C40858F63C30704AD4663F6F600D4
:103710001CC03E9404C001A85C406317870217D701
:10372000FF172327F7984A8597000000E78060225B
:103730001305B4009307440061993307F5405DDB3E
:103740003A94898F1CC07DB75CC3F1BF228740408B
:1037500091BF130435007198E30E85FAB305A440B8
:103760004A8597000000E780E000E31535FBADB720
:10377000411122C42A842E8597D7FF1723A8071C3E
:1037800006C697E0FFFFE780C0D0FD576319F5003C
:1037900097D7FF179387871B9C4391C31CC0B240E8
:1037A00022444101828097D7FF179387278EB286E4
:1037B0002E86AA8588431703000067008300411105
:1037C00022C42A842E85B285368697D7FF1723AF69
:1037D000071606C697000000E780C017FD5763195B
:1037E000F50097D7FF17938767169C4391C31CC0BA
:1037F000B24022444101828097D7FF179387C78B3D
:103800009C432A8E8DE717D7FF171307270B97D7EF
:10381000FF1723A3E78A17C5FFF71305A57EBA870D
:1038200019C51C4117D5FF17232EF510BA87D843A9
:103830007D487D556347E804630E0E0203A88708A0
:103840006301080493182700C29823A0C80003232B
:10385000081005463316E6003363C30023206810C2
:1038600023A0D80889466317DE0083264810558EAA
:103870002322C810930617000A07D4C3BA978CC72F
:1038800001458280797152CC56CA5AC85EC606D6A6
:1038900022D426D24AD04ECE62C42A8B2E8A97DA00
:1038A000FF17938A6A81854B03A40A0011C844401C
:1038B000832984081389F4FF8A04A294635E0900B3
:1038C000B250225492540259F249624AD24A424BAF
:1038D000B24B224C45618280630E0A006395090059
:1038E0007D19F114E1BF93172900CE9783A707082C
:1038F000E39847FF5840DC407D17631827032322D5
:103900002401F9DF032C44006388090083A6091011
:1039100033972B01F98E89EE8297584083A70A00CE
:10392000E31487F9E30EF4FA41B723A20400D1BFF0
:1039300093162900CE968C4283A64910758F01E715
:103940005A858297D9BF2E858297C1BF8280828097
:10395000411106C622C481460147814793080004ED
:10396000730000002A84635A0500330480409700E6
:103970000000E780600100C17D542285B2402244EE
:103980004101828097C7FF179387477088438280E1
:0439900020000020F3
:103994000700000008000020AA55AA55AA55AA55F8
:1039A400AA00020000FFFF8F0000000700000000D3
:1039B4000000000000000000000000000000000003
:1039C40000000000000000000000000000000000F3
:1039D40000000000000000000000000000000000E3
:1039E40000000000000000000000000000000000D3
:1039F40000000000000000000000000000000000C3
:103A040000000000000000000000000000000000B2
:103A140000F36F0650090020200000200000000081
:040000050800015C92
:00000001FF
