:020000040800F2
:10000000B1AA010000000000000000000000000094
:10001000000000000000000000000000862400082E
:1000200000000000000000000000000000000000D0
:1000300000000000000000000000000000000000C0
:1000400000000000000000000000000000000000B0
:1000500000000000000000000000000000000000A0
:100060000000000000000000000000000000000090
:100070000000000000000000000000000000000080
:100080000000000000000000000000000000000070
:100090000000000000000000000000000000000060
:1000A0000000000000000000000000000000000050
:1000B0000000000000000000000000000000000040
:1000C0000000000000000000000000000000000030
:1000D0000000000000000000000000000000000020
:1000E000DA2400080000000000000000000000000A
:1000F0000000000000000000000000000000000000
:1001000000000000000000000000000000000000EF
:100110000000000030250008000000000000000082
:1001200000000000000000000000000000000000CF
:1001300000000000000000000000000000000000BF
:1001400000000000000000000000000000000000AF
:100150000000000000000000000000007370043088
:10016000170500001305C5FF8545F605637BB5003F
:1001700089816378B500170500001305C5002E9529
:1001800002859302002073A0027D970200009382F3
:1001900062E773907230974200009382E2C67390D8
:1001A000C27E73E0C07E974200009382A2BD73902E
:1001B0005230970100189381E16C178100181301E8
:1001C00061E417750000130565769705001893859F
:1001D00065E3170600181306E6EB63FAC5008322F1
:1001E000050023A0550011059105E3EAC5FE17059A
:1001F0000018130525EA971500189385A5C663779F
:10020000B500232005001105E36DB5FE73F0023241
:1002100017650000130565D297600000E780C0CC29
:1002200097600000E780E0D497200000E78040D18D
:100230000145814597100000E780C0CB176300009F
:10024000670043CC01A073E00232828073F0023277
:0402500082800000A8
:100280000000000000000000010203040607080946
:100290000A50726F6772616D2068617320657869BA
:1002A000746564207769746820636F64653A000040
:1002B000307800006E6D690A000000007472617091
:1002C0000A00000072656164732073656E736F725B
:1002D000000000000000D7430000003800000000CC
:1002E000000000000000594068226C787AA5D83FD1
:1002F0000000C842000000000000000000000000F4
:1003000000000000000000080808080808080000B5
:100310001818000000486C241200000000000000C3
:10032000000000000000002424247F1212127F121B
:10033000121200000000081C2A2A0A0C1828282A79
:100340002A1C080800000022251515152A585454A7
:10035000542200000000000C1212120A7625291106
:10036000916E00000006060403000000000000007B
:1003700000000000004020101008080808080810BD
:10038000102040000002040808101010101010087F
:10039000080402000000000008086B1C1C6B080821
:1003A0000000000000000000080808087F08080896
:1003B0000800000000000000000000000000000035
:1003C000060604030000000000000000FE0000001C
:1003D000000000000000000000000000000000001D
:1003E000060600000000804040202010100808048D
:1003F00004020200000000182442424242424242EB
:1004000024180000000000080E0808080808080862
:10041000083E00000000003C424242202010080438
:10042000427E00000000003C424220182040404232
:10043000221C0000000000203028242422227E20DC
:10044000207800000000007E0202021A264040428E
:10045000221C0000000000382402021A26424242F8
:10046000241800000000007E22221010080808084E
:10047000080800000000003C424242241824424286
:10048000423C0000000000182442424264584040B0
:10049000241C0000000000000000181800000000EC
:1004A0001818000000000000000000080000000014
:1004B000000808040000004020100804020408108E
:1004C000204000000000000000007F0000007F00CE
:1004D0000000000000000002040810204020100866
:1004E000040200000000003C424246402010100080
:1004F000181800000000001C225A555555552D4271
:10050000221C00000000000808181414243C224299
:1005100042E700000000001F2222221E2242424227
:10052000221F00000000007C424201010101014243
:10053000221C00000000001F22424242424242426E
:10054000221F00000000003F4212121E121202423F
:10055000423F00000000003F4212121E121202022F
:10056000020700000000003C22220101017121224B
:10057000221C0000000000E7424242427E4242420A
:1005800042E700000000003E0808080808080808C4
:10059000083E00000000007C101010101010101019
:1005A0001010110F0000007722120A0E0A121222F8
:1005B000227700000000000702020202020202028B
:1005C000427F000000000077363636362A2A2A2A73
:1005D0002A6B0000000000E346464A4A525252622B
:1005E000624700000000001C22414141414141415D
:1005F000221C00000000003F424242423E02020232
:10060000020700000000001C2241414141414D53BE
:10061000321C60000000003F4242423E1212222281
:1006200042C700000000007C424202041820404201
:10063000423E00000000007F49080808080808083A
:10064000081C0000000000E742424242424242428F
:10065000423C0000000000E7424222242414141807
:10066000080800000000006B4949494955553622E9
:1006700022220000000000E7422424181818242435
:1006800042E700000000007722221414080808083E
:10069000081C00000000007E212010100804044205
:1006A000423F000000780808080808080808080801
:1006B000080878000000020204040808081010204E
:1006C00020204040001E10101010101010101010AC
:1006D00010101E0000384400000000000000000060
:1006E000000000000000000000000000000000000A
:1006F000000000FF000608000000000000000000ED
:1007000000000000000000000000003C427844426D
:1007100042FC0000000000030202021A264242428C
:10072000261A000000000000000000384402020207
:10073000443800000000006040404078444242429B
:1007400064D80000000000000000003C427E02026D
:10075000423C0000000000F08808087E08080808F5
:10076000083E0000000000000000007C22221C0265
:100770003C42423C000000030202023A464242422E
:1007800042E700000000000C0C00000E08080808FA
:10079000083E0000000000303000003820202020FB
:1007A0002020221E0000000302020272120A16120A
:1007B000227700000000000E080808080808080852
:1007C000083E0000000000000000007F929292921C
:1007D00092B70000000000000000003B4642424289
:1007E00042E70000000000000000003C424242429C
:1007F000423C0000000000000000001B2642424274
:10080000221E02070000000000000078444242421D
:10081000447840E000000000000000774C0404042D
:10082000041F0000000000000000007C42023C4069
:10083000423E0000000000000008083E08080808CA
:100840000830000000000000000000634242424205
:1008500062DC000000000000000000E742242414D5
:100860000808000000000000000000EB4949555551
:100870002222000000000000000000762418181852
:10088000246E000000000000000000E74224241451
:1008900018080807000000000000007E2210080869
:1008A000447E000000C02020202020102020202096
:1008B0002020C00010101010101010101010101078
:1008C000101010100006080808080810080808088A
:1008D00008080600AAAA5555AAAA5555AAAA555508
:1008E000AAAA5555000000040A0E0A0A609060404A
:1008F0009060000000000000000000000040AF40D9
:100900005354414E4442590053797374656D206FBE
:100910006E6C696E6521000053656E736F72732093
:100920006A7573742072656164210000257300008C
:100930004F4B0000424548C39656455220534B55F5
:1009400047474100424548C396564552204C4A55B8
:100950005300000025000000222573223A00000009
:100960005B0000002C0000007B226E616D65223A66
:10097000222573222C22737461747573223A222506
:1009800073222C2263757272656E7453756E223AEF
:1009900025642C2263757272656E744D6F69737471
:1009A000223A25642C2263757272656E7454656DEB
:1009B00070223A25642C22696465616C4D6F6973FD
:1009C00074223A25642C22696465616C53756E2229
:1009D0003A25642C22696465616C54656D70223A15
:1009E00025642C226D696E4D6F697374223A2564FB
:1009F0002C226D696E53756E223A25642C226D6926
:100A00006E54656D70223A25642C226D61784D6FAD
:100A1000697374223A25642C226D617853756E22B5
:100A20003A25642C226D617854656D70223A2564F4
:100A30007D0000005D0A0000696E207265636569D3
:100A4000766520636F6D6D616E64730072656E64B0
:100A50006572416C6C506C616E74730067657441B3
:100A60006C6C506C616E7473000000007472616E87
:100A7000736D697420696E2073657373696F6E009E
:100A800022636D64223A220022636D64223A222599
:100A900031345B5E225D2200616464506C616E746F
:100AA00000000000226E616D65223A220000000005
:100AB000226E616D65223A22255B5E225D22000076
:100AC000696465616C4D6F69737400006964656188
:100AD0006C53756E00000000696465616C54656D4F
:100AE000700000006D696E4D6F6973740000000046
:100AF0006D696E53756E00006D696E54656D7000A2
:100B00006D61784D6F697374000000006D617853FA
:100B1000756E00006D617854656D70004E4557200C
:100B2000504C414E542041444445442100000000B3
:100B300042414420434F4D4D414E443A0000000095
:100B4000483B0000983A00009E3A0000983A0000A6
:100B50003A3B0000983A00009E3A0000483B0000F3
:100B6000483B00003A3B00009E3A00007E3A0000FD
:100B70007E3A00007E3A0000A23A00004E3F00009C
:100B80004E3F0000663F0000483F0000483F000025
:100B9000F43F0000663F0000483F0000F43F0000C3
:100BA000483F0000663F0000463F0000463F00000F
:100BB000463F0000F43F0000544C00007E4C000013
:100BC000A64C00007E4C0000F24C00007E4C000061
:100BD000A64C0000544C0000544C0000F24C0000A5
:100BE000A64C0000664C0000664C0000664C0000FD
:100BF000AA4C00005E4E00005E4E0000764E0000E3
:100C00005A4E00005A4E0000BC4E0000764E0000C6
:100C10005A4E0000BC4E00005A4E0000764E0000B6
:100C2000584E0000584E0000584E0000BC4E0000C8
:100C30000001020203030303040404040404040483
:100C40000505050505050505050505050505050554
:100C50000606060606060606060606060606060634
:100C60000606060606060606060606060606060624
:100C70000707070707070707070707070707070704
:100C800007070707070707070707070707070707F4
:100C900007070707070707070707070707070707E4
:100CA00007070707070707070707070707070707D4
:100CB00008080808080808080808080808080808B4
:100CC00008080808080808080808080808080808A4
:100CD0000808080808080808080808080808080894
:100CE0000808080808080808080808080808080884
:100CF0000808080808080808080808080808080874
:100D00000808080808080808080808080808080863
:100D10000808080808080808080808080808080853
:100D20000808080808080808080808080808080843
:100D300000202020202020202020282828282820AB
:100D400020202020202020202020202020202020A3
:100D5000208810101010101010101010101010100B
:100D600010040404040404040404041010101010FB
:100D700010104141414141410101010101010101C5
:100D80000101010101010101010101011010101017
:100D90001010424242424242020202020202020297
:100DA00002020202020202020202020210101010EB
:100DB0002000000000000000000000000000000013
:100DC0000000000000000000000000000000000023
:100DD0000000000000000000000000000000000013
:100DE0000000000000000000000000000000000003
:100DF00000000000000000000000000000000000F3
:100E000000000000000000000000000000000000E2
:100E100000000000000000000000000000000000D2
:100E200000000000000000000000000000000000C2
:100E300000000000232D302B20000000686C4C00C7
:100E40006566674546470000303132333435363702
:100E500038394142434445460000000030313233C6
:100E600034353637383961626364656600000000E6
:100E7000412D46612D6638393031323334353637BD
:100E80005D0000002B2D000030300000785800007D
:100E90000000000000000000000000000000000052
:100EA0000000000000000000000000000000000042
:100EB0000000000000000000000000000000000032
:100EC0000000000000000000000000000000000022
:100ED0000000000000000000000000000000000012
:100EE0000000000000000000000000000000000002
:100EF000130101812326117E2324817E2322917EEA
:100F00002320217F232E317D232C417D232A517DD7
:100F10002328617D2326717D05691301019314083F
:100F2000130709E83697FD77BA973EC623A407183A
:100F300023A6071897300000E78040FB9730000099
:100F4000E780E0FE97300000E780E0059730000082
:100F5000E780A090014597100000E780008F0545CD
:100F600097200000E780809597200000E780609739
:100F70000147930600051306000A814501459720A5
:100F80000000E780E0E297100000E780001F0145C5
:100F900097100000E780A0FD054597200000E7803E
:100FA000007A97000000E780404501459720000047
:100FB000E78060D93716000805479306007E1306C0
:100FC00006908145014597200000E78040F1B71A5F
:100FD000000813858A9097200000E78020747D7BAD
:100FE0001408130709E8CA8736979309CB18BA99EA
:100FF000138707E8938707E813090B193697130A35
:101000008B18B69701448144B70B00203A993E9A59
:1010100083A70B0B05046358F000CE854A859730F3
:101020000000E78080A597300000E78040EF6DD199
:1010300097300000E780A0F397300000E780C0F908
:1010400085049307803EE395F4FC528597300000B9
:10105000E780808A0DC1F24599CD4A85972000002E
:10106000E78080340DC93715000813058591972056
:101070000000E780A06A9355844001459730000046
:10108000E780E0F8A285054597300000E78020F86A
:1010900001448144B5BF13858A90D1BF4111B72760
:1010A000014006C693870740630BF500B737014040
:1010B000938707806303F502B240410182801305E4
:1010C000903097000000E780804413059030B240D4
:1010D000410117030000670003451305A030970086
:1010E0000000E780C0421305A030D5B7B727014004
:1010F00003A74740B706F1FFFD16758F23A2E7400F
:1011000003A74740598D23A2A740828093F705107B
:1011100013F7054089890DC289C75C4193E7071021
:101120005CC109C75C4193E707405CC189C51C45A8
:1011300093E727001CC5828089C75C4193F7F7EFCE
:101140005CC109C75C4193F7F7BF5CC1EDD51C4595
:10115000F59BCDB71C4599C5056713070780D98F47
:101160001CC582807D771307F77FF98FD5BF1C459B
:10117000858B89E71C4593E717001CC582801C45B9
:101180001307850093E787001CC51C43A18BF5FF5F
:101190001C4593E747001CC51C43918BF5FF8280DB
:1011A0003727014083278740B7068000D58F232447
:1011B000F740828085476386F50089476382F502A0
:1011C00082805C55370710FF7D17F98F5CD55C5521
:1011D0007D1652063707F000798E5D8E50D58280DD
:1011E0001C5D3707D0FF7D17F98F1CDD1C5D7D1658
:1011F000520637073000798E5D8E10DD82801547EC
:101200006363B704B385E50203284503FD47B3973D
:10121000B70093C7F7FFB3F70701B315B600DD8D2D
:101220004CD9A54763E9C7068D473306F6020C493A
:101230001D473317C7001347F7FF6D8F3396C6005E
:10124000598E10C98280AD4763E3B702E915B385B3
:10125000E50203280503FD47B397B70093C7F7FFDF
:10126000B3F70701B315B600DD8D0CD95DBFBD47DF
:10127000E3E9B7FAD115B385E5020328C502FD47B6
:10128000B397B70093C7F7FFB3F70701B315B600DD
:10129000DD8D4CD579B7C54763E1C7028D47591637
:1012A0003306F60258459D47B397C70093C7F7FF2B
:1012B000F98F3396C600D18F5CC582801C5D7D4757
:1012C00003288503D1838D8BB385B740ED57B38554
:1012D000F502A547BD053317B7001347F7FF33776E
:1012E0000701B315B600D98D0CDD63E1C7020D47C8
:1012F0003306E6021C491D473317C7001347F7FFA3
:101300007D8F3396C600598E10C98280C54763E130
:10131000C7028D4759163306F60258459D47B397C5
:10132000C70093C7F7FFF98F3396C600D18F5CC50E
:10133000828085476386F5008947638DF50082804A
:101340001445B705F2FFFD15ED8E14C51845518FF4
:1013500018C582801845E576FD16758F18C51C45A1
:10136000D18F1CC5828093F71500898909CE91C75A
:101370001C4537071000D98F1CC589C51C4521673E
:10138000D98F1CC5828099C71C453707F0FF7D1790
:10139000F98F1CC5E5D91C4561777D17F98FD5B745
:1013A00093F7150091C71C4537074000D98F1CC51E
:1013B000898991C51C4537072000D98F1CC58280BB
:1013C000684542054181828008416D8D3335A0001A
:1013D00082801C4193C5F5FFFD8D0CC182804111B7
:1013E00006C697000000E780C015B2404101170310
:1013F00000006700E315F3670430828017130000D4
:101400006700C39E011106CE22CC32C42A842EC6A8
:1014100097100000E780409BB2452285971000009E
:10142000E780209F224622856244F240B285056112
:1014300017130000670063A393F7050193F8F50005
:1014400099C3B3E8C8008147054EBD4E130F800213
:10145000930F800421433316FE00758E1DC213972F
:101460002700832205003398EE001348F8FF3378F5
:1014700058003397E800336707016399E50550C9C1
:1014800018C18507E39967FC054EBD4E130F800216
:10149000930F800441433316FE00758E05C61397E3
:1014A00027000117832245003398EE001348F8FF08
:1014B000337858003397E80033670701639CE501F0
:1014C00050C958C18507E39867FC8280E39AF5FB11
:1014D00010C97DB7E397F5FF10C9E5B70CC9828045
:1014E0004CC98280377700401C4393E707101CC328
:1014F0008280B7170240135765003E971443854713
:10150000B397A700D58F1CC38280B717024013572B
:1015100065003E9714438547B397A700D58F1CC33A
:101520008280B7170240135765003E9714438547E2
:10153000B397A70093C7F7FFF58F1CC382803717B7
:1015400002401C53C166D58F1CD38280B71602405F
:101550009C5241777D17F98F9CD28280B717024049
:10156000DC433747FFEF7D17F98F1547630EE50022
:101570006369A7000D476370A702371702405CC379
:1015800082801D47E31BE5FE3A053177798D5D8D3D
:10159000B707001011A03A05C98FC5B73717024029
:1015A0001C5393F7F7CF5D8D08D3828013576500E6
:1015B000B71702403E971C4333D5A70005898280A8
:1015C000411106C622C426C2E9476307F50E63EF40
:1015D000A700C1476304F504E1476302F50C59C154
:1015E0000145B24022449244410182809307058024
:1015F000A1CB8567138707906302E508F147E311E4
:10160000F5FE370410007D14754597000000E78053
:1016100020FA19E17D146DF8754521A841647D1407
:10162000454597000000E780A0F819E17D146DF8AA
:10163000454597000000E780A0F73335A00055B777
:101640003704000485647D149384148026859700F4
:101650000000E780E0F519E17D146DF805651305DC
:101660001580C1BF13040050054597000000E780B6
:1016700020F419E17D146DF8054565BF37041000AD
:101680007D1493841790268597000000E78040F230
:1016900019E17D146DF805651305159059BF3704E0
:1016A00010007D14654597000000E78060F019E1A7
:1016B0007D146DF86545B5BF370410007D146D4588
:1016C00097000000E780C0EE19E17D146DF86D45CC
:1016D0008DB7B7170240135765003E9714438547EF
:1016E000B397A700D58F1CC382807971B705000816
:1016F00022D441462A8493850528080806D69750A7
:101700000000E780E08EB70703049387172002C02C
:101710003EC202C43EC6371702405C4389468983F5
:101720008D8B6397D70E5C439396F70063D60606BE
:101730005C579396F70063DC06045C575857918317
:101740002183BD8B3D8B938617000907C547631323
:10175000F7005147B7177A0093870720B3D7D7020E
:10176000B387E7023717024058573D8B050733D739
:10177000E702B7160240DC42D442C9831396260022
:10178000BD8B6350060293E7070185070DA0B717CD
:101790007A0093870720F9B7B7173D0013870790A2
:1017A000C9BFBD46E383D7FE8907638DD704B387DE
:1017B000E702B7160240D842101011833D8B3297D2
:1017C000034507FFD84233D5A70021831D8B3297ED
:1017D000034607FED84214102D831D8B369785468D
:1017E000034787FE630CD40005CC89476307F402E6
:1017F0008D473355E5006303F4000145B250225490
:10180000456182809947B307F7020583BA9755B7B8
:10181000B7177A009387072069BF3355C500F9BF12
:101820003E85E9BF373700408327478093E70701AC
:101830002322F78082803737004083274780BD9B73
:101840002322F7808280011106CE2AC6970000006D
:10185000E78080FD3245B7370040F240135705015D
:10186000420523ACE780418123AEA78005611703C1
:101870000000670083FC011106CE2AC69700000015
:10188000E78080FA324537370040F2409357050130
:10189000BD8B42052324F78041812326A780056163
:1018A00017030000670063F937370040832747803C
:1018B00093F70702E5DF82803737004083274780B0
:1018C000DD9B2322F78083274780A18BEDDF828079
:1018D000B737004083A78781B736004003A5C6818C
:1018E00003A786816395E700C2075D8D8280BA8772
:1018F000F5B7B737004003A747801345F5FF798D4B
:1019000023A2A78082802320050023220500232410
:10191000050023260500232A0500232C05008280CC
:101920001C410D6713070704D4417D8F9C41D58F5F
:101930009445D58FD445D58F9449D58FD449D58F2B
:10194000944DD58FD98F1CC15C4D7D771307F77FE0
:10195000F98F5CCD82801C4193E707041CC1828013
:101960004CC5828048454205418182801C410967FF
:10197000D98F1CC10CC9828008456D8D3335A000FC
:1019800082804111B757004006C6138707C063091C
:10199000E506636FA7003747004013070740630F52
:1019A000E502938707806304F504B2404101828019
:1019B0006301F506B747014093870780E317F5FEFB
:1019C0001305E03097000000E78060B41305E030B5
:1019D000B2404101170300006700E3B41305104152
:1019E00097000000E780A0B213051041D5B713059A
:1019F000204197000000E78080B113052041C9BF56
:101A00001305304197000000E78060B013053041B6
:101A1000C1B71305404197000000E78040AF1305B0
:101A200040417DB74111B757004022C426C206C6C7
:101A3000138707C02A84AE84630FE500636FA70095
:101A400037470040130707406307E5009387078087
:101A500001456312F402094519A8E30EF5FEB747E4
:101A600001409387078001456317F4000D459700F7
:101A70000000E780C0C793D71400AA97B3D7970296
:101A8000B2409244C207C1831CC4224441018280F7
:101A90005C4593F7F79F5CC55C45DD8D4CC5828046
:101AA0005C457D777D17F98F5CC55C45DD8D4CC548
:101AB00082801C4975777D17F98F1CC91C49DD8D03
:101AC0000CC982805C450967D98F5CC582805C4502
:101AD000DD9BDD8D4CC582805C45ED9BDD8D4CC56D
:101AE000828093F5F51F4CC1828048411375F51F24
:101AF00082805C4993F7F7EFDD8D4CC982805C49A9
:101B000093F7F7DFDD8D4CC9828093D7650093F79B
:101B1000F73F3E9508413355B5000589828093D73C
:101B2000650093F7F73F3E9518418547B397B70097
:101B3000D98F1CC1828013D765001377F73F3A9580
:101B400018418547B397B70093C7F7FFF98F1CC1BA
:101B5000828013D765001377F73F2A97144313D772
:101B600065012A97184313D5050185473395A700CA
:101B7000798D11C53395B700758D3335A0008280FE
:101B8000B71702409843B706FFE0B1061367170086
:101B900098C3D843758FD8C39843B706F7FEFD1690
:101BA000758F98C39843B706FCFFFD16758F98C3D1
:101BB000D843B70601DFFD16758FD8C323A60702E9
:101BC0009843B706F7EAFD16758F98C33707FF00ED
:101BD00098C794434167D98E94C39307F7FF37178B
:101BE000024014431396E60063440600FD17F5FB1C
:101BF000B717024098439316E70063C3060001A09D
:101C0000D843B706C4DFFD16D8C3D843D8C3D843DA
:101C100013670740D8C3D843758FD8C3D843B706D6
:101C20002920558FD8C3D857BD76758FD8D7D857A8
:101C3000C166938616F1558FD8D79843B70600042E
:101C4000558F98C3B7170240984393164700E3DDBA
:101C500006FE9843B7060010558F98C3B717024089
:101C6000984393162700E3DD06FE9843B70600016C
:101C7000558F98C3B7170240984393166700E3DD6A
:101C800006FED843719BD8C3D84313672700D8C337
:101C9000371702405C43A18BF5DF82807971B7056D
:101CA000000822D47D462A84938505290A8506D614
:101CB00097400000E780C03379468A8509459750F0
:101CC0000000E780E081A285094597000000E780D9
:101CD000C004B705000805469385052C09459740C3
:101CE0000000E780E07F01A03707002013074708C6
:101CF0001C43B7160020938606E63E95636BD5001D
:101D0000B77600209386060063E5A60008C33E85EB
:101D10008280FD57EDBF79714ECEAE89B7050008C0
:101D200009469385052B22D426D24AD052CC56CAD6
:101D300006D62A89714497400000E780607A3D4AC0
:101D4000A54AF154B3178A00B3F73701B3D7870018
:101D500093F7F70F63ECFA029387070393F7F70FF4
:101D600005469305F1004A857114A307F1009740D9
:101D70000000E780E076E31794FCB25022549254BE
:101D80000259F249624AD24A4561828093877703B9
:101D9000F1B7B70700D1D8438843CC43E39DE5FEB4
:101DA0008280B70700D223800700A38507001205B1
:101DB000B71700D23E9563E3A700828023A00700F7
:101DC000C107D5BFB71700D285070A053E958547DD
:101DD0002300F5008280B7078034938707403E9543
:101DE0000A05230005008280370700D283470700D9
:101DF0000605798993F7170E5D8D2300A700828071
:101E0000B70700D203C5070005813D8982804111D3
:101E100022C426C206C62A84AE8497000000E7804A
:101E200060FE9147114763E3A7002A87371500D268
:101E30000A040D052295834705009376F70FA14507
:101E4000B397E70093F7F70F958DB394B400B3D72A
:101E5000E740C58F93F7F70F2300F500B240224407
:101E6000924441018280011122CC2EC606CE2A84E2
:101E700097000000E78000F98D47814563E9A702DC
:101E8000371700D20A040D07229783470700B2458F
:101E9000A1463385A6409205B3D7A74093F5F50F29
:101EA000B397A700CD8F93F7F70F2300F700F24009
:101EB00062442E8505618280F327503093F707FC3A
:101EC00093E73700739057308280B71700D28907A5
:101ED0000A053E958347050093E717002300F500A8
:101EE0008280B7050008411115469385452B0545AD
:101EF00006C697400000E780A05E054597000000F9
:101F0000E78000DA41119347F5FF22C406C6139714
:101F100047012A8409E797000000E780C0FCB70565
:101F2000000815469385C52B054597400000E780BE
:101F3000205B228597000000E78080D6411106C60D
:101F400097000000E78000C41305700597000000AB
:101F5000E78060E597000000E78040F6B24041016D
:101F600017E3FFFF6700632E8280411126C2AA8417
:101F70001305206006C622C497F0FFFFE780A05734
:101F80001305906097F0FFFFE780E0560D4597F04E
:101F9000FFFFE780E05C37150140A146014681451F
:101FA0001305058097F0FFFFE78040493724014083
:101FB0001305044097F0FFFFE780800E014597F07E
:101FC000FFFFE780E012014689451305044097F0C2
:101FD000FFFFE780E013014693050010130504405E
:101FE00097F0FFFFE780C01281451305044097F08A
:101FF000FFFFE7806016054685451305044097F00E
:10200000FFFFE780601B89460D46814513050440AC
:1020100097F0FFFFE780E01E37060E0085451305A9
:10202000044097F0FFFFE780003105468545130522
:10203000044097F0FFFFE78040339DCC05469305B1
:1020400000401305044097F0FFFFE780600C054651
:1020500089451305044097F0FFFFE780E01597F0EE
:10206000FFFFE78020149D4641468145130504404B
:1020700097F0FFFFE780C024372401401305044098
:1020800097F0FFFFE780E00E1305044097F0FFFF95
:10209000E780200F130504402244B2409244854556
:1020A000410117F3FFFF6700E32F011126CAAE8439
:1020B000854522CC4AC84EC606CE2A84014997F0EF
:1020C000FFFFE780202EB7090008A685228597F03C
:1020D000FFFFE780A02F0DC5228597F0FFFFE78067
:1020E000602E2A89A685228597F0FFFFE780A02E23
:1020F000F24062444A85D2444249B2490561828035
:10210000E31509FC97100000E780E0C3054793063C
:10211000007E1386492C914513052003971000007B
:10212000E780E0DB054955B7411122C406C62A8481
:1021300089453735014097000000E78020846DD93C
:10214000A2853735014097000000E780A0818545D2
:102150003735014097000000E78040826DD9373560
:10216000014097000000E7802080B24022441375B0
:10217000F50F4101828079711305206006D622D4C3
:1021800097F0FFFFE78020371305C06097F0FFFF4F
:10219000E78060363714014013050480C1460D46C0
:1021A000C14597F0FFFFE78060291305048093067F
:1021B000000A0D46E14597F0FFFFE78020289306CF
:1021C00000040D4613050480914597F0FFFFE7805A
:1021D000E026C1451305048097F0FFFFE7804030FB
:1021E000480097F0FFFFE7804072930740103EC21F
:1021F0008D473ECC930700204C003EC83735014048
:10220000930700023ECE02C402C602CA97F0FFFF47
:10221000E78040713735014097F0FFFFE780E073BA
:10222000C1451305048097F0FFFFE780A02B13053D
:10223000000897000000E78060EF1305100D97007D
:102240000000E780A0EE13050480C14597F0FFFF72
:10225000E7800029B250225445618280411126C294
:10226000B7140140C1451385048006C622C44AC084
:1022700097F0FFFFE7800027054597000000E78003
:10228000E0EA1305F00F97000000E78020EA2A84B7
:102290001305F00F97000000E78040E92A89C14547
:1022A0001385048097F0FFFFE780802313158400D7
:1022B00033652501B24022444205418192440249DE
:1022C000058141018280411122C437040020130797
:1022D00004091C4306C626C285071CC31307800CCD
:1022E000B3E7E70213040409D1E797000000E78091
:1022F00020F797400000E7800090B707000883A50B
:10230000472DB70400209384840997300000E780AC
:10231000C05AB707000883A5872D97300000E780D3
:10232000C05997400000E7802097B707000803A630
:10233000072E83A6472E97300000E780A085B707B9
:10234000000803A6872E83A6C72E97200000E780EB
:1023500000E197400000E780009E8C40973000002D
:10236000E78020FFB707002093874709984388C07C
:10237000050798C318409307703E63D9E7042320EC
:102380000400370400201304440908406350A004EB
:10239000B704002097300000E780E0799384840937
:1023A000AA85884097300000E780C02B41672A86C5
:1023B0007D17914693058002194597100000E7802C
:1023C00080C2930700009CC023200400B240224436
:1023D000924441018280011126CAB70400209384EF
:1023E000040A9C4022CC4AC84EC652C456C2370981
:1023F000002006CE2A842E8AB28AB6891309C9091A
:1024000085EFB70700D2C8434E054D8188C09700BD
:102410000000E780409997000000E78020AA8840EC
:102420000A0597400000E78060BB2320A9000D4506
:1024300097F0FFFFE780C0FC228597000000E7804F
:10244000C09913F6FA0F9375FA0F228597F0FFFFE4
:10245000E78080FB228597000000E78040A7228567
:1024600097000000E7804096832709000A04F240A5
:102470003E94232034016244D2444249B249224A64
:10248000924A0561828039713ECCB707002083A74C
:10249000C70906DE16DCDC4F1ADA1ED82AD62ED47F
:1024A00032D236D03ACE42CA46C872C676C47AC252
:1024B0007EC08297F250E2525253C2533255A25517
:1024C000125682567247E2475248C248324EA24ED6
:1024D000124F824F21617300203039713ECCB70713
:1024E000002083A7C70906DE16DC83A7070E1ADAC9
:1024F0001ED82AD62ED432D236D03ACE42CA46C8B8
:1025000072C676C47AC27EC08297F250E2525253AB
:10251000C2533255A255125682567247E24752486C
:10252000C248324EA24E124F824F216173002030BA
:1025300039713ECCB707002083A7C70906DE16DC39
:1025400083A747111ADA1ED82AD62ED432D236D013
:102550003ACE42CA46C872C676C47AC27EC0829754
:10256000F250E2525253C2533255A255125682567D
:102570007247E2475248C248324EA24E124F824F33
:1025800021617300203079714AD04ECE5AC806D6E8
:1025900022D426D252CC56CA5EC662C466C22A8BE8
:1025A00097F0FFFFE780207FAA892E8997F0FFFF31
:1025B000E780607EAA842E846394A900E308B9FEB4
:1025C000B717000803A9878F83A9C78FB70B00200F
:1025D00097F0FFFFE780207CAA87058DB3B7A7009F
:1025E000818D9D8D97300000E78040C02A8A03A529
:1025F0000B08AE8A97300000E780E0B94A86CE86A5
:1026000097200000E780A0B52A8C5A85AE8C9730C1
:102610000000E78040B82A86AE866285E68597206E
:102620000000E78060122A86AE865285D685972004
:102630000000E7802007E34D05F8B2502254925481
:102640000259F249624AD24A424BB24B224C924C56
:1026500045618280411122C4B70700203704002061
:102660000327840A83A7C70A06C626C2630AF70897
:102670003745004089451305058097F0FFFFE78047
:10268000E02F2DC589653715014097F0FFFFE780E2
:1026900060E51304840A1440B70700201387870CF1
:1026A0008A06369714431307F00F9384870CA165AD
:1026B000371501406351D70497F0FFFFE78040E2F0
:1026C0001C403745004013050580138717008A0713
:1026D000A69783C5070018C097F0FFFFE780802802
:1026E0001C4013070010B3E7E7021CC0B2402244AD
:1026F00092444101828097F0FFFFE780A0DEC9B7D6
:102700002244B2409244896537150140410117F3D4
:10271000FFFF6700E3DC411122C426C206C6B704EE
:1027200000203704002003A7840A8327C40A631704
:10273000F700B24022449244410182809700000099
:10274000E78080F1CDB7011122CC26CA4AC806CE57
:102750003709002093040010370400201306C90A2B
:102760001C428326840A138717003367970263018C
:10277000D70293962700B7070020F2406244938760
:10278000870CB69788C318C2D2444249056182803B
:102790002AC697000000E78020EC3245C1B74111FE
:1027A00022C42A8421851305051006C6970000005F
:1027B000E780A0F91375F40F2244B2401305051009
:1027C000410117030000670043F8011122CC26CA1B
:1027D00037040020AA841305A00206CE36C22EC6F6
:1027E0001304440A32C497000000E78000F6034552
:1027F0002400269597000000E780A0FA22460345B2
:102800002400329597000000E780A0F91305B0027C
:1028100097000000E78060F3B245034534002E9531
:1028200097000000E780E0F70345340092463695B4
:1028300097000000E780E0F66244F240D2441305BE
:10284000C002056117030000670023F079718965F4
:102850003715014006D622D497F0FFFFE78040C825
:10286000480097F0FFFFE780400A930740103EC200
:102870008D47374400403ECC930700203EC84C00B3
:10288000A147130504803ECE02C402C602CA97F0D7
:10289000FFFFE7802009130504809D4597F0FFFFA7
:1028A000E780000D1305048097F0FFFFE780E00A42
:1028B000B25022544561828009E9B707011A3707EF
:1028C000002085072322F70A82808547E31EF5FE54
:1028D000B70700183707002093871710E5B7B70729
:1028E000002003C7470A411122C406C61384470AC1
:1028F00011E7014597000000E78040FC13053060B8
:1029000097F0FFFFE78020BF1305406097F0FFFFBF
:10291000E78060BE1305006097F0FFFFE780A0BD71
:102920001305E07097F0FFFFE780E0BC371501402A
:10293000B9660D46E145130505C097F0FFFFE78036
:10294000E0AFA9660D46C1453715014097F0FFFF7E
:10295000E780C0AE97000000E78080EFA9653715DB
:10296000014097F0FFFFE780E0B797000000E780A5
:10297000C0DA1305400697000000E78000C1054556
:1029800097000000E78060DC97000000E780E0D857
:102990001305800797000000E78020BF454597009A
:1029A0000000E78080DA97000000E78000D7130579
:1029B000400697000000E78040BD834714001305E0
:1029C000200299E31305100297000000E780E0D78A
:1029D0001305100B97000000E78020D71305501057
:1029E00097000000E78060D61305A0139700000051
:1029F000E780A0D51305A01397000000E780E0D47E
:102A00001305200B97000000E78020D41305501019
:102A100097000000E78060D31305A0139700000023
:102A2000E780A0D21305A01397000000E780E0D153
:102A30001305300B97000000E78020D113055010DC
:102A400097000000E78060D01305A01397000000F6
:102A5000E780A0CF1305A01397000000E780E0CE29
:102A60001305501097000000E78020CE1305A01337
:102A700097000000E78060CD1305A01397000000C9
:102A8000E780A0CC1305400B97000000E780E0CB67
:102A90001305301097000000E78020CB1305000CD1
:102AA00097000000E78060CA130520169700000019
:102AB000E780A0C91305201097000000E780E0C858
:102AC0001305401097000000E78020C81305100C84
:102AD00097000000E78060C71305001C9700000006
:102AE000E780A0C61305200C97000000E780E0C532
:102AF0001305D01097000000E78020C513050010D3
:102B000097000000E78060C41305300C97000000B8
:102B1000E780A0C31305D01897000000E780E0C24B
:102B20001305A01697000000E78020C21305400C93
:102B300097000000E78060C11305D01897000000DF
:102B4000E780A0C01305E01E97000000E780E0BF0B
:102B50001305500C97000000E78020BF1305E0101C
:102B600097000000E78060BE1305000E970000008C
:102B7000E780A0BD1305001197000000E780E0BCCE
:102B80001305E01097000000E78020BC130520101B
:102B900097000000E78060BB13053010970000002D
:102BA000E780A0BA1305E01097000000E780E0B9C5
:102BB0001305701097000000E78020B9130520105E
:102BC00097000000E78060B81305701097000000C0
:102BD000E780A0B71305A01097000000E780E0B6DB
:102BE0001305201197000000E78020B6130570122E
:102BF00097000000E78060B5130570139700000090
:102C0000E780A0B41305001097000000E780E0B350
:102C10001305D01097000000E78020B31305E010E3
:102C200097000000E78060B21305001197000000D4
:102C3000E780A0B11305100E97000000E780E0B018
:102C40001305001197000000E78020B01305E01085
:102C500097000000E78060AF130530109700000078
:102C6000E780A0AE1305301097000000E780E0ADCC
:102C70001305F01097000000E78020AD13056010E9
:102C800097000000E78060AC13052010970000005B
:102C9000E780A0AB1305801097000000E780E0AA52
:102CA0001305A01097000000E78020AA130530113B
:102CB00097000000E78060A91305601297000000EC
:102CC000E780A0A81305601397000000E780E0A745
:102CD0001305001097000000E78020A71305D0100F
:102CE00097000000E78060A61305E0109700000041
:102CF000E780A0A51305001197000000E780E0A47D
:102D00001305A00397000000E78020A413055010CE
:102D100097000000E78060A31305600397000000A0
:102D2000E780A0A21305801797000000E780E0A1CC
:102D30002244B240130590024101170300006700CE
:102D4000C3A041114AC09306F0042A891306F00972
:102D50008145014526C206C622C49304000A970095
:102D60000000E780C0A6130400054A857D14970083
:102D70000000E78000A375F8FD14F5F4B24022448A
:102D80009244024941018280411122C4AE863284BC
:102D90002A8606C697000000E78060A322852244A9
:102DA000B2404101170300006700A39F011122CC2C
:102DB0004AC84EC652C456C206CE26CAAA892E8416
:102DC000328A3689BA8A97000000E78040A063758E
:102DD0008902F2406244D2444249B249224A924AAC
:102DE00005618280568597000000E780809B8504FE
:102DF000E37A9AFE0504E1BFCE84DDBF9307800924
:102E000063ECA70C797122D406D626D24AD04ECED6
:102E100052CC56CA5AC85EC6930700042E8463E695
:102E2000B706B284811493F4F40FB68A13067500C2
:102E30009386F50013994400B7040008AA893A8ADA
:102E40009384442F97000000E7806098639A0A04F7
:102E50008149B71B0020414BB3073901A69783CAAC
:102E60000700214493F71A00528599E303A54BD537
:102E70007D141374F40F97000000E780809293DABA
:102E80001A006DF08509E39969FDB25022549254FD
:102E90000259F249624AD24A424BB24B45618280A2
:102EA000CA94130B0401A14B83CA0400014993F790
:102EB0001A0089CB5286A28533852901970000002C
:102EC000E780C0EC050993DA1A00E31279FF0504E4
:102ED0008504E31B64FD55BF8280011122CC26CA04
:102EE0004AC84EC652C456C25AC006CE2A84AE84C0
:102EF0003289B6893A8A930A8009130B0004034683
:102F0000090019EAF2406244D2444249B249224AD5
:102F1000924A024B0561828063F48A00C104014435
:102F2000E3629BFE22854E87D286A685970000002D
:102F3000E78000ED21040509D9B7797156CA938A53
:102F4000F6FF22D426D24AD04ECE52CC5AC85EC604
:102F500062C466C206D6AA8BAE89328C3A8A13F452
:102F6000FA0F814C01499304F00F294B6312940628
:102F7000B250225492540259F249624AD24A424B08
:102F8000B24B224C924C45618280B38767037D1718
:102F90001377F70FE31B97FE13953C005E95B3572D
:102FA000FC02B3F7670313F6F70F6317090263D543
:102FB0005C0395E35287814613060002CE857D149B
:102FC00097000000E780C0E3850C1374F40F79BF0D
:102FD000228785476DBF0549528781461306060340
:102FE000F1BF7971B707000852CC2E8A83A5072F4D
:102FF0004ECEAA89328506D622D426D256CA5AC8BF
:103000005EC662C4B684BA8A4AD097300000E780B0
:10301000C08A97300000E780C0ACAA8B0144130C33
:10302000F00F294B636E9400B2502254925402590F
:10303000F249624AD24A424BB24B224C45618280ED
:103040009386F4FF338786401377F70F85477D1704
:103050001377F70F631A8705B3D7FB021385E4FFD5
:1030600033F967036312A4020E0513F4F60F5687B3
:1030700081461306E002D2854E9585049700000034
:10308000E78000D893F4F40F131534005687814677
:1030900013060903D2854E95050497000000E780CA
:1030A00020D61374F40FBDBFB38767034DB703AECB
:1030B000050009436344C313130101B12322914E58
:1030C000B284371600082324814E2328614D2E84B4
:1030D000368B1306C692AA86BD450A852326114E55
:1030E0002320214F232E314D232C414D232A514D96
:1030F0004689C2893E8ABA8A97300000E780A00FCD
:10310000B7150008938505931305F100973000006B
:10311000E780A022930720033ED2BED32322F126CC
:10312000930780702320F14A2324F14A8327014F1B
:10313000084085452324F14C8327414F2320B13299
:103140002322B132232AF14A8327814F2324B1322B
:10315000232AB1482320F14C8327C14F232CB148A7
:10316000232EB1482326F14C9307004D3305F50279
:103170001307C0038A851306004D2326614B232CB9
:10318000514B2322414D2328314B232E214B02D07A
:10319000269582D123200126232601322322013ABB
:1031A000232E01402322E14A97300000E78040E4CB
:1031B0001C408320C14E8324414E85071CC003243C
:1031C000814E0329014E8329C14D032A814D832A53
:1031D000414D032B014D1301014F828082808327D3
:1031E00045320327854CED078E07AA97DC436350D1
:1031F000F702B716000837160008938646931306A1
:10320000C692BD453D05173300006700C3FE032786
:10321000C54B63DBE700B7150008938545943D0572
:1032200017330000670063118280411122C406C673
:1032300085472A846390F50E37250140894513059B
:10324000054097F0FFFFE78080E6832744321307AD
:1032500000036344F7048E07A297635305000145FA
:1032600079473345E50203A7C70D3A9523AEA70C6E
:1032700097E0FFFFE7800066832744328546139777
:1032800037002297232CA70C6391D7029307707005
:1032900063D5A70089472322F43222852244B24015
:1032A0004101170300006700C3F30327070D198DC1
:1032B000130770706375A70085072322F432032774
:1032C000443293070003E31AF7FC1307440E9306F6
:1032D0004426814710432107B297E39DE6FE054748
:1032E0002322E43213070003B3C7E7029306043A2C
:1032F000130744411043711710C7E39DE6FE2322D4
:10330000F43A832784497547E349F7F88507232C66
:10331000F44861B78947E392F5F897F0FFFFE7803B
:10332000C0FA832784326147E349F7F68E07A297F4
:1033300063530500014503A7C7253A9523AEA7248B
:1033400097E0FFFFE7800059032784329307B70413
:103350008E07A29788C3E147E311F7F413074426C9
:1033600093064432814710432107B297E31DD7FEED
:1033700005472324E4326147B3C7E702930684413B
:103380001307C4481043711710C7E39DE6FE232EB0
:10339000F4408327C4497547E341F7F08507232E9E
:1033A000F448E5BD011122CC26CA4AC84EC606CE55
:1033B0002A842E8997E0FFFFE780C051AA848149C3
:1033C000014563C92901F2406244D2444249B249ED
:1033D00005618280832744320327444AED078E0724
:1033E000A2979C43B387F44063EAE70022854E86A8
:1033F000854597000000E78080E305458327043278
:103400000327044A8D078E07A2979C43B387F44095
:1034100063E8E700228597000000E78080DC05452F
:10342000832784320327844A9387B7048E07A297A1
:103430009C43B387F44063EAE70022854E868945C2
:1034400097000000E780A0DE054585091304044DC0
:103450008DBF797126D2C16422D44ECE52CC5AC8C7
:103460005EC606D64AD056CA2E8B2A84014A930BD2
:103470007003FD14B7190008634D6A01B25022545D
:1034800092540259F249624AD24A424BB24B4561C8
:10349000828033097A0322860547A6868145050A7C
:1034A0004A8597000000E78080A38327043226879F
:1034B0008D468D078E07A297D043D1454A85970048
:1034C0000000E780C0A7930AE9010547A686138696
:1034D0004995D145568597000000E78040A0832795
:1034E000443226878D46ED078E07A297D043930579
:1034F00080024A8597000000E78060A40547A68601
:103500001386499593058002568597000000E78051
:10351000009D1306F40005479306F07F9305C00352
:103520004A8597000000E780809B1304044DA9B7EB
:10353000011126CAB7050700B744014093857530CD
:103540001385048006CE22CC4AC84EC697E0FFFF02
:10355000E780606029C9370400201304440BB707D3
:103560000020184083A7870B6304F70885451145A1
:1035700097100000E780A0A91840138504809307E6
:1035800017001CC0B70700200A079387874CBA971B
:103590008C4397E0FFFFE78000551C401307002095
:1035A000B3E7E7021CC0B705050037440140938527
:1035B00055301305048097E0FFFFE780C05915C11F
:1035C000B714002013040480370900209309F00F7A
:1035D000938484D59545228597E0FFFFE7802053AB
:1035E0000DE1F2406244D2444249B2490561828011
:1035F000930570301385048097E0FFFFE780E05368
:103600005DB7228597E0FFFFE780604E1307090B47
:103610001C43E3C1F9FC1C431375F50F9386170097
:1036200014C3A6972380A70075B7411122C437049D
:1036300000201304440BB7070020184083A7870B12
:1036400006C626C26308F704B74401409D451385AA
:10365000048097E0FFFFE780804B05C91840138581
:103660000480930717001CC0B70700200A07938740
:10367000874CBA978C4397E0FFFFE780C0461C4019
:1036800013070010B3E7E7021CC0B2402244924483
:10369000410182802244B240924437450140930563
:1036A000703013050580410117E3FFFF6700E34811
:1036B000011122CC26CA4AC806CE3709002093043D
:1036C0000020370400201306890B14428327440B83
:1036D00013871600336797026309F702B7070020C4
:1036E00062448A069387874CF240D2444249B69797
:1036F00088C318C237450140930570301305058013
:10370000056117E3FFFF6700C3412AC69700000069
:10371000E780E0F1324545BF411122C406C62A8444
:103720000345040009E5B2402244410182800504BA
:1037300097000000E78000F8E5B7411126C2AA848F
:103740001305206006C622C497E0FFFFE780A0DAD9
:103750003714014013050480930600200D46E1450F
:1037600097E0FFFFE78080CD930600400D4693056C
:1037700080041305048097E0FFFFE78020CC130549
:10378000E0603744014097E0FFFFE780C0D61305B3
:10379000048097E0FFFFE780001FF1659385052017
:1037A0001305048097E0FFFFE7800028814513059B
:1037B000048097E0FFFFE780E02D8145130504803A
:1037C00097E0FFFFE780002E81451305048097E016
:1037D000FFFFE780402E81451305048097E0FFFF3F
:1037E000E780603181451305048097E0FFFFE780A3
:1037F00040311305048097E0FFFFE780E02CA145EE
:103800001305048097E0FFFFE780A02C9145130586
:10381000048097E0FFFFE780602C8DC813050480CB
:103820009305503097E0FFFFE780A02F2244B2407D
:103830009244B73600089386065305468D45130516
:103840008003410117F3FFFF670023B9B240224410
:1038500092444101828041111305C07106C697E070
:10386000FFFFE78040C997E0FFFFE780E0C713054F
:10387000B07197E0FFFFE78000C897E0FFFFE780A7
:1038800040B6414597E0FFFFE780E0E4414597E01F
:10389000FFFFE78020D321CD1305003097E0FFFF25
:1038A000E78000D005651305F58097E0FFFFE7800E
:1038B00080C497E0FFFFE780600097E0FFFFE780AC
:1038C000E0FE3D651305354297E0FFFFE780E0FA33
:1038D00097E0FFFFE78080FD054597E0FFFFE78069
:1038E0008001B240410117E3FFFF670023FCB240B3
:1038F00041018280411122C406C62A8497E0FFFF5D
:10390000E78040FD8567938707E13375F5029307EC
:10391000C0033355F5021C4063D8A70008C0054515
:10392000B2402244410182800145DDBF1D71A2CC1D
:1039300032843716000813060696A6CACAC8CEC631
:10394000D2C4D6C2DAC05EDE86CEAA892E89368A75
:10395000814B97300000E780008A8544B71A000841
:10396000371B000833859900B305994063C44B03A6
:103970006644F640D6444649B649264A964A064B1E
:10398000F25B37160008130646A3256117330000C3
:10399000670063866359700113864A96973000006A
:1039A000E78060858504832784320327C44CA28680
:1039B0009387B7048E07A29783A847008327043212
:1039C000B3059940338599008D078E07A29703A808
:1039D00047008327443213068B96850BED078E072D
:1039E000A297DC433AD00327844C3ACE0327444CB9
:1039F0003ACC0327044C3ACA0327C44B3AC80327DE
:103A0000844B3AC60327444B3AC40327044B3AC2BB
:103A10000327C44A3AC01307F40097200000E78048
:103A2000807DAA941304044D35BF79712E86B71595
:103A3000000822D4938585952A840A8506D6973076
:103A40000000E780E0828A85228597300000E780C9
:103A5000009105C12A840A8597300000E780008F15
:103A6000229597200000E7802049B25022544561FA
:103A700082800145DDBF130101DA232A9124AA8443
:103A80000145232E1124232C81242328212523269C
:103A900031252E89232441252322512523206125E8
:103AA00097F0FFFFE780202AC16637160008054718
:103AB000130686A38145FD16014597F0FFFFE780B9
:103AC000004237070020371400208147BA891306C7
:103AD00084D5A9458326070B63D2D704B306F60025
:103AE00003C506006393A526B71500089385C5A4F2
:103AF000130584D52380060097300000E78060829C
:103B000029E197F0FFFFE78000248325090026853F
:103B100097000000E780209423A8090A8320C1258C
:103B20000324812583244125032901258329C124D8
:103B3000032A8124832A4124032B01241301012613
:103B40008280B71500089385C5A5130584D59720F5
:103B50000000E780007D31E197F0FFFFE780A01EC5
:103B6000C166371600080547FD161306C6A681452F
:103B7000014597F0FFFFE780803683260900880023
:103B800026869305002097000000E78060DA880011
:103B900097000000E78080B841B7B715000893850B
:103BA00005A8130584D597200000E780407B11C944
:103BB000B71500081018938585A897200000E780A6
:103BC0000070B7150008938585A908189720000094
:103BD000E7802075631A0512B7150008938545AA7A
:103BE000130584D597200000E780607711C9B715C9
:103BF00000089000938505AB97200000E780206CBB
:103C0000B7150008938505AC130584D5970000000F
:103C1000E780E0E1B71500082AD69385C5AC130507
:103C200084D597000000E78080E0B71500082AD40B
:103C3000938585AD130584D597000000E78020DFCC
:103C4000B7150008AA8A938545AE130584D5970059
:103C50000000E780C0DDB71500082AD2938505AFC4
:103C6000130584D597000000E78060DCB7150008D5
:103C70002AD0938585AF130584D597000000E7808F
:103C800000DBB71500082A8B938505B0130584D592
:103C900097000000E780A0D9B71500082ACE9385C9
:103CA000C5B0130584D597000000E78040D8B7154C
:103CB00000082A8A938545B1130584D59700000032
:103CC000E780E0D61257B25682582258F24726862D
:103CD000CA852AC65AC4880056C252C097F0FFFF50
:103CE000E780203D014597F0FFFFE780C0053716CC
:103CF00000080547FD461306C6B18145014597F00A
:103D0000FFFFE780C01D09BD014597F0FFFFE78079
:103D10008003C1643716000805479386F4FF130635
:103D200006B38145014597F0FFFFE780401B014541
:103D300005479386F4FF130684D5B54597F0FFFF3A
:103D4000E780E019130584D5A1B5850761B30000AC
:103D50000000000000000000000000000000000063
:103D60000000000000000000000000000000000053
:103D70000000000000000000000000000000000043
:103D80005D7106C012C216C41AC61EC82ACA2ECC3D
:103D900032CE36D03AD23ED442D646D872DA76DC2B
:103DA0007ADEFEC0F322103496C0F322003096C2B1
:103DB000F322407C96C4732520348A8597E0FFFF68
:103DC000E7808014864273901234964273900230DA
:103DD000A6427390427C82401242A2423243C243C6
:103DE0005245E245724682561257A2573258C2587F
:103DF000525EE25E725F864F6161730020300000A8
:103E0000000000005D7106C012C216C41AC61EC8AA
:103E10002ACA2ECC32CE36D03AD23ED442D646D85A
:103E200072DA76DC7ADEFEC073D0E87E7350F97EFB
:103E300073D0B97EF390D07E73700430B642739025
:103E4000427CA64273901234964273902234824090
:103E50001242A2423243C2435245E2457246825662
:103E60001257A2573258C258525EE25E725F864FB6
:103E7000616173002030AA82B68E214363C46E0054
:103E80009102E11E8A0E3D433313D3011343F3FF26
:103E9000AE83B3E3C300B393D30103AE0200337E1A
:103EA0006E00336E7E0023A0C2018280F18D2D8EC4
:103EB0004206D18D0CC982804CC982804CC582805B
:103EC0000C458280B712024003A3C2013363A300F2
:103ED00023AE62008280B712024003A382013363E3
:103EE000A30023AC62008280711106C04145970097
:103EF0000000E78060FDB71200401303B00623A462
:103F000062021303703E23A6620223A80200054347
:103F100023A06200824011018280B712004003A5F5
:103F2000020119C123A802008280711106C0214537
:103F300097000000E78060FA37150140130505C0BF
:103F400081450D4681460D4797000000E780E0F26D
:103F50008506E39BE6FE82401101828097C2FF172F
:103F60009382420A038502008280711106C03715D0
:103F70000140130505C097C2FF179382A2088385ED
:103F80000200FD1563D305009D452380B2001D4648
:103F900097000000E780C0F1038502008240110114
:103FA0008280711106C0214597000000E780E0F291
:103FB00037150140130505C081450D46A14641470F
:103FC00097000000E78060EB8506E39BE6FE8240F9
:103FD00011018280711106C097C2FF179382C2023D
:103FE00083A20200AA9237150140130505C083C5BC
:103FF0000200A20537060100130606F09700000034
:10400000E78000EB82401101828097C2FF17938204
:10401000A2FF83A20200AA922380B20082807111C3
:1040200006C0114597000000E78020EB37150140DE
:1040300013050580814511469546254797000000E8
:10404000E780A0E38506E39BE6FE824011018280C3
:10405000711106C07D5E97CEFF17938EBEFB03A342
:104060000E009303F3FF23A07E006397030423A0B5
:104070006E00371501401305058097000000E780AA
:1040800060E49581BD898DC985813335B0003303E6
:10409000A00085813335B0002A9385813335B00087
:1040A0002A9397000000E780A0EB0A05336EA30077
:1040B0001303002023A06E007285824011018280CC
:1040C00097C2FF17938252F523900200828097C215
:1040D000FF17938272F403D30200A5430503137EF6
:1040E000F30063D8C3031903135E4300137EFE007D
:1040F00063D1C30313030306135E8300137EFE0024
:1041000063D9C30113030360135EC30063D3C30108
:10411000014323906200828097C2FF179382D2EFFF
:1041200003D50200828097C2FF17938212EF03A388
:1041300002007D1323A06200635003021303F00802
:1041400023A0620097C2FF17938202EC03A3020030
:104150001343130023A062008280797113D84501B4
:1041600026D24ECE52CC5AC85EC69394C50006D60F
:1041700022D44AD056CA1378F87F2A8BB28B368A5B
:10418000B18093D9F501630408089307F07F630EAB
:10419000F80C935AD5018E04B3E49A00B70A800054
:1041A000B3EA540113143500130918C0014B135519
:1041B0004A019314CA001378F57FB180135AFA01AB
:1041C0006308080C9307F07F6301F812139534001D
:1041D00093D7DB015D8DB7048000C98C139F3B0032
:1041E000130518C0814713172B005D8F7D17B94643
:1041F00033C649013308A94063EBE61097D6FFFFA9
:10420000938646940A073697184336970287B3EA8F
:10421000A40063860A068DCC268597200000E780DF
:10422000E0C8930755FF7147634BF702F54A130443
:1042300085FFB38AFA40B3948400B35A5B01B3EAB2
:104240009A0033148B001308D0C03309A840B9BFBB
:1042500097200000E78080C513050502D9B79304B5
:1042600085FDB31A9B000144F9BFB3EAA400638C37
:104270000A002A84A68A1309F07F0D4B0DBF014462
:104280000149054B2DB701441309F07F094B05B7D0
:1042900033EF740163040F069DC826859720000044
:1042A000E780C0C0930755FF7147634AF70275471F
:1042B000130F85FF1D8FB394E40133D7EB00D98C26
:1042C000339FEB011306D0C03305A64021BF5E85A6
:1042D00097200000E78080BD13050502E1B7930435
:1042E00085FDB3949B00014FF1BF33EF7401630B65
:1042F0000F005E8F1305F07F8D47F5B581440145B2
:104300008547D5B581441305F07F8947E9BD63E64C
:10431000540163939A2A6361E42B9396FA0113572D
:1043200014009317F40193DA1A0033E4E6001395AE
:10433000840093548F01458D135E0501B3D8CA03E1
:1043400013130501135303011357040193158F0031
:10435000B3F4CA03C68FB3061303939A04013367F9
:104360005701637CD7002A97938FF8FF6367A700F4
:104370006375D700938FE8FF2A97158FB35EC70345
:10438000420441803377C703F686B308D30342075C
:10439000418F637C17012A979386FEFF6367A7000E
:1043A000637517019386EEFF2A97C20FB3EFDF0004
:1043B000C166330417419388F6FF13DF0F0133F70B
:1043C0001F0193DE0501B3F81501B3031703B3040E
:1043D0001F033387EE02B302DF03330F970013D7B7
:1043E00003017A9763739700B692135F0701169FD4
:1043F000C162FD12B3765700C206B3F353009E9616
:104400006367E401FE84631EE40363FCD702AE9796
:1044100033B7B7002A973A949384FFFF6366850009
:104420006311850263EFB7006366E401631B8F00CD
:1044300063F9D700AE9733B7B7002A979384EFFF9D
:104440003A94B386D7403304E441B3B7D7001D8C08
:104450007D5F6305850E335FC40313D70601337494
:10446000C403B307E3034204598C7A87637CF400E6
:104470002A941307FFFF6367A4006375F400130712
:10448000EFFF2A941D8C335FC403C206C1823374CC
:10449000C403FA873303E3034204558C637C64004E
:1044A0002A949307FFFF6367A40063756400930772
:1044B000EFFF2A9442075D8F93170701C1833304EE
:1044C000644013530701338E1703B3081303338378
:1044D0006E02B38EFE0293570E01C69EF69763F4EA
:1044E0001701C166369393D807019A9841637D13EB
:1044F000B3F66700C206337E6E00F296636614015F
:10450000631E14193A8F9DCA2A94130FF7FF636133
:10451000A402636614016312141963FDD500939716
:104520001500B3B5B7002E95130FE7FF2A94BE858B
:10453000631414016384B600136F1F001307F83F60
:104540006357E00A93777F0081CF9377FF0091460E
:104550006388D70093064F0033BFE601FA94368F85
:104560009397740063D80700B70700FFFD17FD8C11
:10457000130708409307E07F63C8E710135F3F000D
:104580009397D401B3E7E70113D5340032051377CD
:10459000F77F5207B25022543181598D7E0633671E
:1045A000C50092540259F249624AD24A424BB24B78
:1045B0003E85BA85456182807D1881478DBB4E86D8
:1045C000D684228FDA8709476380E70C0D4763861C
:1045D000E70A0547E394E7F60145814785A8528637
:1045E000DDB7B7040800014F01468D47E9BF054517
:1045F000198D93078003E3C1A7FEFD4763CAA70493
:104600001308E841B39704013357AF0033180F0183
:10461000D98F33380001B3E7070133D5A40013F76E
:10462000770001CF13F7F70091466308D70013878F
:104630004700B337F7003E95BA8713178500634AE2
:1046400007041317D5018D83D98F0D8101473DBF15
:104650008557998F93060002B3D7F400014763068C
:10466000D5001308E84333970401336FE701333F64
:10467000E001B3E7E70101455DB737050800814771
:104680001307F07F014619B7014581471307F07FF3
:10469000F5BD014581470547D5BD7A873A8F69BD8C
:1046A00013D84501B7071000FD1713D7460113783B
:1046B000F87F930EF07FB3F8B7002A83F58FFD8162
:1046C000328E1377F77FFD826318D801B3EEA8000E
:1046D00063850E0689450DA86316D701B3EEC700A2
:1046E000E39A0EFE631D080433E5A8001335150098
:1046F00019E35D8E15CE11E5638AD50085C9FD5598
:1047000021A0FD5591C2B6852E858280E34807FF22
:104710006354E800F5F9E5B7E3E217FF639CF8009E
:10472000E36E6EFCE368C3FF8145F9BF8545E9BFD1
:1047300065FDE9B7E3E0F8FEC5BFE30107FB4DFF08
:10474000014545BF79714ECE93D9450122D426D279
:1047500052CC56CA5AC89394C50006D64AD05EC6F3
:1047600093F9F97F2A84328BB68AB18013DAF50186
:10477000638109089307F07F6389F90C9357D5018A
:104780008E04DD8CB7078000DD8C1319350093890A
:1047900019C0814B13D54A011394CA001375F57FD4
:1047A000318093DAFA0161C59307F07F630DF5104C
:1047B0009357DB010E045D8CB70780005D8C1305F9
:1047C00015C093173B00014793962B00D98E4E9549
:1047D000FD16B94533465A011308150063E6D51096
:1047E00097C5FFFF9385C5398A06AE969442AE966B
:1047F000828633E9A400630309069DC826859710C5
:104800000000E780A06A130755FFF14763C9E7027C
:10481000F547130985FF998FB3942401B357F4002A
:10482000DD8C331924019309D0C0B389A94095B711
:1048300097100000E780806713050502E9B793042D
:1048400085FDB31494000149F9BF33E9A400630B5B
:1048500009002A899309F07F8D4B2DBF814481493E
:10486000854B0DBF81449309F07F894B25B7B36712
:104870006401B5C31DC8228597100000E78000635E
:10488000930655FFF14763CAD7027547930785FF23
:10489000158F3314F4003357EB00598CB317FB001A
:1048A0001307D0C03305A74039BF5A8597100000C1
:1048B000E780C05F13050502E1B7130485FD3314DB
:1048C0008B008147F1BFB367640191CBDA87130591
:1048D000F07F0D47D5BD014401450547F5B50144BD
:1048E0001305F07F0947CDB5416F930EFFFF1357B6
:1048F000090193D807013379D901B3F7D701B385FB
:104900002803B3862703B30FF7023383F50193D54A
:1049100006019A95330E170363F3F5017A9E93D33C
:104920000501B3F5D501B3F6D601135F0401B372E7
:10493000D401C205B695B30E5702B38622033309DC
:104940002F033303D90113D906011A993307E7035B
:104950006374D90141631A97935E0901C169BA9ED4
:104960001387F9FF3379E900F98E13D40401420962
:10497000F98C369933879702CA933303F402B386CE
:104980009802B3878802B388660093560701C696DB
:1049900063F36600CE9793D80601C169B38FF80020
:1049A0009387F9FFFD8E7D8FB3889202C206BA9677
:1049B000B3075402B3049F0233038F02BE9413D48F
:1049C0000801A29463F3F4004E93C167FD1733F717
:1049D000F400B3F8F80042071E9E469733392E01C3
:1049E000769733042701369EB336DE00B308F40110
:1049F000338FD8003337D70133342401598CC18029
:104A0000B3B8F801B336DF002694B3E6D800369485
:104A10001A9493577F0126045D8C93179E00CD8FC7
:104A2000B337F000135E7E0113179F00B3E7C70191
:104A3000D98F131774006358070A13D71700858B93
:104A4000D98F1317F401D98F05809306F83F635E61
:104A5000D00813F7770001CF13F7F70091456308EB
:104A6000B70013874700B337F7003E94BA87131790
:104A7000740063580700370700FF7D17798C930691
:104A800008401307E07F634CD70E13D73700931706
:104A9000D401D98F0D80320413F7F67F520731808D
:104AA000598C7E063367C400B25022549254025986
:104AB000F249624AD24A424BB24B3E85BA854561C1
:104AC000828052862684CA875E8789466309D70A10
:104AD0008D46630FD7088546E319D7F60144814711
:104AE0009DA05686DDB72A888DB78545958D13071D
:104AF0008003E345B7FE7D476349B7041308E841E7
:104B000033170401B3D6B700B3970701558FB337F6
:104B1000F000D98F3354B40013F7770001CF13F7A7
:104B2000F70091466308D70013874700B337F700B3
:104B30003E94BA8713178400634807041317D401FF
:104B40008D83D98F0D808146B9B70557158F130511
:104B500000023357E40081466386A5001308E8434A
:104B6000B3160401D58FB337F000D98F01446DB768
:104B70003704080081479306F07F014629BF0144AE
:104B800081479306F07F01BF01448147854621B7E5
:104B9000370810007D18B378B8008E089357D501F8
:104BA000011113D745013378D800B3E7170193D823
:104BB000460126CA4AC89374F77F13D9F5011357E3
:104BC000D6010E0806CE22CC4EC693F8F87F930588
:104BD000F07F0E05FD82336707010E066395B8006E
:104BE000B365C70099E193C61600338814416393F7
:104BF0002623635C000F63950804B366C7008DC26B
:104C00001388F4FF631A08002A963335A600BA9772
:104C1000AA973285854495A89306F07F6399D402BC
:104C2000137775006306074E1377F500914663010D
:104C3000D74E9306450033B5A600AA973685C9A975
:104C40009306F07FE38ED4FCB7068000558F930661
:104C5000800363C80609FD4663C00607930500028A
:104C6000B3850541B316B700B35806013316B60035
:104C7000B3E616013336C000558E335707012A9626
:104C80003E97B337A600BA97328513978700E3594A
:104C900007F885041307F07F638AE446B70680FFB0
:104CA000FD16FD8E9355150005899397F6014D8DE0
:104CB0005D8D93D71600ADB7930608FE93080002EA
:104CC000B356D70081456308180193050004338863
:104CD0000541B31507014D8E3336C000558E01478F
:104CE00079BF598E3336C000DDBF630B080AB38528
:104CF00098408DE4B3E6A700638106409386F5FFF4
:104D000099E63295BA973336C500B29721B71308A2
:104D1000F07F639D0501BA873285E5AC9306F07F8D
:104D2000E38BD8FEB7068000D58FAE86930580034F
:104D300063C4D506FD4563CBD502130800023308D2
:104D4000D8403353D500B395070133150501B3E5BA
:104D500065003335A0004D8DB3D6D7003295B387AB
:104D6000E6003336C500B297C68405B7938506FEC4
:104D700013030002B3D5B700014863886600130827
:104D80000004B306D8403398D7003365A800333504
:104D9000A0004D8D8146D9B75D8D3335A000DDBFB4
:104DA0009386140093F5E67FA9E5B3E6A7009DE49A
:104DB00063890634B366C700E38406E62A96BA9789
:104DC0003335A600AA97139787003285E35A07E484
:104DD000370780FF7D17F98F854499B58DDE598E91
:104DE000630906220149B707400001459304F07F9B
:104DF00005A69305F07F6389B6302A963E97B337B0
:104E0000A6003E971315F7010582518D93571700A1
:104E1000B68439B56355000D63920808B366C700C0
:104E2000E38006E01388F4FF631B08003306C540E7
:104E30003335C500998F898F32858544B1A093069B
:104E4000F07FE38FD4DC9306800363C60609FD463A
:104E500063CE060593050002B3850541B316B7007E
:104E6000B35806013316B600B3E616013336C00058
:104E7000558E335707013306C5403387E740B337B4
:104E8000C500B307F740328513978700E35A07D868
:104E9000370480007D147D8CAA896DA29306F07F73
:104EA000E380D4D8B7068000558F71BF930608FE03
:104EB00093080002B356D700814563081801930593
:104EC000000433880541B31507014D8E3336C00009
:104ED000558E01474DB7598E3336C000DDBF630490
:104EE000080C3388984095E8B3E5A700638105284E
:104EF0009305F8FF91E93305A640B307F740333631
:104F0000A600918F368915BF1303F07F631F6800D9
:104F1000BA8732859304F07F7DA09305F07FE38903
:104F2000B8FEB7058000CD8FC285130880036348A3
:104F3000B8067D48634EB802130300023303B34042
:104F4000335EB50033986700331565003368C801D8
:104F50003335A0003365A800B3D5B7003305A640AC
:104F6000B307B7403336A600918FC684368929BF70
:104F7000138805FE130E000233D80701014363882E
:104F8000C50113030004B305B3403393B700336581
:104F9000A3003335A0003365A8008145C1B75D8DFE
:104FA0003335A000DDBF9385140093F5E57FBDE5A3
:104FB00033E8A700B365C700B1E463180800638C49
:104FC000051ABA8732853689A1B9E38B05C433083F
:104FD000C540B385E740B3380501B3851541139447
:104FE0008500635A04003305A640B307F740333603
:104FF000A600918FC9BF3365B80063020518AE875C
:10500000428539B9631A0800638D0516BA8732855F
:1050100036899304F07F29B1EDDDE9B3B309C540CA
:10502000B33535013384E7400D8C9315840063D983
:105030000506B309A640B307F7403336360133847B
:10504000C740368925C4228597100000E78000E616
:10505000130785FFFD4763C3E70693070002998F97
:105060003314E400B3D7F9005D8C3395E900634055
:105070009708058F93071700FD4663C7F6041307CB
:1050800000021D8F3356F500B316E4003315E5001A
:10509000D18E3335A000558DB357F400814449B605
:1050A00033E5890045F181478144C1A84E859710B9
:1050B0000000E780A0DF1305050259BF130485FD3A
:1050C00033948900014565B705171306000233576D
:1050D000E40081466387C700930600049D8EB316E3
:1050E000D400558D3335A000598D814745BFB70792
:1050F00080FFFD17998CE18F25B6BA873285AE8483
:1051000005B6BA87328529BE9304F07F81470145F1
:1051100013978700635B070085041307F07F63879D
:10512000E406370780FF7D17F98F1397D7010D81AC
:10513000598D1307F07F8D836399E4005D8D81475E
:1051400009C5B70708000145014913F7F47FB20705
:105150005207F2406244B1839315F901D98F33E7C6
:10516000B700D2444249B249BA8505618280BA8704
:105170003285C28489BD81470145014951BF8147BC
:10518000EDBF01450149B70740008DB18147014599
:1051900069BF411122C406C62A8421C597100000A8
:1051A000E780C0D01307E041A947098F63C6A70273
:1051B000AD47898F5505B357F4003314A4002285F9
:1051C000B2402244B2071377F77F5207B183B3E6A8
:1051D000E700B685410182805515B317A40001444C
:1051E000F9BF81470147E1BF011106CE22CC26CA93
:1051F0004AC84EC652C4B367B500638607142A84F2
:105200002E89AE84BDC52E8597100000E78000CAA8
:10521000AA89130AE043330A3A419307304363C72C
:105220004707AD47228563D337039307A00263C9BD
:1052300037059305B002938759FFB3853541B355C0
:10524000B400B314F900CD8C3315F4009395C40069
:10525000F2406244137AFA7F520AB181B3E7450102
:105260002A87D2444249B249224A3A85BE8505611D
:10527000828097100000E78060C39309050251BF48
:10528000938559FDB314B4000145C9B79307604332
:1052900063D94703138689032285CA8597100000C6
:1052A000E78020BEC98D2146B334B0002285CA856F
:1052B0003306364197100000E78000BA33E4A400BB
:1052C0002E89A147228563D437039307700263C6F2
:1052D000370793058002938789FFB38535413319DA
:1052E000F900B355B40033E925013315F400B707CD
:1052F00080FFFD17B375F9009377750081CF937721
:10530000F50011476388E7009307450033B5A70010
:10531000AA953E859397850063DA0700B70780FF5B
:10532000FD17130AF043FD8D330A3A410D8193971F
:10533000D5015D8D93D4350011BF138989FD3319D3
:10534000240101456DB781440145014A01B7370782
:10535000800041117D17B377A70026C24AC093543D
:10536000F5011359750113D575016D8F1379F90F77
:105370001375F50F06C622C4FD818E070E07B3060E
:10538000A9406392B412635AD00621E1630B072649
:10539000FD168DE6BA974A85139757006359070C97
:1053A00005051307F00F6304E5263707007E93F623
:1053B00017007D178583F98FD58F55A81306F00F39
:1053C000631CC9001305F00F5DA01306F00FE30B7B
:1053D000C9FE37060004518F6D466354D600054759
:1053E00055BF13060002B355D700B306D640331796
:1053F000D7003337E0004D8F71BFB9C63306254162
:10540000631D090089CB7D1619E2BA9771B793061F
:10541000F00F631BD500BA8799A89306F00FE30C31
:10542000D5FEB7060004D58FED4663D4C600854788
:10543000E9BF93060002918EB3D5C700B397D7009A
:10544000B337F000CD8FD1B79306190013F5E60FEF
:1054500039E163190902E1D319CBBA9713975700C1
:1054600063570700370700FC7D17F98F054513F7D1
:105470007700630F071813F7F7009146630AD718F0
:10548000910779A26381071815DF8144B7070002ED
:105490001305F00FB5AA1306F00F6388C616BA9766
:1054A00085833685E9B76355D0061DE94A8561D302
:1054B000FD1681EE998F13975700E35A07FA3704C8
:1054C00000047D147D8C2A89C5A81306F00F1305EE
:1054D000F00FE30EC9F86D46635ED600054735A0B0
:1054E0001306F00F1305F00FE303C9F837060004A5
:1054F000518FD5B713060002B355D700B306D64077
:105500003317D7003337E0004D8F998F4A8565B741
:10551000B9CA330625416310090299CB7D1609E605
:10552000B307F740AE8441BF9306F00F631CD5006C
:10553000BA87AE842DBF9306F00FE30BD5FEB706F6
:105540000004D58FED4663D4C6008547D1BF9306CE
:105550000002918E33D8C700B397D700B337F0005D
:10556000B367F80075BF130519001375E50F05ED56
:105570006314090289E74DFF8147814451A8E3087C
:1055800007EEB386E74013965600B307F740E342B1
:1055900006FAFDD2B687E1BDE39807EEE30707EE12
:1055A000BA87AE8405B53384E7409316540063DFB1
:1055B00006023304F740AE84228597100000E7808E
:1055C000E08E6D153314A400634625033305254191
:1055D000050513070002B357A4003305A740331491
:1055E000A40033348000C18F014551B571F4814767
:1055F000014561B7B70700FCFD173305A940E18FEE
:10560000BDB54A85ADB5BA8775BB1305F00F8147A7
:1056100013975700635B070005051307F00F630F2F
:10562000E502370700FC7D17F98F1307F00F8D8314
:105630006316E50081C7B707400081441375F50F75
:10564000B2402244A6071317750113D59700FE0434
:10565000598D458D02499244410182808147F1B7BD
:10566000011126CA935475014AC84EC652C49319F3
:10567000950006CE22CC56C293F4F40F2E8A93D90D
:1056800099001359F501B5C49307F00F6382F4082C
:105690008E09B7070004B3E9F900938414F8814A2E
:1056A00013557A0113149A001375F50F2580135AB8
:1056B000FA012DC99307F00F6305F5080E04B7072B
:1056C00000045D8C130515F8814793962A00DD8E42
:1056D000FD163947334649013385A440636CD7062C
:1056E00097B5FFFF9385854D8A06AE9698422E9713
:1056F0000287638609024E8597000000E780007BE1
:105700009307B5FF9304A0F8B399F900898C41BFC2
:105710009304F00F894AE38509F88D4A51B7814413
:10572000854ABDBF0DC4228597000000E780007840
:105730009307B5FF3314F4009307A0F83385A7400F
:1057400061B71305F00F894749D08D47BDBF0145AB
:105750008547A5BF1318540063FE890A7D1581464D
:105760001354080133D38902C167FD17B377F800DA
:10577000C18233F789029A85B38867024207558F41
:10578000637C170142979305F3FF63670701637515
:1057900017019305E3FF429733071741B358870278
:1057A00033778702B386170393170701468763FC95
:1057B000D700C2971387F8FF63E7070163F5D700A7
:1057C0001387E8FFC29713940501958F598CB3375F
:1057D000F0005D8C1307F507635AE00893777400B7
:1057E00099C79377F40091466383D7001104931708
:1057F000440063D80700B70700F8FD177D8C130736
:1058000005089307E00F0D8063D9E70201441307F1
:10581000F00F25A09396F90193D9190091B74A8604
:105820004E84D6870947E383E7FE0D47638FE7067B
:105830000547E391E7FA0144014726041377F70F80
:105840005E072580598C1315F601418DF2406244A4
:10585000D2444249B249224A924A05618280528624
:10586000D1B73704400001468D476DBF8547998FFA
:105870006D47E342F7FC1305E509B357F400331411
:10588000A400333480005D8C9377740099C79377BC
:10589000F40011476383E7001104931754000D804F
:1058A000E3DC07F80144054749BF3704400013070C
:1058B000F00F014659B701114AC81359750126CA9C
:1058C0004EC656C29314950006CE22CC52C413790C
:1058D000F90FAE8AA5809359F5016307090693076E
:1058E000F00F6302F9088E04B7070004DD8C13097A
:1058F00019F8014A13D57A0113949A001375F50F1C
:10590000258093DAFA012DC99307F00F6305F50896
:105910000E04B70700045D8C130515F881471317B3
:105920002A005D8F4A957D17B945B3C65901130604
:10593000150063EBE50697B5FFFF9385E52B0A0796
:105940002E9718432E9702878DC426859700000056
:10595000E780C0559307B5FF1309A0F8B394F4008E
:105960003309A94079B71309F00F094AC1D40D4A88
:1059700051B70149054ABDBF0DC4228597000000FB
:10598000E780C0529307B5FF3314F4009307A0F8E3
:105990003385A74061B71305F00F894749D08D477C
:1059A000BDBF01458547A5BFC1671383F7FF13D767
:1059B000040193550401B3F4640033746400B388A4
:1059C0008402330887023304B702B385950293D467
:1059D0000801C295AE9463F304013E94B3F76400EA
:1059E000C207B3F86800C69713976700C1803337C2
:1059F000E000E9832694D98F1A045D8C9317440044
:105A000063D707069357140005885D8C1307F607C4
:105A10006351E0069377740099C79377F40091453A
:105A20006383B70011049317440063D80700B707D6
:105A300000F8FD177D8C130706089307E00F0D8013
:105A400063DDE70601441307F00F85A8CE862684A0
:105A5000D2870947E388E7FE0D47638BE7040547D4
:105A6000E396E7FA0144014789A8D686DDB72A867E
:105A700071BF8547998F6D47E346F7FE1306E60928
:105A8000B357F4003314C400333480005D8C937733
:105A9000740099C79377F40011476383E7001104FA
:105AA000931754000D80E3D007FC0144054731A053
:105AB000370440001307F00F814626041377F70FD1
:105AC0005E072580598C1395F601418DF2406244A2
:105AD000D2444249B249224A924A05618280935790
:105AE0007501370680009306F6FF93F7F70F9305CD
:105AF000E007E98E1357F501014563FBF50211E755
